{
  "contracts/InferixNodeSale.sol": {
    "InferixNodeSale": {
      "abi": [
        {
          "inputs": [
            {
              "internalType": "string",
              "name": "_name",
              "type": "string"
            },
            {
              "internalType": "address",
              "name": "_configAddress",
              "type": "address"
            },
            {
              "internalType": "bool",
              "name": "_isWhitelistSale",
              "type": "bool"
            },
            {
              "internalType": "uint8",
              "name": "_tier",
              "type": "uint8"
            }
          ],
          "stateMutability": "nonpayable",
          "type": "constructor"
        },
        {
          "inputs": [],
          "name": "EnforcedPause",
          "type": "error"
        },
        {
          "inputs": [],
          "name": "ExpectedPause",
          "type": "error"
        },
        {
          "inputs": [
            {
              "internalType": "address",
              "name": "owner",
              "type": "address"
            }
          ],
          "name": "OwnableInvalidOwner",
          "type": "error"
        },
        {
          "inputs": [
            {
              "internalType": "address",
              "name": "account",
              "type": "address"
            }
          ],
          "name": "OwnableUnauthorizedAccount",
          "type": "error"
        },
        {
          "inputs": [],
          "name": "ReentrancyGuardReentrantCall",
          "type": "error"
        },
        {
          "anonymous": false,
          "inputs": [
            {
              "indexed": true,
              "internalType": "address",
              "name": "previousOwner",
              "type": "address"
            },
            {
              "indexed": true,
              "internalType": "address",
              "name": "newOwner",
              "type": "address"
            }
          ],
          "name": "OwnershipTransferred",
          "type": "event"
        },
        {
          "anonymous": false,
          "inputs": [
            {
              "indexed": false,
              "internalType": "address",
              "name": "account",
              "type": "address"
            }
          ],
          "name": "Paused",
          "type": "event"
        },
        {
          "anonymous": false,
          "inputs": [
            {
              "indexed": true,
              "internalType": "address",
              "name": "sender",
              "type": "address"
            },
            {
              "indexed": false,
              "internalType": "uint256",
              "name": "purchasedAmount",
              "type": "uint256"
            }
          ],
          "name": "Purchase",
          "type": "event"
        },
        {
          "anonymous": false,
          "inputs": [
            {
              "indexed": true,
              "internalType": "address",
              "name": "sender",
              "type": "address"
            },
            {
              "indexed": false,
              "internalType": "uint256",
              "name": "purchasedAmount",
              "type": "uint256"
            },
            {
              "indexed": false,
              "internalType": "string",
              "name": "code",
              "type": "string"
            }
          ],
          "name": "PurchaseWithCode",
          "type": "event"
        },
        {
          "anonymous": false,
          "inputs": [
            {
              "indexed": false,
              "internalType": "address",
              "name": "account",
              "type": "address"
            }
          ],
          "name": "Unpaused",
          "type": "event"
        },
        {
          "inputs": [
            {
              "internalType": "address",
              "name": "user",
              "type": "address"
            },
            {
              "internalType": "bytes32[]",
              "name": "merkleProof",
              "type": "bytes32[]"
            },
            {
              "internalType": "uint256",
              "name": "allocation",
              "type": "uint256"
            }
          ],
          "name": "checkWhitelist",
          "outputs": [
            {
              "internalType": "bool",
              "name": "",
              "type": "bool"
            }
          ],
          "stateMutability": "view",
          "type": "function"
        },
        {
          "inputs": [
            {
              "internalType": "uint256",
              "name": "",
              "type": "uint256"
            }
          ],
          "name": "codes",
          "outputs": [
            {
              "internalType": "string",
              "name": "",
              "type": "string"
            }
          ],
          "stateMutability": "view",
          "type": "function"
        },
        {
          "inputs": [],
          "name": "data",
          "outputs": [
            {
              "internalType": "string",
              "name": "name",
              "type": "string"
            },
            {
              "internalType": "address",
              "name": "configAddress",
              "type": "address"
            },
            {
              "internalType": "bool",
              "name": "isWhitelistSale",
              "type": "bool"
            },
            {
              "internalType": "uint8",
              "name": "tier",
              "type": "uint8"
            }
          ],
          "stateMutability": "view",
          "type": "function"
        },
        {
          "inputs": [],
          "name": "getSaleTokensSold",
          "outputs": [
            {
              "internalType": "uint256",
              "name": "amount",
              "type": "uint256"
            }
          ],
          "stateMutability": "view",
          "type": "function"
        },
        {
          "inputs": [
            {
              "internalType": "string",
              "name": "",
              "type": "string"
            }
          ],
          "name": "isCodeStored",
          "outputs": [
            {
              "internalType": "bool",
              "name": "",
              "type": "bool"
            }
          ],
          "stateMutability": "view",
          "type": "function"
        },
        {
          "inputs": [],
          "name": "owner",
          "outputs": [
            {
              "internalType": "address",
              "name": "",
              "type": "address"
            }
          ],
          "stateMutability": "view",
          "type": "function"
        },
        {
          "inputs": [],
          "name": "paused",
          "outputs": [
            {
              "internalType": "bool",
              "name": "",
              "type": "bool"
            }
          ],
          "stateMutability": "view",
          "type": "function"
        },
        {
          "inputs": [
            {
              "internalType": "uint256",
              "name": "paymentAmount",
              "type": "uint256"
            },
            {
              "internalType": "string",
              "name": "code",
              "type": "string"
            }
          ],
          "name": "purchase",
          "outputs": [],
          "stateMutability": "nonpayable",
          "type": "function"
        },
        {
          "inputs": [
            {
              "internalType": "string",
              "name": "",
              "type": "string"
            }
          ],
          "name": "purchaseAmountPerCode",
          "outputs": [
            {
              "internalType": "uint256",
              "name": "",
              "type": "uint256"
            }
          ],
          "stateMutability": "view",
          "type": "function"
        },
        {
          "inputs": [],
          "name": "renounceOwnership",
          "outputs": [],
          "stateMutability": "nonpayable",
          "type": "function"
        },
        {
          "inputs": [],
          "name": "saleTokenPurchased",
          "outputs": [
            {
              "internalType": "uint256",
              "name": "",
              "type": "uint256"
            }
          ],
          "stateMutability": "view",
          "type": "function"
        },
        {
          "inputs": [],
          "name": "totalPaymentReceived",
          "outputs": [
            {
              "internalType": "uint256",
              "name": "",
              "type": "uint256"
            }
          ],
          "stateMutability": "view",
          "type": "function"
        },
        {
          "inputs": [
            {
              "internalType": "address",
              "name": "",
              "type": "address"
            }
          ],
          "name": "totalPurchased",
          "outputs": [
            {
              "internalType": "uint256",
              "name": "",
              "type": "uint256"
            }
          ],
          "stateMutability": "view",
          "type": "function"
        },
        {
          "inputs": [
            {
              "internalType": "address",
              "name": "newOwner",
              "type": "address"
            }
          ],
          "name": "transferOwnership",
          "outputs": [],
          "stateMutability": "nonpayable",
          "type": "function"
        },
        {
          "inputs": [
            {
              "internalType": "uint256",
              "name": "paymentAmount",
              "type": "uint256"
            },
            {
              "internalType": "bytes32[]",
              "name": "merkleProof",
              "type": "bytes32[]"
            },
            {
              "internalType": "string",
              "name": "code",
              "type": "string"
            }
          ],
          "name": "whitelistedPurchase",
          "outputs": [],
          "stateMutability": "nonpayable",
          "type": "function"
        }
      ],
      "evm": {
        "bytecode": {
          "linkReferences": {},
          "object": "60806040523480156200001157600080fd5b50604051620021a9380380620021a98339810160408190526200003491620001ba565b33806200005b57604051631e4fbdf760e01b81526000600482015260240160405180910390fd5b620000668162000114565b506000805460ff60a01b1916905560018055604080516080810182528581526001600160a01b03851660208201528315159181019190915260ff82166060820152600280620000b6878262000358565b50602082015160019091018054604084015160609094015160ff16600160a81b0260ff60a81b19941515600160a01b026001600160a81b03199092166001600160a01b03909416939093171792909216179055506200042492505050565b600080546001600160a01b038381166001600160a01b0319831681178455604051919092169283917f8be0079c531659141344cd1fd0a4f28419497f9722a3daafe3b4186f6b6457e09190a35050565b634e487b7160e01b600052604160045260246000fd5b80516001600160a01b03811681146200019257600080fd5b919050565b805180151581146200019257600080fd5b805160ff811681146200019257600080fd5b60008060008060808587031215620001d157600080fd5b84516001600160401b0380821115620001e957600080fd5b818701915087601f830112620001fe57600080fd5b81518181111562000213576200021362000164565b604051601f8201601f19908116603f011681019083821181831017156200023e576200023e62000164565b81604052828152602093508a848487010111156200025b57600080fd5b600091505b828210156200027f578482018401518183018501529083019062000260565b60008484830101528098505050506200029a8188016200017a565b94505050620002ac6040860162000197565b9150620002bc60608601620001a8565b905092959194509250565b600181811c90821680620002dc57607f821691505b602082108103620002fd57634e487b7160e01b600052602260045260246000fd5b50919050565b601f82111562000353576000816000526020600020601f850160051c810160208610156200032e5750805b601f850160051c820191505b818110156200034f578281556001016200033a565b5050505b505050565b81516001600160401b0381111562000374576200037462000164565b6200038c81620003858454620002c7565b8462000303565b602080601f831160018114620003c45760008415620003ab5750858301515b600019600386901b1c1916600185901b1785556200034f565b600085815260208120601f198616915b82811015620003f557888601518255948401946001909101908401620003d4565b5085821015620004145787850151600019600388901b60f8161c191681555b5050505050600190811b01905550565b611d7580620004346000396000f3fe608060405234801561001057600080fd5b50600436106100f55760003560e01c806373d4a13a116100975780638da5cb5b116100665780638da5cb5b14610206578063da9581b614610221578063e86613a714610234578063f2fde38b1461025457600080fd5b806373d4a13a146101a557806376078dbe146101bd5780637a900468146101d0578063852d58ba146101fe57600080fd5b806348faade4116100d357806348faade414610156578063497aef281461015f5780635c975abb1461017f578063715018a61461019d57600080fd5b806301deac2c146100fa5780631d6a4581146101385780632761f32914610141575b600080fd5b6101256101083660046116fd565b805160208183018101805160098252928201919093012091525481565b6040519081526020015b60405180910390f35b61012560055481565b61015461014f366004611786565b610267565b005b61012560045481565b61012561016d36600461183f565b60066020526000908152604090205481565b600054600160a01b900460ff165b604051901515815260200161012f565b6101546105df565b6101ad6105f3565b60405161012f94939291906118ac565b61018d6101cb3660046118e7565b6106aa565b61018d6101de3660046116fd565b805160208183018101805160088252928201919093012091525460ff1681565b6101256107bb565b6000546040516001600160a01b03909116815260200161012f565b61015461022f366004611943565b6108f7565b61024761024236600461198a565b610b8a565b60405161012f91906119a3565b61015461026236600461183f565b610c36565b60035460408051636754a1f760e11b815290516000926001600160a01b03169163cea943ee9160048083019260e09291908290030181865afa1580156102b1573d6000803e3d6000fd5b505050506040513d601f19601f820116820180604052508101906102d591906119d3565b600354909150600160a01b900460ff16156103915742816060015167ffffffffffffffff1611156103425760405162461bcd60e51b815260206004820152601260248201527139b0b632903430b9903737ba103132b3bab760711b60448201526064015b60405180910390fd5b806080015167ffffffffffffffff1642111561038c5760405162461bcd60e51b815260206004820152600960248201526839b0b6329037bb32b960b91b6044820152606401610339565b61042e565b428160a0015167ffffffffffffffff1611156103e45760405162461bcd60e51b815260206004820152601260248201527139b0b632903430b9903737ba103132b3bab760711b6044820152606401610339565b8060c0015167ffffffffffffffff1642111561042e5760405162461bcd60e51b815260206004820152600960248201526839b0b6329037bb32b960b91b6044820152606401610339565b60035460405163da2f8e7d60e01b8152600160a81b820460ff1660048201526001600160a01b039091169063da2f8e7d90602401602060405180830381865afa15801561047f573d6000803e3d6000fd5b505050506040513d601f19601f820116820180604052508101906104a39190611a80565b6000036104f25760405162461bcd60e51b815260206004820152601460248201527f666f72207075626c69632073616c65206f6e6c790000000000000000000000006044820152606401610339565b8361053f5760405162461bcd60e51b815260206004820152600e60248201527f696e76616c69642070726f6f66730000000000000000000000000000000000006044820152606401610339565b61054b338686896106aa565b6105975760405162461bcd60e51b815260206004820152600d60248201527f70726f6f6620696e76616c6964000000000000000000000000000000000000006044820152606401610339565b6105d78684848080601f016020809104026020016040519081016040528093929190818152602001838380828437600092019190915250610c8d92505050565b505050505050565b6105e7611498565b6105f160006114de565b565b60028054819061060290611a99565b80601f016020809104026020016040519081016040528092919081815260200182805461062e90611a99565b801561067b5780601f106106505761010080835404028352916020019161067b565b820191906000526020600020905b81548152906001019060200180831161065e57829003601f168201915b505050600190930154919250506001600160a01b0381169060ff600160a01b8204811691600160a81b90041684565b604080516001600160a01b0386166020820152908101829052600090819060600160408051601f19818403018152828252805160209182012090830152016040516020818303038152906040528051906020012090506107b18585808060200260200160405190810160405280939291908181526020018383602002808284376000920191909152505060035460405163da2f8e7d60e01b8152600160a81b820460ff1660048201526001600160a01b03909116925063da2f8e7d9150602401602060405180830381865afa158015610787573d6000803e3d6000fd5b505050506040513d601f19601f820116820180604052508101906107ab9190611a80565b83611546565b9695505050505050565b6003546040516365df182b60e01b815260ff600160a01b8304811615156004830152600160a81b83041660248201526000916001600160a01b031690829082906365df182b90604401606060405180830381865afa158015610821573d6000803e3d6000fd5b505050506040513d601f19601f820116820180604052508101906108459190611ae5565b90506000826001600160a01b031663cea943ee6040518163ffffffff1660e01b815260040160e060405180830381865afa158015610887573d6000803e3d6000fd5b505050506040513d601f19601f820116820180604052508101906108ab91906119d3565b6040015182516108cd91906fffffffffffffffffffffffffffffffff16611b7e565b9050806000036108e1576000935050505090565b806004546108ef9190611b7e565b935050505090565b60035460408051636754a1f760e11b815290516000926001600160a01b03169163cea943ee9160048083019260e09291908290030181865afa158015610941573d6000803e3d6000fd5b505050506040513d601f19601f8201168201806040525081019061096591906119d3565b600354909150600160a01b900460ff1615610a1c5742816060015167ffffffffffffffff1611156109cd5760405162461bcd60e51b815260206004820152601260248201527139b0b632903430b9903737ba103132b3bab760711b6044820152606401610339565b806080015167ffffffffffffffff16421115610a175760405162461bcd60e51b815260206004820152600960248201526839b0b6329037bb32b960b91b6044820152606401610339565b610ab9565b428160a0015167ffffffffffffffff161115610a6f5760405162461bcd60e51b815260206004820152601260248201527139b0b632903430b9903737ba103132b3bab760711b6044820152606401610339565b8060c0015167ffffffffffffffff16421115610ab95760405162461bcd60e51b815260206004820152600960248201526839b0b6329037bb32b960b91b6044820152606401610339565b60035460405163da2f8e7d60e01b8152600160a81b820460ff1660048201526001600160a01b039091169063da2f8e7d90602401602060405180830381865afa158015610b0a573d6000803e3d6000fd5b505050506040513d601f19601f82011682018060405250810190610b2e9190611a80565b15610b7b5760405162461bcd60e51b815260206004820152601460248201527f666f722077686974656c6973746564206f6e6c790000000000000000000000006044820152606401610339565b610b858383610c8d565b505050565b60078181548110610b9a57600080fd5b906000526020600020016000915090508054610bb590611a99565b80601f0160208091040260200160405190810160405280929190818152602001828054610be190611a99565b8015610c2e5780601f10610c0357610100808354040283529160200191610c2e565b820191906000526020600020905b815481529060010190602001808311610c1157829003601f168201915b505050505081565b610c3e611498565b6001600160a01b038116610c81576040517f1e4fbdf700000000000000000000000000000000000000000000000000000000815260006004820152602401610339565b610c8a816114de565b50565b610c9561155c565b610c9d61159f565b60035460408051636754a1f760e11b815290516000926001600160a01b03169163cea943ee9160048083019260e09291908290030181865afa158015610ce7573d6000803e3d6000fd5b505050506040513d601f19601f82011682018060405250810190610d0b91906119d3565b600354909150600160a01b900460ff1615610dc25742816060015167ffffffffffffffff161115610d735760405162461bcd60e51b815260206004820152601260248201527139b0b632903430b9903737ba103132b3bab760711b6044820152606401610339565b806080015167ffffffffffffffff16421115610dbd5760405162461bcd60e51b815260206004820152600960248201526839b0b6329037bb32b960b91b6044820152606401610339565b610e5f565b428160a0015167ffffffffffffffff161115610e155760405162461bcd60e51b815260206004820152601260248201527139b0b632903430b9903737ba103132b3bab760711b6044820152606401610339565b8060c0015167ffffffffffffffff16421115610e5f5760405162461bcd60e51b815260206004820152600960248201526839b0b6329037bb32b960b91b6044820152606401610339565b60035460408051636754a1f760e11b815290516001600160a01b0390921691600091839163cea943ee9160048082019260e0929091908290030181865afa158015610eae573d6000803e3d6000fd5b505050506040513d601f19601f82011682018060405250810190610ed291906119d3565b6003546040516365df182b60e01b815260ff600160a01b8304811615156004830152600160a81b90920490911660248201529091506000906001600160a01b038416906365df182b90604401606060405180830381865afa158015610f3b573d6000803e3d6000fd5b505050506040513d601f19601f82011682018060405250810190610f5f9190611ae5565b9050604085511115610fb35760405162461bcd60e51b815260206004820152601060248201527f636f646520697320746f6f206c6f6e67000000000000000000000000000000006044820152606401610339565b80516fffffffffffffffffffffffffffffffff166110135760405162461bcd60e51b815260206004820152601260248201527f73616c65207072696365206973207a65726f00000000000000000000000000006044820152606401610339565b600086116110635760405162461bcd60e51b815260206004820152601160248201527f63616e6e6f7420707572636861736520300000000000000000000000000000006044820152606401610339565b806040015161ffff168660055461107a9190611ba0565b106110c75760405162461bcd60e51b815260206004820152600860248201527f65786363656465640000000000000000000000000000000000000000000000006044820152606401610339565b336000908152600660209081526040909120549082015161ffff1615806110ff5750602082015161ffff166110fc8883611ba0565b11155b61114b5760405162461bcd60e51b815260206004820152601560248201527f65786363656465642063617020706572207573657200000000000000000000006044820152606401610339565b60408301518251600091611170916fffffffffffffffffffffffffffffffff16611b7e565b9050600061117e8983611bb3565b60208601516040517f70a082310000000000000000000000000000000000000000000000000000000081523360048201529192509082906001600160a01b038316906370a0823190602401602060405180830381865afa1580156111e6573d6000803e3d6000fd5b505050506040513d601f19601f8201168201806040525081019061120a9190611a80565b10156112585760405162461bcd60e51b815260206004820152601260248201527f6e6f7420656e6f7567682062616c616e636500000000000000000000000000006044820152606401610339565b896005600082825461126a9190611ba0565b909155505085516040517f23b872dd0000000000000000000000000000000000000000000000000000000081523360048201526001600160a01b03918216602482015260448101849052908216906323b872dd906064016020604051808303816000875af11580156112e0573d6000803e3d6000fd5b505050506040513d601f19601f820116820180604052508101906113049190611bca565b5081600460008282546113179190611ba0565b9091555061132790508a85611ba0565b33600081815260066020526040908190209290925590517f2499a5330ab0979cc612135e7883ebc3cd5c9f7a8508f042540c34723348f6329061136d908d815260200190565b60405180910390a28851156114835760088960405161138c9190611bec565b9081526040519081900360200190205460ff1661141357600160088a6040516113b59190611bec565b908152604051908190036020019020805491151560ff19909216919091179055600780546001810182556000919091527fa66cc928b5edb82af9bd49922954155ab7b0942694bea4ce44661d9a8736c688016114118a82611c50565b505b8160098a6040516114249190611bec565b908152602001604051809103902060008282546114419190611ba0565b909155505060405133907fd4855e7b21a64eb863713fc0e6b4e68770d741fd2bcedbb31ec938db7c31337c9061147a908d908d90611d10565b60405180910390a25b505050505050505061149460018055565b5050565b6000546001600160a01b031633146105f1576040517f118cdaa7000000000000000000000000000000000000000000000000000000008152336004820152602401610339565b600080546001600160a01b038381167fffffffffffffffffffffffff0000000000000000000000000000000000000000831681178455604051919092169283917f8be0079c531659141344cd1fd0a4f28419497f9722a3daafe3b4186f6b6457e09190a35050565b60008261155385846115e3565b14949350505050565b600260015403611598576040517f3ee5aeb500000000000000000000000000000000000000000000000000000000815260040160405180910390fd5b6002600155565b600054600160a01b900460ff16156105f1576040517fd93c066500000000000000000000000000000000000000000000000000000000815260040160405180910390fd5b600081815b845181101561161e576116148286838151811061160757611607611d29565b6020026020010151611628565b91506001016115e8565b5090505b92915050565b6000818310611644576000828152602084905260409020611653565b60008381526020839052604090205b9392505050565b634e487b7160e01b600052604160045260246000fd5b600082601f83011261168157600080fd5b813567ffffffffffffffff8082111561169c5761169c61165a565b604051601f8301601f19908116603f011681019082821181831017156116c4576116c461165a565b816040528381528660208588010111156116dd57600080fd5b836020870160208301376000602085830101528094505050505092915050565b60006020828403121561170f57600080fd5b813567ffffffffffffffff81111561172657600080fd5b61173284828501611670565b949350505050565b60008083601f84011261174c57600080fd5b50813567ffffffffffffffff81111561176457600080fd5b6020830191508360208260051b850101111561177f57600080fd5b9250929050565b60008060008060006060868803121561179e57600080fd5b85359450602086013567ffffffffffffffff808211156117bd57600080fd5b6117c989838a0161173a565b909650945060408801359150808211156117e257600080fd5b818801915088601f8301126117f657600080fd5b81358181111561180557600080fd5b89602082850101111561181757600080fd5b9699959850939650602001949392505050565b6001600160a01b0381168114610c8a57600080fd5b60006020828403121561185157600080fd5b81356116538161182a565b60005b8381101561187757818101518382015260200161185f565b50506000910152565b6000815180845261189881602086016020860161185c565b601f01601f19169290920160200192915050565b6080815260006118bf6080830187611880565b6001600160a01b0395909516602083015250911515604083015260ff16606090910152919050565b600080600080606085870312156118fd57600080fd5b84356119088161182a565b9350602085013567ffffffffffffffff81111561192457600080fd5b6119308782880161173a565b9598909750949560400135949350505050565b6000806040838503121561195657600080fd5b82359150602083013567ffffffffffffffff81111561197457600080fd5b61198085828601611670565b9150509250929050565b60006020828403121561199c57600080fd5b5035919050565b6020815260006116536020830184611880565b805167ffffffffffffffff811681146119ce57600080fd5b919050565b600060e082840312156119e557600080fd5b60405160e0810181811067ffffffffffffffff82111715611a0857611a0861165a565b6040528251611a168161182a565b81526020830151611a268161182a565b602082015260408381015190820152611a41606084016119b6565b6060820152611a52608084016119b6565b6080820152611a6360a084016119b6565b60a0820152611a7460c084016119b6565b60c08201529392505050565b600060208284031215611a9257600080fd5b5051919050565b600181811c90821680611aad57607f821691505b602082108103611acd57634e487b7160e01b600052602260045260246000fd5b50919050565b805161ffff811681146119ce57600080fd5b600060608284031215611af757600080fd5b6040516060810181811067ffffffffffffffff82111715611b1a57611b1a61165a565b60405282516fffffffffffffffffffffffffffffffff81168114611b3d57600080fd5b8152611b4b60208401611ad3565b6020820152611b5c60408401611ad3565b60408201529392505050565b634e487b7160e01b600052601160045260246000fd5b600082611b9b57634e487b7160e01b600052601260045260246000fd5b500490565b8082018082111561162257611622611b68565b808202811582820484141761162257611622611b68565b600060208284031215611bdc57600080fd5b8151801515811461165357600080fd5b60008251611bfe81846020870161185c565b9190910192915050565b601f821115610b85576000816000526020600020601f850160051c81016020861015611c315750805b601f850160051c820191505b818110156105d757828155600101611c3d565b815167ffffffffffffffff811115611c6a57611c6a61165a565b611c7e81611c788454611a99565b84611c08565b602080601f831160018114611cb35760008415611c9b5750858301515b600019600386901b1c1916600185901b1785556105d7565b600085815260208120601f198616915b82811015611ce257888601518255948401946001909101908401611cc3565b5085821015611d005787850151600019600388901b60f8161c191681555b5050505050600190811b01905550565b8281526040602082015260006117326040830184611880565b634e487b7160e01b600052603260045260246000fdfea2646970667358221220da776055ba2750c6aa74a67a61a3df35bee0c7591b404fa6871ba2df8623901e64736f6c63430008180033",
          "opcodes": "PUSH1 0x80 PUSH1 0x40 MSTORE CALLVALUE DUP1 ISZERO PUSH3 0x11 JUMPI PUSH1 0x0 DUP1 REVERT JUMPDEST POP PUSH1 0x40 MLOAD PUSH3 0x21A9 CODESIZE SUB DUP1 PUSH3 0x21A9 DUP4 CODECOPY DUP2 ADD PUSH1 0x40 DUP2 SWAP1 MSTORE PUSH3 0x34 SWAP2 PUSH3 0x1BA JUMP JUMPDEST CALLER DUP1 PUSH3 0x5B JUMPI PUSH1 0x40 MLOAD PUSH4 0x1E4FBDF7 PUSH1 0xE0 SHL DUP2 MSTORE PUSH1 0x0 PUSH1 0x4 DUP3 ADD MSTORE PUSH1 0x24 ADD PUSH1 0x40 MLOAD DUP1 SWAP2 SUB SWAP1 REVERT JUMPDEST PUSH3 0x66 DUP2 PUSH3 0x114 JUMP JUMPDEST POP PUSH1 0x0 DUP1 SLOAD PUSH1 0xFF PUSH1 0xA0 SHL NOT AND SWAP1 SSTORE PUSH1 0x1 DUP1 SSTORE PUSH1 0x40 DUP1 MLOAD PUSH1 0x80 DUP2 ADD DUP3 MSTORE DUP6 DUP2 MSTORE PUSH1 0x1 PUSH1 0x1 PUSH1 0xA0 SHL SUB DUP6 AND PUSH1 0x20 DUP3 ADD MSTORE DUP4 ISZERO ISZERO SWAP2 DUP2 ADD SWAP2 SWAP1 SWAP2 MSTORE PUSH1 0xFF DUP3 AND PUSH1 0x60 DUP3 ADD MSTORE PUSH1 0x2 DUP1 PUSH3 0xB6 DUP8 DUP3 PUSH3 0x358 JUMP JUMPDEST POP PUSH1 0x20 DUP3 ADD MLOAD PUSH1 0x1 SWAP1 SWAP2 ADD DUP1 SLOAD PUSH1 0x40 DUP5 ADD MLOAD PUSH1 0x60 SWAP1 SWAP5 ADD MLOAD PUSH1 0xFF AND PUSH1 0x1 PUSH1 0xA8 SHL MUL PUSH1 0xFF PUSH1 0xA8 SHL NOT SWAP5 ISZERO ISZERO PUSH1 0x1 PUSH1 0xA0 SHL MUL PUSH1 0x1 PUSH1 0x1 PUSH1 0xA8 SHL SUB NOT SWAP1 SWAP3 AND PUSH1 0x1 PUSH1 0x1 PUSH1 0xA0 SHL SUB SWAP1 SWAP5 AND SWAP4 SWAP1 SWAP4 OR OR SWAP3 SWAP1 SWAP3 AND OR SWAP1 SSTORE POP PUSH3 0x424 SWAP3 POP POP POP JUMP JUMPDEST PUSH1 0x0 DUP1 SLOAD PUSH1 0x1 PUSH1 0x1 PUSH1 0xA0 SHL SUB DUP4 DUP2 AND PUSH1 0x1 PUSH1 0x1 PUSH1 0xA0 SHL SUB NOT DUP4 AND DUP2 OR DUP5 SSTORE PUSH1 0x40 MLOAD SWAP2 SWAP1 SWAP3 AND SWAP3 DUP4 SWAP2 PUSH32 0x8BE0079C531659141344CD1FD0A4F28419497F9722A3DAAFE3B4186F6B6457E0 SWAP2 SWAP1 LOG3 POP POP JUMP JUMPDEST PUSH4 0x4E487B71 PUSH1 0xE0 SHL PUSH1 0x0 MSTORE PUSH1 0x41 PUSH1 0x4 MSTORE PUSH1 0x24 PUSH1 0x0 REVERT JUMPDEST DUP1 MLOAD PUSH1 0x1 PUSH1 0x1 PUSH1 0xA0 SHL SUB DUP2 AND DUP2 EQ PUSH3 0x192 JUMPI PUSH1 0x0 DUP1 REVERT JUMPDEST SWAP2 SWAP1 POP JUMP JUMPDEST DUP1 MLOAD DUP1 ISZERO ISZERO DUP2 EQ PUSH3 0x192 JUMPI PUSH1 0x0 DUP1 REVERT JUMPDEST DUP1 MLOAD PUSH1 0xFF DUP2 AND DUP2 EQ PUSH3 0x192 JUMPI PUSH1 0x0 DUP1 REVERT JUMPDEST PUSH1 0x0 DUP1 PUSH1 0x0 DUP1 PUSH1 0x80 DUP6 DUP8 SUB SLT ISZERO PUSH3 0x1D1 JUMPI PUSH1 0x0 DUP1 REVERT JUMPDEST DUP5 MLOAD PUSH1 0x1 PUSH1 0x1 PUSH1 0x40 SHL SUB DUP1 DUP3 GT ISZERO PUSH3 0x1E9 JUMPI PUSH1 0x0 DUP1 REVERT JUMPDEST DUP2 DUP8 ADD SWAP2 POP DUP8 PUSH1 0x1F DUP4 ADD SLT PUSH3 0x1FE JUMPI PUSH1 0x0 DUP1 REVERT JUMPDEST DUP2 MLOAD DUP2 DUP2 GT ISZERO PUSH3 0x213 JUMPI PUSH3 0x213 PUSH3 0x164 JUMP JUMPDEST PUSH1 0x40 MLOAD PUSH1 0x1F DUP3 ADD PUSH1 0x1F NOT SWAP1 DUP2 AND PUSH1 0x3F ADD AND DUP2 ADD SWAP1 DUP4 DUP3 GT DUP2 DUP4 LT OR ISZERO PUSH3 0x23E JUMPI PUSH3 0x23E PUSH3 0x164 JUMP JUMPDEST DUP2 PUSH1 0x40 MSTORE DUP3 DUP2 MSTORE PUSH1 0x20 SWAP4 POP DUP11 DUP5 DUP5 DUP8 ADD ADD GT ISZERO PUSH3 0x25B JUMPI PUSH1 0x0 DUP1 REVERT JUMPDEST PUSH1 0x0 SWAP2 POP JUMPDEST DUP3 DUP3 LT ISZERO PUSH3 0x27F JUMPI DUP5 DUP3 ADD DUP5 ADD MLOAD DUP2 DUP4 ADD DUP6 ADD MSTORE SWAP1 DUP4 ADD SWAP1 PUSH3 0x260 JUMP JUMPDEST PUSH1 0x0 DUP5 DUP5 DUP4 ADD ADD MSTORE DUP1 SWAP9 POP POP POP POP PUSH3 0x29A DUP2 DUP9 ADD PUSH3 0x17A JUMP JUMPDEST SWAP5 POP POP POP PUSH3 0x2AC PUSH1 0x40 DUP7 ADD PUSH3 0x197 JUMP JUMPDEST SWAP2 POP PUSH3 0x2BC PUSH1 0x60 DUP7 ADD PUSH3 0x1A8 JUMP JUMPDEST SWAP1 POP SWAP3 SWAP6 SWAP2 SWAP5 POP SWAP3 POP JUMP JUMPDEST PUSH1 0x1 DUP2 DUP2 SHR SWAP1 DUP3 AND DUP1 PUSH3 0x2DC JUMPI PUSH1 0x7F DUP3 AND SWAP2 POP JUMPDEST PUSH1 0x20 DUP3 LT DUP2 SUB PUSH3 0x2FD JUMPI PUSH4 0x4E487B71 PUSH1 0xE0 SHL PUSH1 0x0 MSTORE PUSH1 0x22 PUSH1 0x4 MSTORE PUSH1 0x24 PUSH1 0x0 REVERT JUMPDEST POP SWAP2 SWAP1 POP JUMP JUMPDEST PUSH1 0x1F DUP3 GT ISZERO PUSH3 0x353 JUMPI PUSH1 0x0 DUP2 PUSH1 0x0 MSTORE PUSH1 0x20 PUSH1 0x0 KECCAK256 PUSH1 0x1F DUP6 ADD PUSH1 0x5 SHR DUP2 ADD PUSH1 0x20 DUP7 LT ISZERO PUSH3 0x32E JUMPI POP DUP1 JUMPDEST PUSH1 0x1F DUP6 ADD PUSH1 0x5 SHR DUP3 ADD SWAP2 POP JUMPDEST DUP2 DUP2 LT ISZERO PUSH3 0x34F JUMPI DUP3 DUP2 SSTORE PUSH1 0x1 ADD PUSH3 0x33A JUMP JUMPDEST POP POP POP JUMPDEST POP POP POP JUMP JUMPDEST DUP2 MLOAD PUSH1 0x1 PUSH1 0x1 PUSH1 0x40 SHL SUB DUP2 GT ISZERO PUSH3 0x374 JUMPI PUSH3 0x374 PUSH3 0x164 JUMP JUMPDEST PUSH3 0x38C DUP2 PUSH3 0x385 DUP5 SLOAD PUSH3 0x2C7 JUMP JUMPDEST DUP5 PUSH3 0x303 JUMP JUMPDEST PUSH1 0x20 DUP1 PUSH1 0x1F DUP4 GT PUSH1 0x1 DUP2 EQ PUSH3 0x3C4 JUMPI PUSH1 0x0 DUP5 ISZERO PUSH3 0x3AB JUMPI POP DUP6 DUP4 ADD MLOAD JUMPDEST PUSH1 0x0 NOT PUSH1 0x3 DUP7 SWAP1 SHL SHR NOT AND PUSH1 0x1 DUP6 SWAP1 SHL OR DUP6 SSTORE PUSH3 0x34F JUMP JUMPDEST PUSH1 0x0 DUP6 DUP2 MSTORE PUSH1 0x20 DUP2 KECCAK256 PUSH1 0x1F NOT DUP7 AND SWAP2 JUMPDEST DUP3 DUP2 LT ISZERO PUSH3 0x3F5 JUMPI DUP9 DUP7 ADD MLOAD DUP3 SSTORE SWAP5 DUP5 ADD SWAP5 PUSH1 0x1 SWAP1 SWAP2 ADD SWAP1 DUP5 ADD PUSH3 0x3D4 JUMP JUMPDEST POP DUP6 DUP3 LT ISZERO PUSH3 0x414 JUMPI DUP8 DUP6 ADD MLOAD PUSH1 0x0 NOT PUSH1 0x3 DUP9 SWAP1 SHL PUSH1 0xF8 AND SHR NOT AND DUP2 SSTORE JUMPDEST POP POP POP POP POP PUSH1 0x1 SWAP1 DUP2 SHL ADD SWAP1 SSTORE POP JUMP JUMPDEST PUSH2 0x1D75 DUP1 PUSH3 0x434 PUSH1 0x0 CODECOPY PUSH1 0x0 RETURN INVALID PUSH1 0x80 PUSH1 0x40 MSTORE CALLVALUE DUP1 ISZERO PUSH2 0x10 JUMPI PUSH1 0x0 DUP1 REVERT JUMPDEST POP PUSH1 0x4 CALLDATASIZE LT PUSH2 0xF5 JUMPI PUSH1 0x0 CALLDATALOAD PUSH1 0xE0 SHR DUP1 PUSH4 0x73D4A13A GT PUSH2 0x97 JUMPI DUP1 PUSH4 0x8DA5CB5B GT PUSH2 0x66 JUMPI DUP1 PUSH4 0x8DA5CB5B EQ PUSH2 0x206 JUMPI DUP1 PUSH4 0xDA9581B6 EQ PUSH2 0x221 JUMPI DUP1 PUSH4 0xE86613A7 EQ PUSH2 0x234 JUMPI DUP1 PUSH4 0xF2FDE38B EQ PUSH2 0x254 JUMPI PUSH1 0x0 DUP1 REVERT JUMPDEST DUP1 PUSH4 0x73D4A13A EQ PUSH2 0x1A5 JUMPI DUP1 PUSH4 0x76078DBE EQ PUSH2 0x1BD JUMPI DUP1 PUSH4 0x7A900468 EQ PUSH2 0x1D0 JUMPI DUP1 PUSH4 0x852D58BA EQ PUSH2 0x1FE JUMPI PUSH1 0x0 DUP1 REVERT JUMPDEST DUP1 PUSH4 0x48FAADE4 GT PUSH2 0xD3 JUMPI DUP1 PUSH4 0x48FAADE4 EQ PUSH2 0x156 JUMPI DUP1 PUSH4 0x497AEF28 EQ PUSH2 0x15F JUMPI DUP1 PUSH4 0x5C975ABB EQ PUSH2 0x17F JUMPI DUP1 PUSH4 0x715018A6 EQ PUSH2 0x19D JUMPI PUSH1 0x0 DUP1 REVERT JUMPDEST DUP1 PUSH4 0x1DEAC2C EQ PUSH2 0xFA JUMPI DUP1 PUSH4 0x1D6A4581 EQ PUSH2 0x138 JUMPI DUP1 PUSH4 0x2761F329 EQ PUSH2 0x141 JUMPI JUMPDEST PUSH1 0x0 DUP1 REVERT JUMPDEST PUSH2 0x125 PUSH2 0x108 CALLDATASIZE PUSH1 0x4 PUSH2 0x16FD JUMP JUMPDEST DUP1 MLOAD PUSH1 0x20 DUP2 DUP4 ADD DUP2 ADD DUP1 MLOAD PUSH1 0x9 DUP3 MSTORE SWAP3 DUP3 ADD SWAP2 SWAP1 SWAP4 ADD KECCAK256 SWAP2 MSTORE SLOAD DUP2 JUMP JUMPDEST PUSH1 0x40 MLOAD SWAP1 DUP2 MSTORE PUSH1 0x20 ADD JUMPDEST PUSH1 0x40 MLOAD DUP1 SWAP2 SUB SWAP1 RETURN JUMPDEST PUSH2 0x125 PUSH1 0x5 SLOAD DUP2 JUMP JUMPDEST PUSH2 0x154 PUSH2 0x14F CALLDATASIZE PUSH1 0x4 PUSH2 0x1786 JUMP JUMPDEST PUSH2 0x267 JUMP JUMPDEST STOP JUMPDEST PUSH2 0x125 PUSH1 0x4 SLOAD DUP2 JUMP JUMPDEST PUSH2 0x125 PUSH2 0x16D CALLDATASIZE PUSH1 0x4 PUSH2 0x183F JUMP JUMPDEST PUSH1 0x6 PUSH1 0x20 MSTORE PUSH1 0x0 SWAP1 DUP2 MSTORE PUSH1 0x40 SWAP1 KECCAK256 SLOAD DUP2 JUMP JUMPDEST PUSH1 0x0 SLOAD PUSH1 0x1 PUSH1 0xA0 SHL SWAP1 DIV PUSH1 0xFF AND JUMPDEST PUSH1 0x40 MLOAD SWAP1 ISZERO ISZERO DUP2 MSTORE PUSH1 0x20 ADD PUSH2 0x12F JUMP JUMPDEST PUSH2 0x154 PUSH2 0x5DF JUMP JUMPDEST PUSH2 0x1AD PUSH2 0x5F3 JUMP JUMPDEST PUSH1 0x40 MLOAD PUSH2 0x12F SWAP5 SWAP4 SWAP3 SWAP2 SWAP1 PUSH2 0x18AC JUMP JUMPDEST PUSH2 0x18D PUSH2 0x1CB CALLDATASIZE PUSH1 0x4 PUSH2 0x18E7 JUMP JUMPDEST PUSH2 0x6AA JUMP JUMPDEST PUSH2 0x18D PUSH2 0x1DE CALLDATASIZE PUSH1 0x4 PUSH2 0x16FD JUMP JUMPDEST DUP1 MLOAD PUSH1 0x20 DUP2 DUP4 ADD DUP2 ADD DUP1 MLOAD PUSH1 0x8 DUP3 MSTORE SWAP3 DUP3 ADD SWAP2 SWAP1 SWAP4 ADD KECCAK256 SWAP2 MSTORE SLOAD PUSH1 0xFF AND DUP2 JUMP JUMPDEST PUSH2 0x125 PUSH2 0x7BB JUMP JUMPDEST PUSH1 0x0 SLOAD PUSH1 0x40 MLOAD PUSH1 0x1 PUSH1 0x1 PUSH1 0xA0 SHL SUB SWAP1 SWAP2 AND DUP2 MSTORE PUSH1 0x20 ADD PUSH2 0x12F JUMP JUMPDEST PUSH2 0x154 PUSH2 0x22F CALLDATASIZE PUSH1 0x4 PUSH2 0x1943 JUMP JUMPDEST PUSH2 0x8F7 JUMP JUMPDEST PUSH2 0x247 PUSH2 0x242 CALLDATASIZE PUSH1 0x4 PUSH2 0x198A JUMP JUMPDEST PUSH2 0xB8A JUMP JUMPDEST PUSH1 0x40 MLOAD PUSH2 0x12F SWAP2 SWAP1 PUSH2 0x19A3 JUMP JUMPDEST PUSH2 0x154 PUSH2 0x262 CALLDATASIZE PUSH1 0x4 PUSH2 0x183F JUMP JUMPDEST PUSH2 0xC36 JUMP JUMPDEST PUSH1 0x3 SLOAD PUSH1 0x40 DUP1 MLOAD PUSH4 0x6754A1F7 PUSH1 0xE1 SHL DUP2 MSTORE SWAP1 MLOAD PUSH1 0x0 SWAP3 PUSH1 0x1 PUSH1 0x1 PUSH1 0xA0 SHL SUB AND SWAP2 PUSH4 0xCEA943EE SWAP2 PUSH1 0x4 DUP1 DUP4 ADD SWAP3 PUSH1 0xE0 SWAP3 SWAP2 SWAP1 DUP3 SWAP1 SUB ADD DUP2 DUP7 GAS STATICCALL ISZERO DUP1 ISZERO PUSH2 0x2B1 JUMPI RETURNDATASIZE PUSH1 0x0 DUP1 RETURNDATACOPY RETURNDATASIZE PUSH1 0x0 REVERT JUMPDEST POP POP POP POP PUSH1 0x40 MLOAD RETURNDATASIZE PUSH1 0x1F NOT PUSH1 0x1F DUP3 ADD AND DUP3 ADD DUP1 PUSH1 0x40 MSTORE POP DUP2 ADD SWAP1 PUSH2 0x2D5 SWAP2 SWAP1 PUSH2 0x19D3 JUMP JUMPDEST PUSH1 0x3 SLOAD SWAP1 SWAP2 POP PUSH1 0x1 PUSH1 0xA0 SHL SWAP1 DIV PUSH1 0xFF AND ISZERO PUSH2 0x391 JUMPI TIMESTAMP DUP2 PUSH1 0x60 ADD MLOAD PUSH8 0xFFFFFFFFFFFFFFFF AND GT ISZERO PUSH2 0x342 JUMPI PUSH1 0x40 MLOAD PUSH3 0x461BCD PUSH1 0xE5 SHL DUP2 MSTORE PUSH1 0x20 PUSH1 0x4 DUP3 ADD MSTORE PUSH1 0x12 PUSH1 0x24 DUP3 ADD MSTORE PUSH18 0x39B0B632903430B9903737BA103132B3BAB7 PUSH1 0x71 SHL PUSH1 0x44 DUP3 ADD MSTORE PUSH1 0x64 ADD JUMPDEST PUSH1 0x40 MLOAD DUP1 SWAP2 SUB SWAP1 REVERT JUMPDEST DUP1 PUSH1 0x80 ADD MLOAD PUSH8 0xFFFFFFFFFFFFFFFF AND TIMESTAMP GT ISZERO PUSH2 0x38C JUMPI PUSH1 0x40 MLOAD PUSH3 0x461BCD PUSH1 0xE5 SHL DUP2 MSTORE PUSH1 0x20 PUSH1 0x4 DUP3 ADD MSTORE PUSH1 0x9 PUSH1 0x24 DUP3 ADD MSTORE PUSH9 0x39B0B6329037BB32B9 PUSH1 0xB9 SHL PUSH1 0x44 DUP3 ADD MSTORE PUSH1 0x64 ADD PUSH2 0x339 JUMP JUMPDEST PUSH2 0x42E JUMP JUMPDEST TIMESTAMP DUP2 PUSH1 0xA0 ADD MLOAD PUSH8 0xFFFFFFFFFFFFFFFF AND GT ISZERO PUSH2 0x3E4 JUMPI PUSH1 0x40 MLOAD PUSH3 0x461BCD PUSH1 0xE5 SHL DUP2 MSTORE PUSH1 0x20 PUSH1 0x4 DUP3 ADD MSTORE PUSH1 0x12 PUSH1 0x24 DUP3 ADD MSTORE PUSH18 0x39B0B632903430B9903737BA103132B3BAB7 PUSH1 0x71 SHL PUSH1 0x44 DUP3 ADD MSTORE PUSH1 0x64 ADD PUSH2 0x339 JUMP JUMPDEST DUP1 PUSH1 0xC0 ADD MLOAD PUSH8 0xFFFFFFFFFFFFFFFF AND TIMESTAMP GT ISZERO PUSH2 0x42E JUMPI PUSH1 0x40 MLOAD PUSH3 0x461BCD PUSH1 0xE5 SHL DUP2 MSTORE PUSH1 0x20 PUSH1 0x4 DUP3 ADD MSTORE PUSH1 0x9 PUSH1 0x24 DUP3 ADD MSTORE PUSH9 0x39B0B6329037BB32B9 PUSH1 0xB9 SHL PUSH1 0x44 DUP3 ADD MSTORE PUSH1 0x64 ADD PUSH2 0x339 JUMP JUMPDEST PUSH1 0x3 SLOAD PUSH1 0x40 MLOAD PUSH4 0xDA2F8E7D PUSH1 0xE0 SHL DUP2 MSTORE PUSH1 0x1 PUSH1 0xA8 SHL DUP3 DIV PUSH1 0xFF AND PUSH1 0x4 DUP3 ADD MSTORE PUSH1 0x1 PUSH1 0x1 PUSH1 0xA0 SHL SUB SWAP1 SWAP2 AND SWAP1 PUSH4 0xDA2F8E7D SWAP1 PUSH1 0x24 ADD PUSH1 0x20 PUSH1 0x40 MLOAD DUP1 DUP4 SUB DUP2 DUP7 GAS STATICCALL ISZERO DUP1 ISZERO PUSH2 0x47F JUMPI RETURNDATASIZE PUSH1 0x0 DUP1 RETURNDATACOPY RETURNDATASIZE PUSH1 0x0 REVERT JUMPDEST POP POP POP POP PUSH1 0x40 MLOAD RETURNDATASIZE PUSH1 0x1F NOT PUSH1 0x1F DUP3 ADD AND DUP3 ADD DUP1 PUSH1 0x40 MSTORE POP DUP2 ADD SWAP1 PUSH2 0x4A3 SWAP2 SWAP1 PUSH2 0x1A80 JUMP JUMPDEST PUSH1 0x0 SUB PUSH2 0x4F2 JUMPI PUSH1 0x40 MLOAD PUSH3 0x461BCD PUSH1 0xE5 SHL DUP2 MSTORE PUSH1 0x20 PUSH1 0x4 DUP3 ADD MSTORE PUSH1 0x14 PUSH1 0x24 DUP3 ADD MSTORE PUSH32 0x666F72207075626C69632073616C65206F6E6C79000000000000000000000000 PUSH1 0x44 DUP3 ADD MSTORE PUSH1 0x64 ADD PUSH2 0x339 JUMP JUMPDEST DUP4 PUSH2 0x53F JUMPI PUSH1 0x40 MLOAD PUSH3 0x461BCD PUSH1 0xE5 SHL DUP2 MSTORE PUSH1 0x20 PUSH1 0x4 DUP3 ADD MSTORE PUSH1 0xE PUSH1 0x24 DUP3 ADD MSTORE PUSH32 0x696E76616C69642070726F6F6673000000000000000000000000000000000000 PUSH1 0x44 DUP3 ADD MSTORE PUSH1 0x64 ADD PUSH2 0x339 JUMP JUMPDEST PUSH2 0x54B CALLER DUP7 DUP7 DUP10 PUSH2 0x6AA JUMP JUMPDEST PUSH2 0x597 JUMPI PUSH1 0x40 MLOAD PUSH3 0x461BCD PUSH1 0xE5 SHL DUP2 MSTORE PUSH1 0x20 PUSH1 0x4 DUP3 ADD MSTORE PUSH1 0xD PUSH1 0x24 DUP3 ADD MSTORE PUSH32 0x70726F6F6620696E76616C696400000000000000000000000000000000000000 PUSH1 0x44 DUP3 ADD MSTORE PUSH1 0x64 ADD PUSH2 0x339 JUMP JUMPDEST PUSH2 0x5D7 DUP7 DUP5 DUP5 DUP1 DUP1 PUSH1 0x1F ADD PUSH1 0x20 DUP1 SWAP2 DIV MUL PUSH1 0x20 ADD PUSH1 0x40 MLOAD SWAP1 DUP2 ADD PUSH1 0x40 MSTORE DUP1 SWAP4 SWAP3 SWAP2 SWAP1 DUP2 DUP2 MSTORE PUSH1 0x20 ADD DUP4 DUP4 DUP1 DUP3 DUP5 CALLDATACOPY PUSH1 0x0 SWAP3 ADD SWAP2 SWAP1 SWAP2 MSTORE POP PUSH2 0xC8D SWAP3 POP POP POP JUMP JUMPDEST POP POP POP POP POP POP JUMP JUMPDEST PUSH2 0x5E7 PUSH2 0x1498 JUMP JUMPDEST PUSH2 0x5F1 PUSH1 0x0 PUSH2 0x14DE JUMP JUMPDEST JUMP JUMPDEST PUSH1 0x2 DUP1 SLOAD DUP2 SWAP1 PUSH2 0x602 SWAP1 PUSH2 0x1A99 JUMP JUMPDEST DUP1 PUSH1 0x1F ADD PUSH1 0x20 DUP1 SWAP2 DIV MUL PUSH1 0x20 ADD PUSH1 0x40 MLOAD SWAP1 DUP2 ADD PUSH1 0x40 MSTORE DUP1 SWAP3 SWAP2 SWAP1 DUP2 DUP2 MSTORE PUSH1 0x20 ADD DUP3 DUP1 SLOAD PUSH2 0x62E SWAP1 PUSH2 0x1A99 JUMP JUMPDEST DUP1 ISZERO PUSH2 0x67B JUMPI DUP1 PUSH1 0x1F LT PUSH2 0x650 JUMPI PUSH2 0x100 DUP1 DUP4 SLOAD DIV MUL DUP4 MSTORE SWAP2 PUSH1 0x20 ADD SWAP2 PUSH2 0x67B JUMP JUMPDEST DUP3 ADD SWAP2 SWAP1 PUSH1 0x0 MSTORE PUSH1 0x20 PUSH1 0x0 KECCAK256 SWAP1 JUMPDEST DUP2 SLOAD DUP2 MSTORE SWAP1 PUSH1 0x1 ADD SWAP1 PUSH1 0x20 ADD DUP1 DUP4 GT PUSH2 0x65E JUMPI DUP3 SWAP1 SUB PUSH1 0x1F AND DUP3 ADD SWAP2 JUMPDEST POP POP POP PUSH1 0x1 SWAP1 SWAP4 ADD SLOAD SWAP2 SWAP3 POP POP PUSH1 0x1 PUSH1 0x1 PUSH1 0xA0 SHL SUB DUP2 AND SWAP1 PUSH1 0xFF PUSH1 0x1 PUSH1 0xA0 SHL DUP3 DIV DUP2 AND SWAP2 PUSH1 0x1 PUSH1 0xA8 SHL SWAP1 DIV AND DUP5 JUMP JUMPDEST PUSH1 0x40 DUP1 MLOAD PUSH1 0x1 PUSH1 0x1 PUSH1 0xA0 SHL SUB DUP7 AND PUSH1 0x20 DUP3 ADD MSTORE SWAP1 DUP2 ADD DUP3 SWAP1 MSTORE PUSH1 0x0 SWAP1 DUP2 SWAP1 PUSH1 0x60 ADD PUSH1 0x40 DUP1 MLOAD PUSH1 0x1F NOT DUP2 DUP5 SUB ADD DUP2 MSTORE DUP3 DUP3 MSTORE DUP1 MLOAD PUSH1 0x20 SWAP2 DUP3 ADD KECCAK256 SWAP1 DUP4 ADD MSTORE ADD PUSH1 0x40 MLOAD PUSH1 0x20 DUP2 DUP4 SUB SUB DUP2 MSTORE SWAP1 PUSH1 0x40 MSTORE DUP1 MLOAD SWAP1 PUSH1 0x20 ADD KECCAK256 SWAP1 POP PUSH2 0x7B1 DUP6 DUP6 DUP1 DUP1 PUSH1 0x20 MUL PUSH1 0x20 ADD PUSH1 0x40 MLOAD SWAP1 DUP2 ADD PUSH1 0x40 MSTORE DUP1 SWAP4 SWAP3 SWAP2 SWAP1 DUP2 DUP2 MSTORE PUSH1 0x20 ADD DUP4 DUP4 PUSH1 0x20 MUL DUP1 DUP3 DUP5 CALLDATACOPY PUSH1 0x0 SWAP3 ADD SWAP2 SWAP1 SWAP2 MSTORE POP POP PUSH1 0x3 SLOAD PUSH1 0x40 MLOAD PUSH4 0xDA2F8E7D PUSH1 0xE0 SHL DUP2 MSTORE PUSH1 0x1 PUSH1 0xA8 SHL DUP3 DIV PUSH1 0xFF AND PUSH1 0x4 DUP3 ADD MSTORE PUSH1 0x1 PUSH1 0x1 PUSH1 0xA0 SHL SUB SWAP1 SWAP2 AND SWAP3 POP PUSH4 0xDA2F8E7D SWAP2 POP PUSH1 0x24 ADD PUSH1 0x20 PUSH1 0x40 MLOAD DUP1 DUP4 SUB DUP2 DUP7 GAS STATICCALL ISZERO DUP1 ISZERO PUSH2 0x787 JUMPI RETURNDATASIZE PUSH1 0x0 DUP1 RETURNDATACOPY RETURNDATASIZE PUSH1 0x0 REVERT JUMPDEST POP POP POP POP PUSH1 0x40 MLOAD RETURNDATASIZE PUSH1 0x1F NOT PUSH1 0x1F DUP3 ADD AND DUP3 ADD DUP1 PUSH1 0x40 MSTORE POP DUP2 ADD SWAP1 PUSH2 0x7AB SWAP2 SWAP1 PUSH2 0x1A80 JUMP JUMPDEST DUP4 PUSH2 0x1546 JUMP JUMPDEST SWAP7 SWAP6 POP POP POP POP POP POP JUMP JUMPDEST PUSH1 0x3 SLOAD PUSH1 0x40 MLOAD PUSH4 0x65DF182B PUSH1 0xE0 SHL DUP2 MSTORE PUSH1 0xFF PUSH1 0x1 PUSH1 0xA0 SHL DUP4 DIV DUP2 AND ISZERO ISZERO PUSH1 0x4 DUP4 ADD MSTORE PUSH1 0x1 PUSH1 0xA8 SHL DUP4 DIV AND PUSH1 0x24 DUP3 ADD MSTORE PUSH1 0x0 SWAP2 PUSH1 0x1 PUSH1 0x1 PUSH1 0xA0 SHL SUB AND SWAP1 DUP3 SWAP1 DUP3 SWAP1 PUSH4 0x65DF182B SWAP1 PUSH1 0x44 ADD PUSH1 0x60 PUSH1 0x40 MLOAD DUP1 DUP4 SUB DUP2 DUP7 GAS STATICCALL ISZERO DUP1 ISZERO PUSH2 0x821 JUMPI RETURNDATASIZE PUSH1 0x0 DUP1 RETURNDATACOPY RETURNDATASIZE PUSH1 0x0 REVERT JUMPDEST POP POP POP POP PUSH1 0x40 MLOAD RETURNDATASIZE PUSH1 0x1F NOT PUSH1 0x1F DUP3 ADD AND DUP3 ADD DUP1 PUSH1 0x40 MSTORE POP DUP2 ADD SWAP1 PUSH2 0x845 SWAP2 SWAP1 PUSH2 0x1AE5 JUMP JUMPDEST SWAP1 POP PUSH1 0x0 DUP3 PUSH1 0x1 PUSH1 0x1 PUSH1 0xA0 SHL SUB AND PUSH4 0xCEA943EE PUSH1 0x40 MLOAD DUP2 PUSH4 0xFFFFFFFF AND PUSH1 0xE0 SHL DUP2 MSTORE PUSH1 0x4 ADD PUSH1 0xE0 PUSH1 0x40 MLOAD DUP1 DUP4 SUB DUP2 DUP7 GAS STATICCALL ISZERO DUP1 ISZERO PUSH2 0x887 JUMPI RETURNDATASIZE PUSH1 0x0 DUP1 RETURNDATACOPY RETURNDATASIZE PUSH1 0x0 REVERT JUMPDEST POP POP POP POP PUSH1 0x40 MLOAD RETURNDATASIZE PUSH1 0x1F NOT PUSH1 0x1F DUP3 ADD AND DUP3 ADD DUP1 PUSH1 0x40 MSTORE POP DUP2 ADD SWAP1 PUSH2 0x8AB SWAP2 SWAP1 PUSH2 0x19D3 JUMP JUMPDEST PUSH1 0x40 ADD MLOAD DUP3 MLOAD PUSH2 0x8CD SWAP2 SWAP1 PUSH16 0xFFFFFFFFFFFFFFFFFFFFFFFFFFFFFFFF AND PUSH2 0x1B7E JUMP JUMPDEST SWAP1 POP DUP1 PUSH1 0x0 SUB PUSH2 0x8E1 JUMPI PUSH1 0x0 SWAP4 POP POP POP POP SWAP1 JUMP JUMPDEST DUP1 PUSH1 0x4 SLOAD PUSH2 0x8EF SWAP2 SWAP1 PUSH2 0x1B7E JUMP JUMPDEST SWAP4 POP POP POP POP SWAP1 JUMP JUMPDEST PUSH1 0x3 SLOAD PUSH1 0x40 DUP1 MLOAD PUSH4 0x6754A1F7 PUSH1 0xE1 SHL DUP2 MSTORE SWAP1 MLOAD PUSH1 0x0 SWAP3 PUSH1 0x1 PUSH1 0x1 PUSH1 0xA0 SHL SUB AND SWAP2 PUSH4 0xCEA943EE SWAP2 PUSH1 0x4 DUP1 DUP4 ADD SWAP3 PUSH1 0xE0 SWAP3 SWAP2 SWAP1 DUP3 SWAP1 SUB ADD DUP2 DUP7 GAS STATICCALL ISZERO DUP1 ISZERO PUSH2 0x941 JUMPI RETURNDATASIZE PUSH1 0x0 DUP1 RETURNDATACOPY RETURNDATASIZE PUSH1 0x0 REVERT JUMPDEST POP POP POP POP PUSH1 0x40 MLOAD RETURNDATASIZE PUSH1 0x1F NOT PUSH1 0x1F DUP3 ADD AND DUP3 ADD DUP1 PUSH1 0x40 MSTORE POP DUP2 ADD SWAP1 PUSH2 0x965 SWAP2 SWAP1 PUSH2 0x19D3 JUMP JUMPDEST PUSH1 0x3 SLOAD SWAP1 SWAP2 POP PUSH1 0x1 PUSH1 0xA0 SHL SWAP1 DIV PUSH1 0xFF AND ISZERO PUSH2 0xA1C JUMPI TIMESTAMP DUP2 PUSH1 0x60 ADD MLOAD PUSH8 0xFFFFFFFFFFFFFFFF AND GT ISZERO PUSH2 0x9CD JUMPI PUSH1 0x40 MLOAD PUSH3 0x461BCD PUSH1 0xE5 SHL DUP2 MSTORE PUSH1 0x20 PUSH1 0x4 DUP3 ADD MSTORE PUSH1 0x12 PUSH1 0x24 DUP3 ADD MSTORE PUSH18 0x39B0B632903430B9903737BA103132B3BAB7 PUSH1 0x71 SHL PUSH1 0x44 DUP3 ADD MSTORE PUSH1 0x64 ADD PUSH2 0x339 JUMP JUMPDEST DUP1 PUSH1 0x80 ADD MLOAD PUSH8 0xFFFFFFFFFFFFFFFF AND TIMESTAMP GT ISZERO PUSH2 0xA17 JUMPI PUSH1 0x40 MLOAD PUSH3 0x461BCD PUSH1 0xE5 SHL DUP2 MSTORE PUSH1 0x20 PUSH1 0x4 DUP3 ADD MSTORE PUSH1 0x9 PUSH1 0x24 DUP3 ADD MSTORE PUSH9 0x39B0B6329037BB32B9 PUSH1 0xB9 SHL PUSH1 0x44 DUP3 ADD MSTORE PUSH1 0x64 ADD PUSH2 0x339 JUMP JUMPDEST PUSH2 0xAB9 JUMP JUMPDEST TIMESTAMP DUP2 PUSH1 0xA0 ADD MLOAD PUSH8 0xFFFFFFFFFFFFFFFF AND GT ISZERO PUSH2 0xA6F JUMPI PUSH1 0x40 MLOAD PUSH3 0x461BCD PUSH1 0xE5 SHL DUP2 MSTORE PUSH1 0x20 PUSH1 0x4 DUP3 ADD MSTORE PUSH1 0x12 PUSH1 0x24 DUP3 ADD MSTORE PUSH18 0x39B0B632903430B9903737BA103132B3BAB7 PUSH1 0x71 SHL PUSH1 0x44 DUP3 ADD MSTORE PUSH1 0x64 ADD PUSH2 0x339 JUMP JUMPDEST DUP1 PUSH1 0xC0 ADD MLOAD PUSH8 0xFFFFFFFFFFFFFFFF AND TIMESTAMP GT ISZERO PUSH2 0xAB9 JUMPI PUSH1 0x40 MLOAD PUSH3 0x461BCD PUSH1 0xE5 SHL DUP2 MSTORE PUSH1 0x20 PUSH1 0x4 DUP3 ADD MSTORE PUSH1 0x9 PUSH1 0x24 DUP3 ADD MSTORE PUSH9 0x39B0B6329037BB32B9 PUSH1 0xB9 SHL PUSH1 0x44 DUP3 ADD MSTORE PUSH1 0x64 ADD PUSH2 0x339 JUMP JUMPDEST PUSH1 0x3 SLOAD PUSH1 0x40 MLOAD PUSH4 0xDA2F8E7D PUSH1 0xE0 SHL DUP2 MSTORE PUSH1 0x1 PUSH1 0xA8 SHL DUP3 DIV PUSH1 0xFF AND PUSH1 0x4 DUP3 ADD MSTORE PUSH1 0x1 PUSH1 0x1 PUSH1 0xA0 SHL SUB SWAP1 SWAP2 AND SWAP1 PUSH4 0xDA2F8E7D SWAP1 PUSH1 0x24 ADD PUSH1 0x20 PUSH1 0x40 MLOAD DUP1 DUP4 SUB DUP2 DUP7 GAS STATICCALL ISZERO DUP1 ISZERO PUSH2 0xB0A JUMPI RETURNDATASIZE PUSH1 0x0 DUP1 RETURNDATACOPY RETURNDATASIZE PUSH1 0x0 REVERT JUMPDEST POP POP POP POP PUSH1 0x40 MLOAD RETURNDATASIZE PUSH1 0x1F NOT PUSH1 0x1F DUP3 ADD AND DUP3 ADD DUP1 PUSH1 0x40 MSTORE POP DUP2 ADD SWAP1 PUSH2 0xB2E SWAP2 SWAP1 PUSH2 0x1A80 JUMP JUMPDEST ISZERO PUSH2 0xB7B JUMPI PUSH1 0x40 MLOAD PUSH3 0x461BCD PUSH1 0xE5 SHL DUP2 MSTORE PUSH1 0x20 PUSH1 0x4 DUP3 ADD MSTORE PUSH1 0x14 PUSH1 0x24 DUP3 ADD MSTORE PUSH32 0x666F722077686974656C6973746564206F6E6C79000000000000000000000000 PUSH1 0x44 DUP3 ADD MSTORE PUSH1 0x64 ADD PUSH2 0x339 JUMP JUMPDEST PUSH2 0xB85 DUP4 DUP4 PUSH2 0xC8D JUMP JUMPDEST POP POP POP JUMP JUMPDEST PUSH1 0x7 DUP2 DUP2 SLOAD DUP2 LT PUSH2 0xB9A JUMPI PUSH1 0x0 DUP1 REVERT JUMPDEST SWAP1 PUSH1 0x0 MSTORE PUSH1 0x20 PUSH1 0x0 KECCAK256 ADD PUSH1 0x0 SWAP2 POP SWAP1 POP DUP1 SLOAD PUSH2 0xBB5 SWAP1 PUSH2 0x1A99 JUMP JUMPDEST DUP1 PUSH1 0x1F ADD PUSH1 0x20 DUP1 SWAP2 DIV MUL PUSH1 0x20 ADD PUSH1 0x40 MLOAD SWAP1 DUP2 ADD PUSH1 0x40 MSTORE DUP1 SWAP3 SWAP2 SWAP1 DUP2 DUP2 MSTORE PUSH1 0x20 ADD DUP3 DUP1 SLOAD PUSH2 0xBE1 SWAP1 PUSH2 0x1A99 JUMP JUMPDEST DUP1 ISZERO PUSH2 0xC2E JUMPI DUP1 PUSH1 0x1F LT PUSH2 0xC03 JUMPI PUSH2 0x100 DUP1 DUP4 SLOAD DIV MUL DUP4 MSTORE SWAP2 PUSH1 0x20 ADD SWAP2 PUSH2 0xC2E JUMP JUMPDEST DUP3 ADD SWAP2 SWAP1 PUSH1 0x0 MSTORE PUSH1 0x20 PUSH1 0x0 KECCAK256 SWAP1 JUMPDEST DUP2 SLOAD DUP2 MSTORE SWAP1 PUSH1 0x1 ADD SWAP1 PUSH1 0x20 ADD DUP1 DUP4 GT PUSH2 0xC11 JUMPI DUP3 SWAP1 SUB PUSH1 0x1F AND DUP3 ADD SWAP2 JUMPDEST POP POP POP POP POP DUP2 JUMP JUMPDEST PUSH2 0xC3E PUSH2 0x1498 JUMP JUMPDEST PUSH1 0x1 PUSH1 0x1 PUSH1 0xA0 SHL SUB DUP2 AND PUSH2 0xC81 JUMPI PUSH1 0x40 MLOAD PUSH32 0x1E4FBDF700000000000000000000000000000000000000000000000000000000 DUP2 MSTORE PUSH1 0x0 PUSH1 0x4 DUP3 ADD MSTORE PUSH1 0x24 ADD PUSH2 0x339 JUMP JUMPDEST PUSH2 0xC8A DUP2 PUSH2 0x14DE JUMP JUMPDEST POP JUMP JUMPDEST PUSH2 0xC95 PUSH2 0x155C JUMP JUMPDEST PUSH2 0xC9D PUSH2 0x159F JUMP JUMPDEST PUSH1 0x3 SLOAD PUSH1 0x40 DUP1 MLOAD PUSH4 0x6754A1F7 PUSH1 0xE1 SHL DUP2 MSTORE SWAP1 MLOAD PUSH1 0x0 SWAP3 PUSH1 0x1 PUSH1 0x1 PUSH1 0xA0 SHL SUB AND SWAP2 PUSH4 0xCEA943EE SWAP2 PUSH1 0x4 DUP1 DUP4 ADD SWAP3 PUSH1 0xE0 SWAP3 SWAP2 SWAP1 DUP3 SWAP1 SUB ADD DUP2 DUP7 GAS STATICCALL ISZERO DUP1 ISZERO PUSH2 0xCE7 JUMPI RETURNDATASIZE PUSH1 0x0 DUP1 RETURNDATACOPY RETURNDATASIZE PUSH1 0x0 REVERT JUMPDEST POP POP POP POP PUSH1 0x40 MLOAD RETURNDATASIZE PUSH1 0x1F NOT PUSH1 0x1F DUP3 ADD AND DUP3 ADD DUP1 PUSH1 0x40 MSTORE POP DUP2 ADD SWAP1 PUSH2 0xD0B SWAP2 SWAP1 PUSH2 0x19D3 JUMP JUMPDEST PUSH1 0x3 SLOAD SWAP1 SWAP2 POP PUSH1 0x1 PUSH1 0xA0 SHL SWAP1 DIV PUSH1 0xFF AND ISZERO PUSH2 0xDC2 JUMPI TIMESTAMP DUP2 PUSH1 0x60 ADD MLOAD PUSH8 0xFFFFFFFFFFFFFFFF AND GT ISZERO PUSH2 0xD73 JUMPI PUSH1 0x40 MLOAD PUSH3 0x461BCD PUSH1 0xE5 SHL DUP2 MSTORE PUSH1 0x20 PUSH1 0x4 DUP3 ADD MSTORE PUSH1 0x12 PUSH1 0x24 DUP3 ADD MSTORE PUSH18 0x39B0B632903430B9903737BA103132B3BAB7 PUSH1 0x71 SHL PUSH1 0x44 DUP3 ADD MSTORE PUSH1 0x64 ADD PUSH2 0x339 JUMP JUMPDEST DUP1 PUSH1 0x80 ADD MLOAD PUSH8 0xFFFFFFFFFFFFFFFF AND TIMESTAMP GT ISZERO PUSH2 0xDBD JUMPI PUSH1 0x40 MLOAD PUSH3 0x461BCD PUSH1 0xE5 SHL DUP2 MSTORE PUSH1 0x20 PUSH1 0x4 DUP3 ADD MSTORE PUSH1 0x9 PUSH1 0x24 DUP3 ADD MSTORE PUSH9 0x39B0B6329037BB32B9 PUSH1 0xB9 SHL PUSH1 0x44 DUP3 ADD MSTORE PUSH1 0x64 ADD PUSH2 0x339 JUMP JUMPDEST PUSH2 0xE5F JUMP JUMPDEST TIMESTAMP DUP2 PUSH1 0xA0 ADD MLOAD PUSH8 0xFFFFFFFFFFFFFFFF AND GT ISZERO PUSH2 0xE15 JUMPI PUSH1 0x40 MLOAD PUSH3 0x461BCD PUSH1 0xE5 SHL DUP2 MSTORE PUSH1 0x20 PUSH1 0x4 DUP3 ADD MSTORE PUSH1 0x12 PUSH1 0x24 DUP3 ADD MSTORE PUSH18 0x39B0B632903430B9903737BA103132B3BAB7 PUSH1 0x71 SHL PUSH1 0x44 DUP3 ADD MSTORE PUSH1 0x64 ADD PUSH2 0x339 JUMP JUMPDEST DUP1 PUSH1 0xC0 ADD MLOAD PUSH8 0xFFFFFFFFFFFFFFFF AND TIMESTAMP GT ISZERO PUSH2 0xE5F JUMPI PUSH1 0x40 MLOAD PUSH3 0x461BCD PUSH1 0xE5 SHL DUP2 MSTORE PUSH1 0x20 PUSH1 0x4 DUP3 ADD MSTORE PUSH1 0x9 PUSH1 0x24 DUP3 ADD MSTORE PUSH9 0x39B0B6329037BB32B9 PUSH1 0xB9 SHL PUSH1 0x44 DUP3 ADD MSTORE PUSH1 0x64 ADD PUSH2 0x339 JUMP JUMPDEST PUSH1 0x3 SLOAD PUSH1 0x40 DUP1 MLOAD PUSH4 0x6754A1F7 PUSH1 0xE1 SHL DUP2 MSTORE SWAP1 MLOAD PUSH1 0x1 PUSH1 0x1 PUSH1 0xA0 SHL SUB SWAP1 SWAP3 AND SWAP2 PUSH1 0x0 SWAP2 DUP4 SWAP2 PUSH4 0xCEA943EE SWAP2 PUSH1 0x4 DUP1 DUP3 ADD SWAP3 PUSH1 0xE0 SWAP3 SWAP1 SWAP2 SWAP1 DUP3 SWAP1 SUB ADD DUP2 DUP7 GAS STATICCALL ISZERO DUP1 ISZERO PUSH2 0xEAE JUMPI RETURNDATASIZE PUSH1 0x0 DUP1 RETURNDATACOPY RETURNDATASIZE PUSH1 0x0 REVERT JUMPDEST POP POP POP POP PUSH1 0x40 MLOAD RETURNDATASIZE PUSH1 0x1F NOT PUSH1 0x1F DUP3 ADD AND DUP3 ADD DUP1 PUSH1 0x40 MSTORE POP DUP2 ADD SWAP1 PUSH2 0xED2 SWAP2 SWAP1 PUSH2 0x19D3 JUMP JUMPDEST PUSH1 0x3 SLOAD PUSH1 0x40 MLOAD PUSH4 0x65DF182B PUSH1 0xE0 SHL DUP2 MSTORE PUSH1 0xFF PUSH1 0x1 PUSH1 0xA0 SHL DUP4 DIV DUP2 AND ISZERO ISZERO PUSH1 0x4 DUP4 ADD MSTORE PUSH1 0x1 PUSH1 0xA8 SHL SWAP1 SWAP3 DIV SWAP1 SWAP2 AND PUSH1 0x24 DUP3 ADD MSTORE SWAP1 SWAP2 POP PUSH1 0x0 SWAP1 PUSH1 0x1 PUSH1 0x1 PUSH1 0xA0 SHL SUB DUP5 AND SWAP1 PUSH4 0x65DF182B SWAP1 PUSH1 0x44 ADD PUSH1 0x60 PUSH1 0x40 MLOAD DUP1 DUP4 SUB DUP2 DUP7 GAS STATICCALL ISZERO DUP1 ISZERO PUSH2 0xF3B JUMPI RETURNDATASIZE PUSH1 0x0 DUP1 RETURNDATACOPY RETURNDATASIZE PUSH1 0x0 REVERT JUMPDEST POP POP POP POP PUSH1 0x40 MLOAD RETURNDATASIZE PUSH1 0x1F NOT PUSH1 0x1F DUP3 ADD AND DUP3 ADD DUP1 PUSH1 0x40 MSTORE POP DUP2 ADD SWAP1 PUSH2 0xF5F SWAP2 SWAP1 PUSH2 0x1AE5 JUMP JUMPDEST SWAP1 POP PUSH1 0x40 DUP6 MLOAD GT ISZERO PUSH2 0xFB3 JUMPI PUSH1 0x40 MLOAD PUSH3 0x461BCD PUSH1 0xE5 SHL DUP2 MSTORE PUSH1 0x20 PUSH1 0x4 DUP3 ADD MSTORE PUSH1 0x10 PUSH1 0x24 DUP3 ADD MSTORE PUSH32 0x636F646520697320746F6F206C6F6E6700000000000000000000000000000000 PUSH1 0x44 DUP3 ADD MSTORE PUSH1 0x64 ADD PUSH2 0x339 JUMP JUMPDEST DUP1 MLOAD PUSH16 0xFFFFFFFFFFFFFFFFFFFFFFFFFFFFFFFF AND PUSH2 0x1013 JUMPI PUSH1 0x40 MLOAD PUSH3 0x461BCD PUSH1 0xE5 SHL DUP2 MSTORE PUSH1 0x20 PUSH1 0x4 DUP3 ADD MSTORE PUSH1 0x12 PUSH1 0x24 DUP3 ADD MSTORE PUSH32 0x73616C65207072696365206973207A65726F0000000000000000000000000000 PUSH1 0x44 DUP3 ADD MSTORE PUSH1 0x64 ADD PUSH2 0x339 JUMP JUMPDEST PUSH1 0x0 DUP7 GT PUSH2 0x1063 JUMPI PUSH1 0x40 MLOAD PUSH3 0x461BCD PUSH1 0xE5 SHL DUP2 MSTORE PUSH1 0x20 PUSH1 0x4 DUP3 ADD MSTORE PUSH1 0x11 PUSH1 0x24 DUP3 ADD MSTORE PUSH32 0x63616E6E6F742070757263686173652030000000000000000000000000000000 PUSH1 0x44 DUP3 ADD MSTORE PUSH1 0x64 ADD PUSH2 0x339 JUMP JUMPDEST DUP1 PUSH1 0x40 ADD MLOAD PUSH2 0xFFFF AND DUP7 PUSH1 0x5 SLOAD PUSH2 0x107A SWAP2 SWAP1 PUSH2 0x1BA0 JUMP JUMPDEST LT PUSH2 0x10C7 JUMPI PUSH1 0x40 MLOAD PUSH3 0x461BCD PUSH1 0xE5 SHL DUP2 MSTORE PUSH1 0x20 PUSH1 0x4 DUP3 ADD MSTORE PUSH1 0x8 PUSH1 0x24 DUP3 ADD MSTORE PUSH32 0x6578636365646564000000000000000000000000000000000000000000000000 PUSH1 0x44 DUP3 ADD MSTORE PUSH1 0x64 ADD PUSH2 0x339 JUMP JUMPDEST CALLER PUSH1 0x0 SWAP1 DUP2 MSTORE PUSH1 0x6 PUSH1 0x20 SWAP1 DUP2 MSTORE PUSH1 0x40 SWAP1 SWAP2 KECCAK256 SLOAD SWAP1 DUP3 ADD MLOAD PUSH2 0xFFFF AND ISZERO DUP1 PUSH2 0x10FF JUMPI POP PUSH1 0x20 DUP3 ADD MLOAD PUSH2 0xFFFF AND PUSH2 0x10FC DUP9 DUP4 PUSH2 0x1BA0 JUMP JUMPDEST GT ISZERO JUMPDEST PUSH2 0x114B JUMPI PUSH1 0x40 MLOAD PUSH3 0x461BCD PUSH1 0xE5 SHL DUP2 MSTORE PUSH1 0x20 PUSH1 0x4 DUP3 ADD MSTORE PUSH1 0x15 PUSH1 0x24 DUP3 ADD MSTORE PUSH32 0x6578636365646564206361702070657220757365720000000000000000000000 PUSH1 0x44 DUP3 ADD MSTORE PUSH1 0x64 ADD PUSH2 0x339 JUMP JUMPDEST PUSH1 0x40 DUP4 ADD MLOAD DUP3 MLOAD PUSH1 0x0 SWAP2 PUSH2 0x1170 SWAP2 PUSH16 0xFFFFFFFFFFFFFFFFFFFFFFFFFFFFFFFF AND PUSH2 0x1B7E JUMP JUMPDEST SWAP1 POP PUSH1 0x0 PUSH2 0x117E DUP10 DUP4 PUSH2 0x1BB3 JUMP JUMPDEST PUSH1 0x20 DUP7 ADD MLOAD PUSH1 0x40 MLOAD PUSH32 0x70A0823100000000000000000000000000000000000000000000000000000000 DUP2 MSTORE CALLER PUSH1 0x4 DUP3 ADD MSTORE SWAP2 SWAP3 POP SWAP1 DUP3 SWAP1 PUSH1 0x1 PUSH1 0x1 PUSH1 0xA0 SHL SUB DUP4 AND SWAP1 PUSH4 0x70A08231 SWAP1 PUSH1 0x24 ADD PUSH1 0x20 PUSH1 0x40 MLOAD DUP1 DUP4 SUB DUP2 DUP7 GAS STATICCALL ISZERO DUP1 ISZERO PUSH2 0x11E6 JUMPI RETURNDATASIZE PUSH1 0x0 DUP1 RETURNDATACOPY RETURNDATASIZE PUSH1 0x0 REVERT JUMPDEST POP POP POP POP PUSH1 0x40 MLOAD RETURNDATASIZE PUSH1 0x1F NOT PUSH1 0x1F DUP3 ADD AND DUP3 ADD DUP1 PUSH1 0x40 MSTORE POP DUP2 ADD SWAP1 PUSH2 0x120A SWAP2 SWAP1 PUSH2 0x1A80 JUMP JUMPDEST LT ISZERO PUSH2 0x1258 JUMPI PUSH1 0x40 MLOAD PUSH3 0x461BCD PUSH1 0xE5 SHL DUP2 MSTORE PUSH1 0x20 PUSH1 0x4 DUP3 ADD MSTORE PUSH1 0x12 PUSH1 0x24 DUP3 ADD MSTORE PUSH32 0x6E6F7420656E6F7567682062616C616E63650000000000000000000000000000 PUSH1 0x44 DUP3 ADD MSTORE PUSH1 0x64 ADD PUSH2 0x339 JUMP JUMPDEST DUP10 PUSH1 0x5 PUSH1 0x0 DUP3 DUP3 SLOAD PUSH2 0x126A SWAP2 SWAP1 PUSH2 0x1BA0 JUMP JUMPDEST SWAP1 SWAP2 SSTORE POP POP DUP6 MLOAD PUSH1 0x40 MLOAD PUSH32 0x23B872DD00000000000000000000000000000000000000000000000000000000 DUP2 MSTORE CALLER PUSH1 0x4 DUP3 ADD MSTORE PUSH1 0x1 PUSH1 0x1 PUSH1 0xA0 SHL SUB SWAP2 DUP3 AND PUSH1 0x24 DUP3 ADD MSTORE PUSH1 0x44 DUP2 ADD DUP5 SWAP1 MSTORE SWAP1 DUP3 AND SWAP1 PUSH4 0x23B872DD SWAP1 PUSH1 0x64 ADD PUSH1 0x20 PUSH1 0x40 MLOAD DUP1 DUP4 SUB DUP2 PUSH1 0x0 DUP8 GAS CALL ISZERO DUP1 ISZERO PUSH2 0x12E0 JUMPI RETURNDATASIZE PUSH1 0x0 DUP1 RETURNDATACOPY RETURNDATASIZE PUSH1 0x0 REVERT JUMPDEST POP POP POP POP PUSH1 0x40 MLOAD RETURNDATASIZE PUSH1 0x1F NOT PUSH1 0x1F DUP3 ADD AND DUP3 ADD DUP1 PUSH1 0x40 MSTORE POP DUP2 ADD SWAP1 PUSH2 0x1304 SWAP2 SWAP1 PUSH2 0x1BCA JUMP JUMPDEST POP DUP2 PUSH1 0x4 PUSH1 0x0 DUP3 DUP3 SLOAD PUSH2 0x1317 SWAP2 SWAP1 PUSH2 0x1BA0 JUMP JUMPDEST SWAP1 SWAP2 SSTORE POP PUSH2 0x1327 SWAP1 POP DUP11 DUP6 PUSH2 0x1BA0 JUMP JUMPDEST CALLER PUSH1 0x0 DUP2 DUP2 MSTORE PUSH1 0x6 PUSH1 0x20 MSTORE PUSH1 0x40 SWAP1 DUP2 SWAP1 KECCAK256 SWAP3 SWAP1 SWAP3 SSTORE SWAP1 MLOAD PUSH32 0x2499A5330AB0979CC612135E7883EBC3CD5C9F7A8508F042540C34723348F632 SWAP1 PUSH2 0x136D SWAP1 DUP14 DUP2 MSTORE PUSH1 0x20 ADD SWAP1 JUMP JUMPDEST PUSH1 0x40 MLOAD DUP1 SWAP2 SUB SWAP1 LOG2 DUP9 MLOAD ISZERO PUSH2 0x1483 JUMPI PUSH1 0x8 DUP10 PUSH1 0x40 MLOAD PUSH2 0x138C SWAP2 SWAP1 PUSH2 0x1BEC JUMP JUMPDEST SWAP1 DUP2 MSTORE PUSH1 0x40 MLOAD SWAP1 DUP2 SWAP1 SUB PUSH1 0x20 ADD SWAP1 KECCAK256 SLOAD PUSH1 0xFF AND PUSH2 0x1413 JUMPI PUSH1 0x1 PUSH1 0x8 DUP11 PUSH1 0x40 MLOAD PUSH2 0x13B5 SWAP2 SWAP1 PUSH2 0x1BEC JUMP JUMPDEST SWAP1 DUP2 MSTORE PUSH1 0x40 MLOAD SWAP1 DUP2 SWAP1 SUB PUSH1 0x20 ADD SWAP1 KECCAK256 DUP1 SLOAD SWAP2 ISZERO ISZERO PUSH1 0xFF NOT SWAP1 SWAP3 AND SWAP2 SWAP1 SWAP2 OR SWAP1 SSTORE PUSH1 0x7 DUP1 SLOAD PUSH1 0x1 DUP2 ADD DUP3 SSTORE PUSH1 0x0 SWAP2 SWAP1 SWAP2 MSTORE PUSH32 0xA66CC928B5EDB82AF9BD49922954155AB7B0942694BEA4CE44661D9A8736C688 ADD PUSH2 0x1411 DUP11 DUP3 PUSH2 0x1C50 JUMP JUMPDEST POP JUMPDEST DUP2 PUSH1 0x9 DUP11 PUSH1 0x40 MLOAD PUSH2 0x1424 SWAP2 SWAP1 PUSH2 0x1BEC JUMP JUMPDEST SWAP1 DUP2 MSTORE PUSH1 0x20 ADD PUSH1 0x40 MLOAD DUP1 SWAP2 SUB SWAP1 KECCAK256 PUSH1 0x0 DUP3 DUP3 SLOAD PUSH2 0x1441 SWAP2 SWAP1 PUSH2 0x1BA0 JUMP JUMPDEST SWAP1 SWAP2 SSTORE POP POP PUSH1 0x40 MLOAD CALLER SWAP1 PUSH32 0xD4855E7B21A64EB863713FC0E6B4E68770D741FD2BCEDBB31EC938DB7C31337C SWAP1 PUSH2 0x147A SWAP1 DUP14 SWAP1 DUP14 SWAP1 PUSH2 0x1D10 JUMP JUMPDEST PUSH1 0x40 MLOAD DUP1 SWAP2 SUB SWAP1 LOG2 JUMPDEST POP POP POP POP POP POP POP POP PUSH2 0x1494 PUSH1 0x1 DUP1 SSTORE JUMP JUMPDEST POP POP JUMP JUMPDEST PUSH1 0x0 SLOAD PUSH1 0x1 PUSH1 0x1 PUSH1 0xA0 SHL SUB AND CALLER EQ PUSH2 0x5F1 JUMPI PUSH1 0x40 MLOAD PUSH32 0x118CDAA700000000000000000000000000000000000000000000000000000000 DUP2 MSTORE CALLER PUSH1 0x4 DUP3 ADD MSTORE PUSH1 0x24 ADD PUSH2 0x339 JUMP JUMPDEST PUSH1 0x0 DUP1 SLOAD PUSH1 0x1 PUSH1 0x1 PUSH1 0xA0 SHL SUB DUP4 DUP2 AND PUSH32 0xFFFFFFFFFFFFFFFFFFFFFFFF0000000000000000000000000000000000000000 DUP4 AND DUP2 OR DUP5 SSTORE PUSH1 0x40 MLOAD SWAP2 SWAP1 SWAP3 AND SWAP3 DUP4 SWAP2 PUSH32 0x8BE0079C531659141344CD1FD0A4F28419497F9722A3DAAFE3B4186F6B6457E0 SWAP2 SWAP1 LOG3 POP POP JUMP JUMPDEST PUSH1 0x0 DUP3 PUSH2 0x1553 DUP6 DUP5 PUSH2 0x15E3 JUMP JUMPDEST EQ SWAP5 SWAP4 POP POP POP POP JUMP JUMPDEST PUSH1 0x2 PUSH1 0x1 SLOAD SUB PUSH2 0x1598 JUMPI PUSH1 0x40 MLOAD PUSH32 0x3EE5AEB500000000000000000000000000000000000000000000000000000000 DUP2 MSTORE PUSH1 0x4 ADD PUSH1 0x40 MLOAD DUP1 SWAP2 SUB SWAP1 REVERT JUMPDEST PUSH1 0x2 PUSH1 0x1 SSTORE JUMP JUMPDEST PUSH1 0x0 SLOAD PUSH1 0x1 PUSH1 0xA0 SHL SWAP1 DIV PUSH1 0xFF AND ISZERO PUSH2 0x5F1 JUMPI PUSH1 0x40 MLOAD PUSH32 0xD93C066500000000000000000000000000000000000000000000000000000000 DUP2 MSTORE PUSH1 0x4 ADD PUSH1 0x40 MLOAD DUP1 SWAP2 SUB SWAP1 REVERT JUMPDEST PUSH1 0x0 DUP2 DUP2 JUMPDEST DUP5 MLOAD DUP2 LT ISZERO PUSH2 0x161E JUMPI PUSH2 0x1614 DUP3 DUP7 DUP4 DUP2 MLOAD DUP2 LT PUSH2 0x1607 JUMPI PUSH2 0x1607 PUSH2 0x1D29 JUMP JUMPDEST PUSH1 0x20 MUL PUSH1 0x20 ADD ADD MLOAD PUSH2 0x1628 JUMP JUMPDEST SWAP2 POP PUSH1 0x1 ADD PUSH2 0x15E8 JUMP JUMPDEST POP SWAP1 POP JUMPDEST SWAP3 SWAP2 POP POP JUMP JUMPDEST PUSH1 0x0 DUP2 DUP4 LT PUSH2 0x1644 JUMPI PUSH1 0x0 DUP3 DUP2 MSTORE PUSH1 0x20 DUP5 SWAP1 MSTORE PUSH1 0x40 SWAP1 KECCAK256 PUSH2 0x1653 JUMP JUMPDEST PUSH1 0x0 DUP4 DUP2 MSTORE PUSH1 0x20 DUP4 SWAP1 MSTORE PUSH1 0x40 SWAP1 KECCAK256 JUMPDEST SWAP4 SWAP3 POP POP POP JUMP JUMPDEST PUSH4 0x4E487B71 PUSH1 0xE0 SHL PUSH1 0x0 MSTORE PUSH1 0x41 PUSH1 0x4 MSTORE PUSH1 0x24 PUSH1 0x0 REVERT JUMPDEST PUSH1 0x0 DUP3 PUSH1 0x1F DUP4 ADD SLT PUSH2 0x1681 JUMPI PUSH1 0x0 DUP1 REVERT JUMPDEST DUP2 CALLDATALOAD PUSH8 0xFFFFFFFFFFFFFFFF DUP1 DUP3 GT ISZERO PUSH2 0x169C JUMPI PUSH2 0x169C PUSH2 0x165A JUMP JUMPDEST PUSH1 0x40 MLOAD PUSH1 0x1F DUP4 ADD PUSH1 0x1F NOT SWAP1 DUP2 AND PUSH1 0x3F ADD AND DUP2 ADD SWAP1 DUP3 DUP3 GT DUP2 DUP4 LT OR ISZERO PUSH2 0x16C4 JUMPI PUSH2 0x16C4 PUSH2 0x165A JUMP JUMPDEST DUP2 PUSH1 0x40 MSTORE DUP4 DUP2 MSTORE DUP7 PUSH1 0x20 DUP6 DUP9 ADD ADD GT ISZERO PUSH2 0x16DD JUMPI PUSH1 0x0 DUP1 REVERT JUMPDEST DUP4 PUSH1 0x20 DUP8 ADD PUSH1 0x20 DUP4 ADD CALLDATACOPY PUSH1 0x0 PUSH1 0x20 DUP6 DUP4 ADD ADD MSTORE DUP1 SWAP5 POP POP POP POP POP SWAP3 SWAP2 POP POP JUMP JUMPDEST PUSH1 0x0 PUSH1 0x20 DUP3 DUP5 SUB SLT ISZERO PUSH2 0x170F JUMPI PUSH1 0x0 DUP1 REVERT JUMPDEST DUP2 CALLDATALOAD PUSH8 0xFFFFFFFFFFFFFFFF DUP2 GT ISZERO PUSH2 0x1726 JUMPI PUSH1 0x0 DUP1 REVERT JUMPDEST PUSH2 0x1732 DUP5 DUP3 DUP6 ADD PUSH2 0x1670 JUMP JUMPDEST SWAP5 SWAP4 POP POP POP POP JUMP JUMPDEST PUSH1 0x0 DUP1 DUP4 PUSH1 0x1F DUP5 ADD SLT PUSH2 0x174C JUMPI PUSH1 0x0 DUP1 REVERT JUMPDEST POP DUP2 CALLDATALOAD PUSH8 0xFFFFFFFFFFFFFFFF DUP2 GT ISZERO PUSH2 0x1764 JUMPI PUSH1 0x0 DUP1 REVERT JUMPDEST PUSH1 0x20 DUP4 ADD SWAP2 POP DUP4 PUSH1 0x20 DUP3 PUSH1 0x5 SHL DUP6 ADD ADD GT ISZERO PUSH2 0x177F JUMPI PUSH1 0x0 DUP1 REVERT JUMPDEST SWAP3 POP SWAP3 SWAP1 POP JUMP JUMPDEST PUSH1 0x0 DUP1 PUSH1 0x0 DUP1 PUSH1 0x0 PUSH1 0x60 DUP7 DUP9 SUB SLT ISZERO PUSH2 0x179E JUMPI PUSH1 0x0 DUP1 REVERT JUMPDEST DUP6 CALLDATALOAD SWAP5 POP PUSH1 0x20 DUP7 ADD CALLDATALOAD PUSH8 0xFFFFFFFFFFFFFFFF DUP1 DUP3 GT ISZERO PUSH2 0x17BD JUMPI PUSH1 0x0 DUP1 REVERT JUMPDEST PUSH2 0x17C9 DUP10 DUP4 DUP11 ADD PUSH2 0x173A JUMP JUMPDEST SWAP1 SWAP7 POP SWAP5 POP PUSH1 0x40 DUP9 ADD CALLDATALOAD SWAP2 POP DUP1 DUP3 GT ISZERO PUSH2 0x17E2 JUMPI PUSH1 0x0 DUP1 REVERT JUMPDEST DUP2 DUP9 ADD SWAP2 POP DUP9 PUSH1 0x1F DUP4 ADD SLT PUSH2 0x17F6 JUMPI PUSH1 0x0 DUP1 REVERT JUMPDEST DUP2 CALLDATALOAD DUP2 DUP2 GT ISZERO PUSH2 0x1805 JUMPI PUSH1 0x0 DUP1 REVERT JUMPDEST DUP10 PUSH1 0x20 DUP3 DUP6 ADD ADD GT ISZERO PUSH2 0x1817 JUMPI PUSH1 0x0 DUP1 REVERT JUMPDEST SWAP7 SWAP10 SWAP6 SWAP9 POP SWAP4 SWAP7 POP PUSH1 0x20 ADD SWAP5 SWAP4 SWAP3 POP POP POP JUMP JUMPDEST PUSH1 0x1 PUSH1 0x1 PUSH1 0xA0 SHL SUB DUP2 AND DUP2 EQ PUSH2 0xC8A JUMPI PUSH1 0x0 DUP1 REVERT JUMPDEST PUSH1 0x0 PUSH1 0x20 DUP3 DUP5 SUB SLT ISZERO PUSH2 0x1851 JUMPI PUSH1 0x0 DUP1 REVERT JUMPDEST DUP2 CALLDATALOAD PUSH2 0x1653 DUP2 PUSH2 0x182A JUMP JUMPDEST PUSH1 0x0 JUMPDEST DUP4 DUP2 LT ISZERO PUSH2 0x1877 JUMPI DUP2 DUP2 ADD MLOAD DUP4 DUP3 ADD MSTORE PUSH1 0x20 ADD PUSH2 0x185F JUMP JUMPDEST POP POP PUSH1 0x0 SWAP2 ADD MSTORE JUMP JUMPDEST PUSH1 0x0 DUP2 MLOAD DUP1 DUP5 MSTORE PUSH2 0x1898 DUP2 PUSH1 0x20 DUP7 ADD PUSH1 0x20 DUP7 ADD PUSH2 0x185C JUMP JUMPDEST PUSH1 0x1F ADD PUSH1 0x1F NOT AND SWAP3 SWAP1 SWAP3 ADD PUSH1 0x20 ADD SWAP3 SWAP2 POP POP JUMP JUMPDEST PUSH1 0x80 DUP2 MSTORE PUSH1 0x0 PUSH2 0x18BF PUSH1 0x80 DUP4 ADD DUP8 PUSH2 0x1880 JUMP JUMPDEST PUSH1 0x1 PUSH1 0x1 PUSH1 0xA0 SHL SUB SWAP6 SWAP1 SWAP6 AND PUSH1 0x20 DUP4 ADD MSTORE POP SWAP2 ISZERO ISZERO PUSH1 0x40 DUP4 ADD MSTORE PUSH1 0xFF AND PUSH1 0x60 SWAP1 SWAP2 ADD MSTORE SWAP2 SWAP1 POP JUMP JUMPDEST PUSH1 0x0 DUP1 PUSH1 0x0 DUP1 PUSH1 0x60 DUP6 DUP8 SUB SLT ISZERO PUSH2 0x18FD JUMPI PUSH1 0x0 DUP1 REVERT JUMPDEST DUP5 CALLDATALOAD PUSH2 0x1908 DUP2 PUSH2 0x182A JUMP JUMPDEST SWAP4 POP PUSH1 0x20 DUP6 ADD CALLDATALOAD PUSH8 0xFFFFFFFFFFFFFFFF DUP2 GT ISZERO PUSH2 0x1924 JUMPI PUSH1 0x0 DUP1 REVERT JUMPDEST PUSH2 0x1930 DUP8 DUP3 DUP9 ADD PUSH2 0x173A JUMP JUMPDEST SWAP6 SWAP9 SWAP1 SWAP8 POP SWAP5 SWAP6 PUSH1 0x40 ADD CALLDATALOAD SWAP5 SWAP4 POP POP POP POP JUMP JUMPDEST PUSH1 0x0 DUP1 PUSH1 0x40 DUP4 DUP6 SUB SLT ISZERO PUSH2 0x1956 JUMPI PUSH1 0x0 DUP1 REVERT JUMPDEST DUP3 CALLDATALOAD SWAP2 POP PUSH1 0x20 DUP4 ADD CALLDATALOAD PUSH8 0xFFFFFFFFFFFFFFFF DUP2 GT ISZERO PUSH2 0x1974 JUMPI PUSH1 0x0 DUP1 REVERT JUMPDEST PUSH2 0x1980 DUP6 DUP3 DUP7 ADD PUSH2 0x1670 JUMP JUMPDEST SWAP2 POP POP SWAP3 POP SWAP3 SWAP1 POP JUMP JUMPDEST PUSH1 0x0 PUSH1 0x20 DUP3 DUP5 SUB SLT ISZERO PUSH2 0x199C JUMPI PUSH1 0x0 DUP1 REVERT JUMPDEST POP CALLDATALOAD SWAP2 SWAP1 POP JUMP JUMPDEST PUSH1 0x20 DUP2 MSTORE PUSH1 0x0 PUSH2 0x1653 PUSH1 0x20 DUP4 ADD DUP5 PUSH2 0x1880 JUMP JUMPDEST DUP1 MLOAD PUSH8 0xFFFFFFFFFFFFFFFF DUP2 AND DUP2 EQ PUSH2 0x19CE JUMPI PUSH1 0x0 DUP1 REVERT JUMPDEST SWAP2 SWAP1 POP JUMP JUMPDEST PUSH1 0x0 PUSH1 0xE0 DUP3 DUP5 SUB SLT ISZERO PUSH2 0x19E5 JUMPI PUSH1 0x0 DUP1 REVERT JUMPDEST PUSH1 0x40 MLOAD PUSH1 0xE0 DUP2 ADD DUP2 DUP2 LT PUSH8 0xFFFFFFFFFFFFFFFF DUP3 GT OR ISZERO PUSH2 0x1A08 JUMPI PUSH2 0x1A08 PUSH2 0x165A JUMP JUMPDEST PUSH1 0x40 MSTORE DUP3 MLOAD PUSH2 0x1A16 DUP2 PUSH2 0x182A JUMP JUMPDEST DUP2 MSTORE PUSH1 0x20 DUP4 ADD MLOAD PUSH2 0x1A26 DUP2 PUSH2 0x182A JUMP JUMPDEST PUSH1 0x20 DUP3 ADD MSTORE PUSH1 0x40 DUP4 DUP2 ADD MLOAD SWAP1 DUP3 ADD MSTORE PUSH2 0x1A41 PUSH1 0x60 DUP5 ADD PUSH2 0x19B6 JUMP JUMPDEST PUSH1 0x60 DUP3 ADD MSTORE PUSH2 0x1A52 PUSH1 0x80 DUP5 ADD PUSH2 0x19B6 JUMP JUMPDEST PUSH1 0x80 DUP3 ADD MSTORE PUSH2 0x1A63 PUSH1 0xA0 DUP5 ADD PUSH2 0x19B6 JUMP JUMPDEST PUSH1 0xA0 DUP3 ADD MSTORE PUSH2 0x1A74 PUSH1 0xC0 DUP5 ADD PUSH2 0x19B6 JUMP JUMPDEST PUSH1 0xC0 DUP3 ADD MSTORE SWAP4 SWAP3 POP POP POP JUMP JUMPDEST PUSH1 0x0 PUSH1 0x20 DUP3 DUP5 SUB SLT ISZERO PUSH2 0x1A92 JUMPI PUSH1 0x0 DUP1 REVERT JUMPDEST POP MLOAD SWAP2 SWAP1 POP JUMP JUMPDEST PUSH1 0x1 DUP2 DUP2 SHR SWAP1 DUP3 AND DUP1 PUSH2 0x1AAD JUMPI PUSH1 0x7F DUP3 AND SWAP2 POP JUMPDEST PUSH1 0x20 DUP3 LT DUP2 SUB PUSH2 0x1ACD JUMPI PUSH4 0x4E487B71 PUSH1 0xE0 SHL PUSH1 0x0 MSTORE PUSH1 0x22 PUSH1 0x4 MSTORE PUSH1 0x24 PUSH1 0x0 REVERT JUMPDEST POP SWAP2 SWAP1 POP JUMP JUMPDEST DUP1 MLOAD PUSH2 0xFFFF DUP2 AND DUP2 EQ PUSH2 0x19CE JUMPI PUSH1 0x0 DUP1 REVERT JUMPDEST PUSH1 0x0 PUSH1 0x60 DUP3 DUP5 SUB SLT ISZERO PUSH2 0x1AF7 JUMPI PUSH1 0x0 DUP1 REVERT JUMPDEST PUSH1 0x40 MLOAD PUSH1 0x60 DUP2 ADD DUP2 DUP2 LT PUSH8 0xFFFFFFFFFFFFFFFF DUP3 GT OR ISZERO PUSH2 0x1B1A JUMPI PUSH2 0x1B1A PUSH2 0x165A JUMP JUMPDEST PUSH1 0x40 MSTORE DUP3 MLOAD PUSH16 0xFFFFFFFFFFFFFFFFFFFFFFFFFFFFFFFF DUP2 AND DUP2 EQ PUSH2 0x1B3D JUMPI PUSH1 0x0 DUP1 REVERT JUMPDEST DUP2 MSTORE PUSH2 0x1B4B PUSH1 0x20 DUP5 ADD PUSH2 0x1AD3 JUMP JUMPDEST PUSH1 0x20 DUP3 ADD MSTORE PUSH2 0x1B5C PUSH1 0x40 DUP5 ADD PUSH2 0x1AD3 JUMP JUMPDEST PUSH1 0x40 DUP3 ADD MSTORE SWAP4 SWAP3 POP POP POP JUMP JUMPDEST PUSH4 0x4E487B71 PUSH1 0xE0 SHL PUSH1 0x0 MSTORE PUSH1 0x11 PUSH1 0x4 MSTORE PUSH1 0x24 PUSH1 0x0 REVERT JUMPDEST PUSH1 0x0 DUP3 PUSH2 0x1B9B JUMPI PUSH4 0x4E487B71 PUSH1 0xE0 SHL PUSH1 0x0 MSTORE PUSH1 0x12 PUSH1 0x4 MSTORE PUSH1 0x24 PUSH1 0x0 REVERT JUMPDEST POP DIV SWAP1 JUMP JUMPDEST DUP1 DUP3 ADD DUP1 DUP3 GT ISZERO PUSH2 0x1622 JUMPI PUSH2 0x1622 PUSH2 0x1B68 JUMP JUMPDEST DUP1 DUP3 MUL DUP2 ISZERO DUP3 DUP3 DIV DUP5 EQ OR PUSH2 0x1622 JUMPI PUSH2 0x1622 PUSH2 0x1B68 JUMP JUMPDEST PUSH1 0x0 PUSH1 0x20 DUP3 DUP5 SUB SLT ISZERO PUSH2 0x1BDC JUMPI PUSH1 0x0 DUP1 REVERT JUMPDEST DUP2 MLOAD DUP1 ISZERO ISZERO DUP2 EQ PUSH2 0x1653 JUMPI PUSH1 0x0 DUP1 REVERT JUMPDEST PUSH1 0x0 DUP3 MLOAD PUSH2 0x1BFE DUP2 DUP5 PUSH1 0x20 DUP8 ADD PUSH2 0x185C JUMP JUMPDEST SWAP2 SWAP1 SWAP2 ADD SWAP3 SWAP2 POP POP JUMP JUMPDEST PUSH1 0x1F DUP3 GT ISZERO PUSH2 0xB85 JUMPI PUSH1 0x0 DUP2 PUSH1 0x0 MSTORE PUSH1 0x20 PUSH1 0x0 KECCAK256 PUSH1 0x1F DUP6 ADD PUSH1 0x5 SHR DUP2 ADD PUSH1 0x20 DUP7 LT ISZERO PUSH2 0x1C31 JUMPI POP DUP1 JUMPDEST PUSH1 0x1F DUP6 ADD PUSH1 0x5 SHR DUP3 ADD SWAP2 POP JUMPDEST DUP2 DUP2 LT ISZERO PUSH2 0x5D7 JUMPI DUP3 DUP2 SSTORE PUSH1 0x1 ADD PUSH2 0x1C3D JUMP JUMPDEST DUP2 MLOAD PUSH8 0xFFFFFFFFFFFFFFFF DUP2 GT ISZERO PUSH2 0x1C6A JUMPI PUSH2 0x1C6A PUSH2 0x165A JUMP JUMPDEST PUSH2 0x1C7E DUP2 PUSH2 0x1C78 DUP5 SLOAD PUSH2 0x1A99 JUMP JUMPDEST DUP5 PUSH2 0x1C08 JUMP JUMPDEST PUSH1 0x20 DUP1 PUSH1 0x1F DUP4 GT PUSH1 0x1 DUP2 EQ PUSH2 0x1CB3 JUMPI PUSH1 0x0 DUP5 ISZERO PUSH2 0x1C9B JUMPI POP DUP6 DUP4 ADD MLOAD JUMPDEST PUSH1 0x0 NOT PUSH1 0x3 DUP7 SWAP1 SHL SHR NOT AND PUSH1 0x1 DUP6 SWAP1 SHL OR DUP6 SSTORE PUSH2 0x5D7 JUMP JUMPDEST PUSH1 0x0 DUP6 DUP2 MSTORE PUSH1 0x20 DUP2 KECCAK256 PUSH1 0x1F NOT DUP7 AND SWAP2 JUMPDEST DUP3 DUP2 LT ISZERO PUSH2 0x1CE2 JUMPI DUP9 DUP7 ADD MLOAD DUP3 SSTORE SWAP5 DUP5 ADD SWAP5 PUSH1 0x1 SWAP1 SWAP2 ADD SWAP1 DUP5 ADD PUSH2 0x1CC3 JUMP JUMPDEST POP DUP6 DUP3 LT ISZERO PUSH2 0x1D00 JUMPI DUP8 DUP6 ADD MLOAD PUSH1 0x0 NOT PUSH1 0x3 DUP9 SWAP1 SHL PUSH1 0xF8 AND SHR NOT AND DUP2 SSTORE JUMPDEST POP POP POP POP POP PUSH1 0x1 SWAP1 DUP2 SHL ADD SWAP1 SSTORE POP JUMP JUMPDEST DUP3 DUP2 MSTORE PUSH1 0x40 PUSH1 0x20 DUP3 ADD MSTORE PUSH1 0x0 PUSH2 0x1732 PUSH1 0x40 DUP4 ADD DUP5 PUSH2 0x1880 JUMP JUMPDEST PUSH4 0x4E487B71 PUSH1 0xE0 SHL PUSH1 0x0 MSTORE PUSH1 0x32 PUSH1 0x4 MSTORE PUSH1 0x24 PUSH1 0x0 REVERT INVALID LOG2 PUSH5 0x6970667358 0x22 SLT KECCAK256 0xDA PUSH24 0x6055BA2750C6AA74A67A61A3DF35BEE0C7591B404FA6871B LOG2 0xDF DUP7 0x23 SWAP1 0x1E PUSH5 0x736F6C6343 STOP ADDMOD XOR STOP CALLER "
        },
        "methodIdentifiers": {
          "checkWhitelist(address,bytes32[],uint256)": "76078dbe",
          "codes(uint256)": "e86613a7",
          "data()": "73d4a13a",
          "getSaleTokensSold()": "852d58ba",
          "isCodeStored(string)": "7a900468",
          "owner()": "8da5cb5b",
          "paused()": "5c975abb",
          "purchase(uint256,string)": "da9581b6",
          "purchaseAmountPerCode(string)": "01deac2c",
          "renounceOwnership()": "715018a6",
          "saleTokenPurchased()": "1d6a4581",
          "totalPaymentReceived()": "48faade4",
          "totalPurchased(address)": "497aef28",
          "transferOwnership(address)": "f2fde38b",
          "whitelistedPurchase(uint256,bytes32[],string)": "2761f329"
        }
      }
    }
  }
}