{
  "contracts/InferixNodeSaleConfiguration.sol": {
    "InferixNodeSaleConfiguration": {
      "abi": [
        {
          "inputs": [],
          "stateMutability": "nonpayable",
          "type": "constructor"
        },
        {
          "inputs": [
            {
              "internalType": "address",
              "name": "owner",
              "type": "address"
            }
          ],
          "name": "OwnableInvalidOwner",
          "type": "error"
        },
        {
          "inputs": [
            {
              "internalType": "address",
              "name": "account",
              "type": "address"
            }
          ],
          "name": "OwnableUnauthorizedAccount",
          "type": "error"
        },
        {
          "anonymous": false,
          "inputs": [
            {
              "indexed": true,
              "internalType": "address",
              "name": "previousOwner",
              "type": "address"
            },
            {
              "indexed": true,
              "internalType": "address",
              "name": "newOwner",
              "type": "address"
            }
          ],
          "name": "OwnershipTransferred",
          "type": "event"
        },
        {
          "inputs": [],
          "name": "getSaleConfig",
          "outputs": [
            {
              "components": [
                {
                  "internalType": "address",
                  "name": "beneficiary",
                  "type": "address"
                },
                {
                  "internalType": "address",
                  "name": "paymentToken",
                  "type": "address"
                },
                {
                  "internalType": "uint256",
                  "name": "snapshotedRate",
                  "type": "uint256"
                },
                {
                  "internalType": "uint64",
                  "name": "whitelistSaleStartTime",
                  "type": "uint64"
                },
                {
                  "internalType": "uint64",
                  "name": "whitelistSaleEndTime",
                  "type": "uint64"
                },
                {
                  "internalType": "uint64",
                  "name": "publicSaleStartTime",
                  "type": "uint64"
                },
                {
                  "internalType": "uint64",
                  "name": "publicSaleEndTime",
                  "type": "uint64"
                }
              ],
              "internalType": "struct SaleConfig",
              "name": "",
              "type": "tuple"
            }
          ],
          "stateMutability": "view",
          "type": "function"
        },
        {
          "inputs": [
            {
              "internalType": "bool",
              "name": "isWhitelistSale",
              "type": "bool"
            },
            {
              "internalType": "uint256",
              "name": "tier",
              "type": "uint256"
            }
          ],
          "name": "getTierConfig",
          "outputs": [
            {
              "components": [
                {
                  "internalType": "uint128",
                  "name": "usdPrice",
                  "type": "uint128"
                },
                {
                  "internalType": "uint16",
                  "name": "capPerUser",
                  "type": "uint16"
                },
                {
                  "internalType": "uint16",
                  "name": "totalAllocation",
                  "type": "uint16"
                }
              ],
              "internalType": "struct TierConfig",
              "name": "",
              "type": "tuple"
            }
          ],
          "stateMutability": "view",
          "type": "function"
        },
        {
          "inputs": [],
          "name": "owner",
          "outputs": [
            {
              "internalType": "address",
              "name": "",
              "type": "address"
            }
          ],
          "stateMutability": "view",
          "type": "function"
        },
        {
          "inputs": [
            {
              "internalType": "uint256",
              "name": "",
              "type": "uint256"
            }
          ],
          "name": "publicSaleTiers",
          "outputs": [
            {
              "internalType": "uint128",
              "name": "usdPrice",
              "type": "uint128"
            },
            {
              "internalType": "uint16",
              "name": "capPerUser",
              "type": "uint16"
            },
            {
              "internalType": "uint16",
              "name": "totalAllocation",
              "type": "uint16"
            }
          ],
          "stateMutability": "view",
          "type": "function"
        },
        {
          "inputs": [],
          "name": "renounceOwnership",
          "outputs": [],
          "stateMutability": "nonpayable",
          "type": "function"
        },
        {
          "inputs": [
            {
              "components": [
                {
                  "internalType": "address",
                  "name": "beneficiary",
                  "type": "address"
                },
                {
                  "internalType": "address",
                  "name": "paymentToken",
                  "type": "address"
                },
                {
                  "internalType": "uint256",
                  "name": "snapshotedRate",
                  "type": "uint256"
                },
                {
                  "internalType": "uint64",
                  "name": "whitelistSaleStartTime",
                  "type": "uint64"
                },
                {
                  "internalType": "uint64",
                  "name": "whitelistSaleEndTime",
                  "type": "uint64"
                },
                {
                  "internalType": "uint64",
                  "name": "publicSaleStartTime",
                  "type": "uint64"
                },
                {
                  "internalType": "uint64",
                  "name": "publicSaleEndTime",
                  "type": "uint64"
                }
              ],
              "internalType": "struct SaleConfig",
              "name": "config",
              "type": "tuple"
            }
          ],
          "name": "setSaleConfig",
          "outputs": [],
          "stateMutability": "nonpayable",
          "type": "function"
        },
        {
          "inputs": [
            {
              "internalType": "bool",
              "name": "isWhitelistSale",
              "type": "bool"
            },
            {
              "internalType": "uint256",
              "name": "tier",
              "type": "uint256"
            },
            {
              "components": [
                {
                  "internalType": "uint128",
                  "name": "usdPrice",
                  "type": "uint128"
                },
                {
                  "internalType": "uint16",
                  "name": "capPerUser",
                  "type": "uint16"
                },
                {
                  "internalType": "uint16",
                  "name": "totalAllocation",
                  "type": "uint16"
                }
              ],
              "internalType": "struct TierConfig",
              "name": "config",
              "type": "tuple"
            }
          ],
          "name": "setTierConfig",
          "outputs": [],
          "stateMutability": "nonpayable",
          "type": "function"
        },
        {
          "inputs": [
            {
              "internalType": "uint256",
              "name": "tier",
              "type": "uint256"
            },
            {
              "internalType": "bytes32",
              "name": "hash",
              "type": "bytes32"
            }
          ],
          "name": "setWhitelistRootHash",
          "outputs": [],
          "stateMutability": "nonpayable",
          "type": "function"
        },
        {
          "inputs": [
            {
              "internalType": "address",
              "name": "newOwner",
              "type": "address"
            }
          ],
          "name": "transferOwnership",
          "outputs": [],
          "stateMutability": "nonpayable",
          "type": "function"
        },
        {
          "inputs": [
            {
              "internalType": "uint256",
              "name": "",
              "type": "uint256"
            }
          ],
          "name": "whitelistRootHash",
          "outputs": [
            {
              "internalType": "bytes32",
              "name": "",
              "type": "bytes32"
            }
          ],
          "stateMutability": "view",
          "type": "function"
        },
        {
          "inputs": [
            {
              "internalType": "uint256",
              "name": "",
              "type": "uint256"
            }
          ],
          "name": "whitelistSaleTiers",
          "outputs": [
            {
              "internalType": "uint128",
              "name": "usdPrice",
              "type": "uint128"
            },
            {
              "internalType": "uint16",
              "name": "capPerUser",
              "type": "uint16"
            },
            {
              "internalType": "uint16",
              "name": "totalAllocation",
              "type": "uint16"
            }
          ],
          "stateMutability": "view",
          "type": "function"
        }
      ],
      "evm": {
        "bytecode": {
          "linkReferences": {},
          "object": "608060405234801561001057600080fd5b50338061003757604051631e4fbdf760e01b81526000600482015260240160405180910390fd5b61004081610046565b50610096565b600080546001600160a01b038381166001600160a01b0319831681178455604051919092169283917f8be0079c531659141344cd1fd0a4f28419497f9722a3daafe3b4186f6b6457e09190a35050565b6109bb806100a56000396000f3fe608060405234801561001057600080fd5b50600436106100c95760003560e01c8063a1d2574f11610081578063d3a2184c1161005b578063d3a2184c14610339578063da2f8e7d1461034c578063f2fde38b1461037a57600080fd5b8063a1d2574f14610168578063b5f49ee8146101d2578063cea943ee1461021257600080fd5b806365df182b116100b257806365df182b146100f6578063715018a6146101455780638da5cb5b1461014d57600080fd5b80631a813aec146100ce5780634aafcf49146100e3575b600080fd5b6100e16100dc366004610739565b61038d565b005b6100e16100f1366004610782565b6103a7565b61010961010436600461083a565b6104b3565b6040805182516001600160801b0316815260208084015161ffff9081169183019190915292820151909216908201526060015b60405180910390f35b6100e1610535565b6000546040516001600160a01b03909116815260200161013c565b6101a8610176366004610864565b6003602052600090815260409020546001600160801b0381169061ffff600160801b8204811691600160901b90041683565b604080516001600160801b03909416845261ffff928316602085015291169082015260600161013c565b6101a86101e0366004610864565b6002602052600090815260409020546001600160801b0381169061ffff600160801b8204811691600160901b90041683565b6102c26040805160e081018252600080825260208201819052918101829052606081018290526080810182905260a0810182905260c0810191909152506040805160e0810182526004546001600160a01b0390811682526005541660208201526006549181019190915260075467ffffffffffffffff808216606084015268010000000000000000820481166080840152600160801b8204811660a0840152600160c01b9091041660c082015290565b60405161013c9190600060e0820190506001600160a01b038084511683528060208501511660208401525060408301516040830152606083015167ffffffffffffffff80821660608501528060808601511660808501528060a08601511660a08501528060c08601511660c0850152505092915050565b6100e16103473660046108ac565b610549565b61036c61035a366004610864565b60016020526000908152604090205481565b60405190815260200161013c565b6100e1610388366004610963565b61063a565b610395610696565b60009182526001602052604090912055565b6103af610696565b821561043457600091825260026020908152604092839020825181549284015193909401516001600160801b0390941671ffffffffffffffffffffffffffffffffffff1990921691909117600160801b61ffff938416021773ffff0000000000000000000000000000000000001916600160901b929093169190910291909117905550565b600091825260036020908152604092839020825181549284015193909401516001600160801b0390941671ffffffffffffffffffffffffffffffffffff1990921691909117600160801b61ffff938416021773ffff0000000000000000000000000000000000001916600160901b929093169190910291909117905550565b6040805160608101825260008082526020820181905291810191909152826104e85760008281526003602052604090206104f7565b60008281526002602052604090205b6040805160608101825291546001600160801b038116835261ffff600160801b820481166020850152600160901b9091041690820152905092915050565b61053d610696565b61054760006106dc565b565b610551610696565b8051600480546001600160a01b0392831673ffffffffffffffffffffffffffffffffffffffff19918216179091556020830151600580549190931691161790556040810151600655606081015160078054608084015160a085015160c09095015167ffffffffffffffff908116600160c01b0277ffffffffffffffffffffffffffffffffffffffffffffffff968216600160801b02969096166001600160801b0392821668010000000000000000027fffffffffffffffffffffffffffffffff000000000000000000000000000000009094169190951617919091171691909117919091179055565b610642610696565b6001600160a01b03811661068a576040517f1e4fbdf7000000000000000000000000000000000000000000000000000000008152600060048201526024015b60405180910390fd5b610693816106dc565b50565b6000546001600160a01b03163314610547576040517f118cdaa7000000000000000000000000000000000000000000000000000000008152336004820152602401610681565b600080546001600160a01b0383811673ffffffffffffffffffffffffffffffffffffffff19831681178455604051919092169283917f8be0079c531659141344cd1fd0a4f28419497f9722a3daafe3b4186f6b6457e09190a35050565b6000806040838503121561074c57600080fd5b50508035926020909101359150565b8035801515811461076b57600080fd5b919050565b803561ffff8116811461076b57600080fd5b600080600083850360a081121561079857600080fd5b6107a18561075b565b9350602085013592506060603f19820112156107bc57600080fd5b506040516060810181811067ffffffffffffffff821117156107ee57634e487b7160e01b600052604160045260246000fd5b60409081528501356001600160801b038116811461080b57600080fd5b815261081960608601610770565b602082015261082a60808601610770565b6040820152809150509250925092565b6000806040838503121561084d57600080fd5b6108568361075b565b946020939093013593505050565b60006020828403121561087657600080fd5b5035919050565b80356001600160a01b038116811461076b57600080fd5b803567ffffffffffffffff8116811461076b57600080fd5b600060e082840312156108be57600080fd5b60405160e0810181811067ffffffffffffffff821117156108ef57634e487b7160e01b600052604160045260246000fd5b6040526108fb8361087d565b81526109096020840161087d565b60208201526040830135604082015261092460608401610894565b606082015261093560808401610894565b608082015261094660a08401610894565b60a082015261095760c08401610894565b60c08201529392505050565b60006020828403121561097557600080fd5b61097e8261087d565b939250505056fea26469706673582212202cadaa7d7ed6658ae33d07015d1f249b78d46518ea0ea0d2752342de1c40b10164736f6c63430008180033",
          "opcodes": "PUSH1 0x80 PUSH1 0x40 MSTORE CALLVALUE DUP1 ISZERO PUSH2 0x10 JUMPI PUSH1 0x0 DUP1 REVERT JUMPDEST POP CALLER DUP1 PUSH2 0x37 JUMPI PUSH1 0x40 MLOAD PUSH4 0x1E4FBDF7 PUSH1 0xE0 SHL DUP2 MSTORE PUSH1 0x0 PUSH1 0x4 DUP3 ADD MSTORE PUSH1 0x24 ADD PUSH1 0x40 MLOAD DUP1 SWAP2 SUB SWAP1 REVERT JUMPDEST PUSH2 0x40 DUP2 PUSH2 0x46 JUMP JUMPDEST POP PUSH2 0x96 JUMP JUMPDEST PUSH1 0x0 DUP1 SLOAD PUSH1 0x1 PUSH1 0x1 PUSH1 0xA0 SHL SUB DUP4 DUP2 AND PUSH1 0x1 PUSH1 0x1 PUSH1 0xA0 SHL SUB NOT DUP4 AND DUP2 OR DUP5 SSTORE PUSH1 0x40 MLOAD SWAP2 SWAP1 SWAP3 AND SWAP3 DUP4 SWAP2 PUSH32 0x8BE0079C531659141344CD1FD0A4F28419497F9722A3DAAFE3B4186F6B6457E0 SWAP2 SWAP1 LOG3 POP POP JUMP JUMPDEST PUSH2 0x9BB DUP1 PUSH2 0xA5 PUSH1 0x0 CODECOPY PUSH1 0x0 RETURN INVALID PUSH1 0x80 PUSH1 0x40 MSTORE CALLVALUE DUP1 ISZERO PUSH2 0x10 JUMPI PUSH1 0x0 DUP1 REVERT JUMPDEST POP PUSH1 0x4 CALLDATASIZE LT PUSH2 0xC9 JUMPI PUSH1 0x0 CALLDATALOAD PUSH1 0xE0 SHR DUP1 PUSH4 0xA1D2574F GT PUSH2 0x81 JUMPI DUP1 PUSH4 0xD3A2184C GT PUSH2 0x5B JUMPI DUP1 PUSH4 0xD3A2184C EQ PUSH2 0x339 JUMPI DUP1 PUSH4 0xDA2F8E7D EQ PUSH2 0x34C JUMPI DUP1 PUSH4 0xF2FDE38B EQ PUSH2 0x37A JUMPI PUSH1 0x0 DUP1 REVERT JUMPDEST DUP1 PUSH4 0xA1D2574F EQ PUSH2 0x168 JUMPI DUP1 PUSH4 0xB5F49EE8 EQ PUSH2 0x1D2 JUMPI DUP1 PUSH4 0xCEA943EE EQ PUSH2 0x212 JUMPI PUSH1 0x0 DUP1 REVERT JUMPDEST DUP1 PUSH4 0x65DF182B GT PUSH2 0xB2 JUMPI DUP1 PUSH4 0x65DF182B EQ PUSH2 0xF6 JUMPI DUP1 PUSH4 0x715018A6 EQ PUSH2 0x145 JUMPI DUP1 PUSH4 0x8DA5CB5B EQ PUSH2 0x14D JUMPI PUSH1 0x0 DUP1 REVERT JUMPDEST DUP1 PUSH4 0x1A813AEC EQ PUSH2 0xCE JUMPI DUP1 PUSH4 0x4AAFCF49 EQ PUSH2 0xE3 JUMPI JUMPDEST PUSH1 0x0 DUP1 REVERT JUMPDEST PUSH2 0xE1 PUSH2 0xDC CALLDATASIZE PUSH1 0x4 PUSH2 0x739 JUMP JUMPDEST PUSH2 0x38D JUMP JUMPDEST STOP JUMPDEST PUSH2 0xE1 PUSH2 0xF1 CALLDATASIZE PUSH1 0x4 PUSH2 0x782 JUMP JUMPDEST PUSH2 0x3A7 JUMP JUMPDEST PUSH2 0x109 PUSH2 0x104 CALLDATASIZE PUSH1 0x4 PUSH2 0x83A JUMP JUMPDEST PUSH2 0x4B3 JUMP JUMPDEST PUSH1 0x40 DUP1 MLOAD DUP3 MLOAD PUSH1 0x1 PUSH1 0x1 PUSH1 0x80 SHL SUB AND DUP2 MSTORE PUSH1 0x20 DUP1 DUP5 ADD MLOAD PUSH2 0xFFFF SWAP1 DUP2 AND SWAP2 DUP4 ADD SWAP2 SWAP1 SWAP2 MSTORE SWAP3 DUP3 ADD MLOAD SWAP1 SWAP3 AND SWAP1 DUP3 ADD MSTORE PUSH1 0x60 ADD JUMPDEST PUSH1 0x40 MLOAD DUP1 SWAP2 SUB SWAP1 RETURN JUMPDEST PUSH2 0xE1 PUSH2 0x535 JUMP JUMPDEST PUSH1 0x0 SLOAD PUSH1 0x40 MLOAD PUSH1 0x1 PUSH1 0x1 PUSH1 0xA0 SHL SUB SWAP1 SWAP2 AND DUP2 MSTORE PUSH1 0x20 ADD PUSH2 0x13C JUMP JUMPDEST PUSH2 0x1A8 PUSH2 0x176 CALLDATASIZE PUSH1 0x4 PUSH2 0x864 JUMP JUMPDEST PUSH1 0x3 PUSH1 0x20 MSTORE PUSH1 0x0 SWAP1 DUP2 MSTORE PUSH1 0x40 SWAP1 KECCAK256 SLOAD PUSH1 0x1 PUSH1 0x1 PUSH1 0x80 SHL SUB DUP2 AND SWAP1 PUSH2 0xFFFF PUSH1 0x1 PUSH1 0x80 SHL DUP3 DIV DUP2 AND SWAP2 PUSH1 0x1 PUSH1 0x90 SHL SWAP1 DIV AND DUP4 JUMP JUMPDEST PUSH1 0x40 DUP1 MLOAD PUSH1 0x1 PUSH1 0x1 PUSH1 0x80 SHL SUB SWAP1 SWAP5 AND DUP5 MSTORE PUSH2 0xFFFF SWAP3 DUP4 AND PUSH1 0x20 DUP6 ADD MSTORE SWAP2 AND SWAP1 DUP3 ADD MSTORE PUSH1 0x60 ADD PUSH2 0x13C JUMP JUMPDEST PUSH2 0x1A8 PUSH2 0x1E0 CALLDATASIZE PUSH1 0x4 PUSH2 0x864 JUMP JUMPDEST PUSH1 0x2 PUSH1 0x20 MSTORE PUSH1 0x0 SWAP1 DUP2 MSTORE PUSH1 0x40 SWAP1 KECCAK256 SLOAD PUSH1 0x1 PUSH1 0x1 PUSH1 0x80 SHL SUB DUP2 AND SWAP1 PUSH2 0xFFFF PUSH1 0x1 PUSH1 0x80 SHL DUP3 DIV DUP2 AND SWAP2 PUSH1 0x1 PUSH1 0x90 SHL SWAP1 DIV AND DUP4 JUMP JUMPDEST PUSH2 0x2C2 PUSH1 0x40 DUP1 MLOAD PUSH1 0xE0 DUP2 ADD DUP3 MSTORE PUSH1 0x0 DUP1 DUP3 MSTORE PUSH1 0x20 DUP3 ADD DUP2 SWAP1 MSTORE SWAP2 DUP2 ADD DUP3 SWAP1 MSTORE PUSH1 0x60 DUP2 ADD DUP3 SWAP1 MSTORE PUSH1 0x80 DUP2 ADD DUP3 SWAP1 MSTORE PUSH1 0xA0 DUP2 ADD DUP3 SWAP1 MSTORE PUSH1 0xC0 DUP2 ADD SWAP2 SWAP1 SWAP2 MSTORE POP PUSH1 0x40 DUP1 MLOAD PUSH1 0xE0 DUP2 ADD DUP3 MSTORE PUSH1 0x4 SLOAD PUSH1 0x1 PUSH1 0x1 PUSH1 0xA0 SHL SUB SWAP1 DUP2 AND DUP3 MSTORE PUSH1 0x5 SLOAD AND PUSH1 0x20 DUP3 ADD MSTORE PUSH1 0x6 SLOAD SWAP2 DUP2 ADD SWAP2 SWAP1 SWAP2 MSTORE PUSH1 0x7 SLOAD PUSH8 0xFFFFFFFFFFFFFFFF DUP1 DUP3 AND PUSH1 0x60 DUP5 ADD MSTORE PUSH9 0x10000000000000000 DUP3 DIV DUP2 AND PUSH1 0x80 DUP5 ADD MSTORE PUSH1 0x1 PUSH1 0x80 SHL DUP3 DIV DUP2 AND PUSH1 0xA0 DUP5 ADD MSTORE PUSH1 0x1 PUSH1 0xC0 SHL SWAP1 SWAP2 DIV AND PUSH1 0xC0 DUP3 ADD MSTORE SWAP1 JUMP JUMPDEST PUSH1 0x40 MLOAD PUSH2 0x13C SWAP2 SWAP1 PUSH1 0x0 PUSH1 0xE0 DUP3 ADD SWAP1 POP PUSH1 0x1 PUSH1 0x1 PUSH1 0xA0 SHL SUB DUP1 DUP5 MLOAD AND DUP4 MSTORE DUP1 PUSH1 0x20 DUP6 ADD MLOAD AND PUSH1 0x20 DUP5 ADD MSTORE POP PUSH1 0x40 DUP4 ADD MLOAD PUSH1 0x40 DUP4 ADD MSTORE PUSH1 0x60 DUP4 ADD MLOAD PUSH8 0xFFFFFFFFFFFFFFFF DUP1 DUP3 AND PUSH1 0x60 DUP6 ADD MSTORE DUP1 PUSH1 0x80 DUP7 ADD MLOAD AND PUSH1 0x80 DUP6 ADD MSTORE DUP1 PUSH1 0xA0 DUP7 ADD MLOAD AND PUSH1 0xA0 DUP6 ADD MSTORE DUP1 PUSH1 0xC0 DUP7 ADD MLOAD AND PUSH1 0xC0 DUP6 ADD MSTORE POP POP SWAP3 SWAP2 POP POP JUMP JUMPDEST PUSH2 0xE1 PUSH2 0x347 CALLDATASIZE PUSH1 0x4 PUSH2 0x8AC JUMP JUMPDEST PUSH2 0x549 JUMP JUMPDEST PUSH2 0x36C PUSH2 0x35A CALLDATASIZE PUSH1 0x4 PUSH2 0x864 JUMP JUMPDEST PUSH1 0x1 PUSH1 0x20 MSTORE PUSH1 0x0 SWAP1 DUP2 MSTORE PUSH1 0x40 SWAP1 KECCAK256 SLOAD DUP2 JUMP JUMPDEST PUSH1 0x40 MLOAD SWAP1 DUP2 MSTORE PUSH1 0x20 ADD PUSH2 0x13C JUMP JUMPDEST PUSH2 0xE1 PUSH2 0x388 CALLDATASIZE PUSH1 0x4 PUSH2 0x963 JUMP JUMPDEST PUSH2 0x63A JUMP JUMPDEST PUSH2 0x395 PUSH2 0x696 JUMP JUMPDEST PUSH1 0x0 SWAP2 DUP3 MSTORE PUSH1 0x1 PUSH1 0x20 MSTORE PUSH1 0x40 SWAP1 SWAP2 KECCAK256 SSTORE JUMP JUMPDEST PUSH2 0x3AF PUSH2 0x696 JUMP JUMPDEST DUP3 ISZERO PUSH2 0x434 JUMPI PUSH1 0x0 SWAP2 DUP3 MSTORE PUSH1 0x2 PUSH1 0x20 SWAP1 DUP2 MSTORE PUSH1 0x40 SWAP3 DUP4 SWAP1 KECCAK256 DUP3 MLOAD DUP2 SLOAD SWAP3 DUP5 ADD MLOAD SWAP4 SWAP1 SWAP5 ADD MLOAD PUSH1 0x1 PUSH1 0x1 PUSH1 0x80 SHL SUB SWAP1 SWAP5 AND PUSH18 0xFFFFFFFFFFFFFFFFFFFFFFFFFFFFFFFFFFFF NOT SWAP1 SWAP3 AND SWAP2 SWAP1 SWAP2 OR PUSH1 0x1 PUSH1 0x80 SHL PUSH2 0xFFFF SWAP4 DUP5 AND MUL OR PUSH20 0xFFFF000000000000000000000000000000000000 NOT AND PUSH1 0x1 PUSH1 0x90 SHL SWAP3 SWAP1 SWAP4 AND SWAP2 SWAP1 SWAP2 MUL SWAP2 SWAP1 SWAP2 OR SWAP1 SSTORE POP JUMP JUMPDEST PUSH1 0x0 SWAP2 DUP3 MSTORE PUSH1 0x3 PUSH1 0x20 SWAP1 DUP2 MSTORE PUSH1 0x40 SWAP3 DUP4 SWAP1 KECCAK256 DUP3 MLOAD DUP2 SLOAD SWAP3 DUP5 ADD MLOAD SWAP4 SWAP1 SWAP5 ADD MLOAD PUSH1 0x1 PUSH1 0x1 PUSH1 0x80 SHL SUB SWAP1 SWAP5 AND PUSH18 0xFFFFFFFFFFFFFFFFFFFFFFFFFFFFFFFFFFFF NOT SWAP1 SWAP3 AND SWAP2 SWAP1 SWAP2 OR PUSH1 0x1 PUSH1 0x80 SHL PUSH2 0xFFFF SWAP4 DUP5 AND MUL OR PUSH20 0xFFFF000000000000000000000000000000000000 NOT AND PUSH1 0x1 PUSH1 0x90 SHL SWAP3 SWAP1 SWAP4 AND SWAP2 SWAP1 SWAP2 MUL SWAP2 SWAP1 SWAP2 OR SWAP1 SSTORE POP JUMP JUMPDEST PUSH1 0x40 DUP1 MLOAD PUSH1 0x60 DUP2 ADD DUP3 MSTORE PUSH1 0x0 DUP1 DUP3 MSTORE PUSH1 0x20 DUP3 ADD DUP2 SWAP1 MSTORE SWAP2 DUP2 ADD SWAP2 SWAP1 SWAP2 MSTORE DUP3 PUSH2 0x4E8 JUMPI PUSH1 0x0 DUP3 DUP2 MSTORE PUSH1 0x3 PUSH1 0x20 MSTORE PUSH1 0x40 SWAP1 KECCAK256 PUSH2 0x4F7 JUMP JUMPDEST PUSH1 0x0 DUP3 DUP2 MSTORE PUSH1 0x2 PUSH1 0x20 MSTORE PUSH1 0x40 SWAP1 KECCAK256 JUMPDEST PUSH1 0x40 DUP1 MLOAD PUSH1 0x60 DUP2 ADD DUP3 MSTORE SWAP2 SLOAD PUSH1 0x1 PUSH1 0x1 PUSH1 0x80 SHL SUB DUP2 AND DUP4 MSTORE PUSH2 0xFFFF PUSH1 0x1 PUSH1 0x80 SHL DUP3 DIV DUP2 AND PUSH1 0x20 DUP6 ADD MSTORE PUSH1 0x1 PUSH1 0x90 SHL SWAP1 SWAP2 DIV AND SWAP1 DUP3 ADD MSTORE SWAP1 POP SWAP3 SWAP2 POP POP JUMP JUMPDEST PUSH2 0x53D PUSH2 0x696 JUMP JUMPDEST PUSH2 0x547 PUSH1 0x0 PUSH2 0x6DC JUMP JUMPDEST JUMP JUMPDEST PUSH2 0x551 PUSH2 0x696 JUMP JUMPDEST DUP1 MLOAD PUSH1 0x4 DUP1 SLOAD PUSH1 0x1 PUSH1 0x1 PUSH1 0xA0 SHL SUB SWAP3 DUP4 AND PUSH20 0xFFFFFFFFFFFFFFFFFFFFFFFFFFFFFFFFFFFFFFFF NOT SWAP2 DUP3 AND OR SWAP1 SWAP2 SSTORE PUSH1 0x20 DUP4 ADD MLOAD PUSH1 0x5 DUP1 SLOAD SWAP2 SWAP1 SWAP4 AND SWAP2 AND OR SWAP1 SSTORE PUSH1 0x40 DUP2 ADD MLOAD PUSH1 0x6 SSTORE PUSH1 0x60 DUP2 ADD MLOAD PUSH1 0x7 DUP1 SLOAD PUSH1 0x80 DUP5 ADD MLOAD PUSH1 0xA0 DUP6 ADD MLOAD PUSH1 0xC0 SWAP1 SWAP6 ADD MLOAD PUSH8 0xFFFFFFFFFFFFFFFF SWAP1 DUP2 AND PUSH1 0x1 PUSH1 0xC0 SHL MUL PUSH24 0xFFFFFFFFFFFFFFFFFFFFFFFFFFFFFFFFFFFFFFFFFFFFFFFF SWAP7 DUP3 AND PUSH1 0x1 PUSH1 0x80 SHL MUL SWAP7 SWAP1 SWAP7 AND PUSH1 0x1 PUSH1 0x1 PUSH1 0x80 SHL SUB SWAP3 DUP3 AND PUSH9 0x10000000000000000 MUL PUSH32 0xFFFFFFFFFFFFFFFFFFFFFFFFFFFFFFFF00000000000000000000000000000000 SWAP1 SWAP5 AND SWAP2 SWAP1 SWAP6 AND OR SWAP2 SWAP1 SWAP2 OR AND SWAP2 SWAP1 SWAP2 OR SWAP2 SWAP1 SWAP2 OR SWAP1 SSTORE JUMP JUMPDEST PUSH2 0x642 PUSH2 0x696 JUMP JUMPDEST PUSH1 0x1 PUSH1 0x1 PUSH1 0xA0 SHL SUB DUP2 AND PUSH2 0x68A JUMPI PUSH1 0x40 MLOAD PUSH32 0x1E4FBDF700000000000000000000000000000000000000000000000000000000 DUP2 MSTORE PUSH1 0x0 PUSH1 0x4 DUP3 ADD MSTORE PUSH1 0x24 ADD JUMPDEST PUSH1 0x40 MLOAD DUP1 SWAP2 SUB SWAP1 REVERT JUMPDEST PUSH2 0x693 DUP2 PUSH2 0x6DC JUMP JUMPDEST POP JUMP JUMPDEST PUSH1 0x0 SLOAD PUSH1 0x1 PUSH1 0x1 PUSH1 0xA0 SHL SUB AND CALLER EQ PUSH2 0x547 JUMPI PUSH1 0x40 MLOAD PUSH32 0x118CDAA700000000000000000000000000000000000000000000000000000000 DUP2 MSTORE CALLER PUSH1 0x4 DUP3 ADD MSTORE PUSH1 0x24 ADD PUSH2 0x681 JUMP JUMPDEST PUSH1 0x0 DUP1 SLOAD PUSH1 0x1 PUSH1 0x1 PUSH1 0xA0 SHL SUB DUP4 DUP2 AND PUSH20 0xFFFFFFFFFFFFFFFFFFFFFFFFFFFFFFFFFFFFFFFF NOT DUP4 AND DUP2 OR DUP5 SSTORE PUSH1 0x40 MLOAD SWAP2 SWAP1 SWAP3 AND SWAP3 DUP4 SWAP2 PUSH32 0x8BE0079C531659141344CD1FD0A4F28419497F9722A3DAAFE3B4186F6B6457E0 SWAP2 SWAP1 LOG3 POP POP JUMP JUMPDEST PUSH1 0x0 DUP1 PUSH1 0x40 DUP4 DUP6 SUB SLT ISZERO PUSH2 0x74C JUMPI PUSH1 0x0 DUP1 REVERT JUMPDEST POP POP DUP1 CALLDATALOAD SWAP3 PUSH1 0x20 SWAP1 SWAP2 ADD CALLDATALOAD SWAP2 POP JUMP JUMPDEST DUP1 CALLDATALOAD DUP1 ISZERO ISZERO DUP2 EQ PUSH2 0x76B JUMPI PUSH1 0x0 DUP1 REVERT JUMPDEST SWAP2 SWAP1 POP JUMP JUMPDEST DUP1 CALLDATALOAD PUSH2 0xFFFF DUP2 AND DUP2 EQ PUSH2 0x76B JUMPI PUSH1 0x0 DUP1 REVERT JUMPDEST PUSH1 0x0 DUP1 PUSH1 0x0 DUP4 DUP6 SUB PUSH1 0xA0 DUP2 SLT ISZERO PUSH2 0x798 JUMPI PUSH1 0x0 DUP1 REVERT JUMPDEST PUSH2 0x7A1 DUP6 PUSH2 0x75B JUMP JUMPDEST SWAP4 POP PUSH1 0x20 DUP6 ADD CALLDATALOAD SWAP3 POP PUSH1 0x60 PUSH1 0x3F NOT DUP3 ADD SLT ISZERO PUSH2 0x7BC JUMPI PUSH1 0x0 DUP1 REVERT JUMPDEST POP PUSH1 0x40 MLOAD PUSH1 0x60 DUP2 ADD DUP2 DUP2 LT PUSH8 0xFFFFFFFFFFFFFFFF DUP3 GT OR ISZERO PUSH2 0x7EE JUMPI PUSH4 0x4E487B71 PUSH1 0xE0 SHL PUSH1 0x0 MSTORE PUSH1 0x41 PUSH1 0x4 MSTORE PUSH1 0x24 PUSH1 0x0 REVERT JUMPDEST PUSH1 0x40 SWAP1 DUP2 MSTORE DUP6 ADD CALLDATALOAD PUSH1 0x1 PUSH1 0x1 PUSH1 0x80 SHL SUB DUP2 AND DUP2 EQ PUSH2 0x80B JUMPI PUSH1 0x0 DUP1 REVERT JUMPDEST DUP2 MSTORE PUSH2 0x819 PUSH1 0x60 DUP7 ADD PUSH2 0x770 JUMP JUMPDEST PUSH1 0x20 DUP3 ADD MSTORE PUSH2 0x82A PUSH1 0x80 DUP7 ADD PUSH2 0x770 JUMP JUMPDEST PUSH1 0x40 DUP3 ADD MSTORE DUP1 SWAP2 POP POP SWAP3 POP SWAP3 POP SWAP3 JUMP JUMPDEST PUSH1 0x0 DUP1 PUSH1 0x40 DUP4 DUP6 SUB SLT ISZERO PUSH2 0x84D JUMPI PUSH1 0x0 DUP1 REVERT JUMPDEST PUSH2 0x856 DUP4 PUSH2 0x75B JUMP JUMPDEST SWAP5 PUSH1 0x20 SWAP4 SWAP1 SWAP4 ADD CALLDATALOAD SWAP4 POP POP POP JUMP JUMPDEST PUSH1 0x0 PUSH1 0x20 DUP3 DUP5 SUB SLT ISZERO PUSH2 0x876 JUMPI PUSH1 0x0 DUP1 REVERT JUMPDEST POP CALLDATALOAD SWAP2 SWAP1 POP JUMP JUMPDEST DUP1 CALLDATALOAD PUSH1 0x1 PUSH1 0x1 PUSH1 0xA0 SHL SUB DUP2 AND DUP2 EQ PUSH2 0x76B JUMPI PUSH1 0x0 DUP1 REVERT JUMPDEST DUP1 CALLDATALOAD PUSH8 0xFFFFFFFFFFFFFFFF DUP2 AND DUP2 EQ PUSH2 0x76B JUMPI PUSH1 0x0 DUP1 REVERT JUMPDEST PUSH1 0x0 PUSH1 0xE0 DUP3 DUP5 SUB SLT ISZERO PUSH2 0x8BE JUMPI PUSH1 0x0 DUP1 REVERT JUMPDEST PUSH1 0x40 MLOAD PUSH1 0xE0 DUP2 ADD DUP2 DUP2 LT PUSH8 0xFFFFFFFFFFFFFFFF DUP3 GT OR ISZERO PUSH2 0x8EF JUMPI PUSH4 0x4E487B71 PUSH1 0xE0 SHL PUSH1 0x0 MSTORE PUSH1 0x41 PUSH1 0x4 MSTORE PUSH1 0x24 PUSH1 0x0 REVERT JUMPDEST PUSH1 0x40 MSTORE PUSH2 0x8FB DUP4 PUSH2 0x87D JUMP JUMPDEST DUP2 MSTORE PUSH2 0x909 PUSH1 0x20 DUP5 ADD PUSH2 0x87D JUMP JUMPDEST PUSH1 0x20 DUP3 ADD MSTORE PUSH1 0x40 DUP4 ADD CALLDATALOAD PUSH1 0x40 DUP3 ADD MSTORE PUSH2 0x924 PUSH1 0x60 DUP5 ADD PUSH2 0x894 JUMP JUMPDEST PUSH1 0x60 DUP3 ADD MSTORE PUSH2 0x935 PUSH1 0x80 DUP5 ADD PUSH2 0x894 JUMP JUMPDEST PUSH1 0x80 DUP3 ADD MSTORE PUSH2 0x946 PUSH1 0xA0 DUP5 ADD PUSH2 0x894 JUMP JUMPDEST PUSH1 0xA0 DUP3 ADD MSTORE PUSH2 0x957 PUSH1 0xC0 DUP5 ADD PUSH2 0x894 JUMP JUMPDEST PUSH1 0xC0 DUP3 ADD MSTORE SWAP4 SWAP3 POP POP POP JUMP JUMPDEST PUSH1 0x0 PUSH1 0x20 DUP3 DUP5 SUB SLT ISZERO PUSH2 0x975 JUMPI PUSH1 0x0 DUP1 REVERT JUMPDEST PUSH2 0x97E DUP3 PUSH2 0x87D JUMP JUMPDEST SWAP4 SWAP3 POP POP POP JUMP INVALID LOG2 PUSH5 0x6970667358 0x22 SLT KECCAK256 0x2C 0xAD 0xAA PUSH30 0x7ED6658AE33D07015D1F249B78D46518EA0EA0D2752342DE1C40B1016473 PUSH16 0x6C634300081800330000000000000000 "
        },
        "methodIdentifiers": {
          "getSaleConfig()": "cea943ee",
          "getTierConfig(bool,uint256)": "65df182b",
          "owner()": "8da5cb5b",
          "publicSaleTiers(uint256)": "a1d2574f",
          "renounceOwnership()": "715018a6",
          "setSaleConfig((address,address,uint256,uint64,uint64,uint64,uint64))": "d3a2184c",
          "setTierConfig(bool,uint256,(uint128,uint16,uint16))": "4aafcf49",
          "setWhitelistRootHash(uint256,bytes32)": "1a813aec",
          "transferOwnership(address)": "f2fde38b",
          "whitelistRootHash(uint256)": "da2f8e7d",
          "whitelistSaleTiers(uint256)": "b5f49ee8"
        }
      }
    }
  }
}