{
  "contracts/InferixNodeSale.sol": {
    "InferixNodeSale": {
      "abi": [
        {
          "inputs": [
            {
              "internalType": "string",
              "name": "_name",
              "type": "string"
            },
            {
              "internalType": "address",
              "name": "_configAddress",
              "type": "address"
            },
            {
              "internalType": "bool",
              "name": "_isWhitelistSale",
              "type": "bool"
            },
            {
              "internalType": "uint8",
              "name": "_tier",
              "type": "uint8"
            }
          ],
          "stateMutability": "nonpayable",
          "type": "constructor"
        },
        {
          "inputs": [],
          "name": "EnforcedPause",
          "type": "error"
        },
        {
          "inputs": [],
          "name": "ExpectedPause",
          "type": "error"
        },
        {
          "inputs": [
            {
              "internalType": "address",
              "name": "owner",
              "type": "address"
            }
          ],
          "name": "OwnableInvalidOwner",
          "type": "error"
        },
        {
          "inputs": [
            {
              "internalType": "address",
              "name": "account",
              "type": "address"
            }
          ],
          "name": "OwnableUnauthorizedAccount",
          "type": "error"
        },
        {
          "inputs": [],
          "name": "ReentrancyGuardReentrantCall",
          "type": "error"
        },
        {
          "anonymous": false,
          "inputs": [
            {
              "indexed": true,
              "internalType": "address",
              "name": "previousOwner",
              "type": "address"
            },
            {
              "indexed": true,
              "internalType": "address",
              "name": "newOwner",
              "type": "address"
            }
          ],
          "name": "OwnershipTransferred",
          "type": "event"
        },
        {
          "anonymous": false,
          "inputs": [
            {
              "indexed": false,
              "internalType": "address",
              "name": "account",
              "type": "address"
            }
          ],
          "name": "Paused",
          "type": "event"
        },
        {
          "anonymous": false,
          "inputs": [
            {
              "indexed": true,
              "internalType": "address",
              "name": "sender",
              "type": "address"
            },
            {
              "indexed": false,
              "internalType": "uint256",
              "name": "purchasedAmount",
              "type": "uint256"
            }
          ],
          "name": "Purchase",
          "type": "event"
        },
        {
          "anonymous": false,
          "inputs": [
            {
              "indexed": true,
              "internalType": "address",
              "name": "sender",
              "type": "address"
            },
            {
              "indexed": false,
              "internalType": "uint256",
              "name": "purchasedAmount",
              "type": "uint256"
            },
            {
              "indexed": false,
              "internalType": "string",
              "name": "code",
              "type": "string"
            }
          ],
          "name": "PurchaseWithCode",
          "type": "event"
        },
        {
          "anonymous": false,
          "inputs": [
            {
              "indexed": false,
              "internalType": "address",
              "name": "account",
              "type": "address"
            }
          ],
          "name": "Unpaused",
          "type": "event"
        },
        {
          "inputs": [
            {
              "internalType": "address",
              "name": "user",
              "type": "address"
            },
            {
              "internalType": "bytes32[]",
              "name": "merkleProof",
              "type": "bytes32[]"
            },
            {
              "internalType": "uint256",
              "name": "allocation",
              "type": "uint256"
            }
          ],
          "name": "checkWhitelist",
          "outputs": [
            {
              "internalType": "bool",
              "name": "",
              "type": "bool"
            }
          ],
          "stateMutability": "view",
          "type": "function"
        },
        {
          "inputs": [
            {
              "internalType": "uint256",
              "name": "",
              "type": "uint256"
            }
          ],
          "name": "codes",
          "outputs": [
            {
              "internalType": "string",
              "name": "",
              "type": "string"
            }
          ],
          "stateMutability": "view",
          "type": "function"
        },
        {
          "inputs": [],
          "name": "data",
          "outputs": [
            {
              "internalType": "string",
              "name": "name",
              "type": "string"
            },
            {
              "internalType": "address",
              "name": "configAddress",
              "type": "address"
            },
            {
              "internalType": "bool",
              "name": "isWhitelistSale",
              "type": "bool"
            },
            {
              "internalType": "uint8",
              "name": "tier",
              "type": "uint8"
            }
          ],
          "stateMutability": "view",
          "type": "function"
        },
        {
          "inputs": [],
          "name": "getSaleTokensSold",
          "outputs": [
            {
              "internalType": "uint256",
              "name": "amount",
              "type": "uint256"
            }
          ],
          "stateMutability": "view",
          "type": "function"
        },
        {
          "inputs": [],
          "name": "owner",
          "outputs": [
            {
              "internalType": "address",
              "name": "",
              "type": "address"
            }
          ],
          "stateMutability": "view",
          "type": "function"
        },
        {
          "inputs": [],
          "name": "paused",
          "outputs": [
            {
              "internalType": "bool",
              "name": "",
              "type": "bool"
            }
          ],
          "stateMutability": "view",
          "type": "function"
        },
        {
          "inputs": [
            {
              "internalType": "uint256",
              "name": "paymentAmount",
              "type": "uint256"
            },
            {
              "internalType": "string",
              "name": "code",
              "type": "string"
            }
          ],
          "name": "purchase",
          "outputs": [],
          "stateMutability": "nonpayable",
          "type": "function"
        },
        {
          "inputs": [
            {
              "internalType": "string",
              "name": "",
              "type": "string"
            }
          ],
          "name": "purchaseAmountPerCode",
          "outputs": [
            {
              "internalType": "uint256",
              "name": "",
              "type": "uint256"
            }
          ],
          "stateMutability": "view",
          "type": "function"
        },
        {
          "inputs": [],
          "name": "renounceOwnership",
          "outputs": [],
          "stateMutability": "nonpayable",
          "type": "function"
        },
        {
          "inputs": [],
          "name": "saleTokenPurchased",
          "outputs": [
            {
              "internalType": "uint256",
              "name": "",
              "type": "uint256"
            }
          ],
          "stateMutability": "view",
          "type": "function"
        },
        {
          "inputs": [],
          "name": "totalPaymentReceived",
          "outputs": [
            {
              "internalType": "uint256",
              "name": "",
              "type": "uint256"
            }
          ],
          "stateMutability": "view",
          "type": "function"
        },
        {
          "inputs": [
            {
              "internalType": "address",
              "name": "",
              "type": "address"
            }
          ],
          "name": "totalPurchased",
          "outputs": [
            {
              "internalType": "uint256",
              "name": "",
              "type": "uint256"
            }
          ],
          "stateMutability": "view",
          "type": "function"
        },
        {
          "inputs": [
            {
              "internalType": "address",
              "name": "newOwner",
              "type": "address"
            }
          ],
          "name": "transferOwnership",
          "outputs": [],
          "stateMutability": "nonpayable",
          "type": "function"
        },
        {
          "inputs": [
            {
              "internalType": "uint256",
              "name": "paymentAmount",
              "type": "uint256"
            },
            {
              "internalType": "bytes32[]",
              "name": "merkleProof",
              "type": "bytes32[]"
            },
            {
              "internalType": "string",
              "name": "code",
              "type": "string"
            }
          ],
          "name": "whitelistedPurchase",
          "outputs": [],
          "stateMutability": "nonpayable",
          "type": "function"
        }
      ],
      "evm": {
        "bytecode": {
          "linkReferences": {},
          "object": "60806040523480156200001157600080fd5b506040516200215d3803806200215d8339810160408190526200003491620001ba565b33806200005b57604051631e4fbdf760e01b81526000600482015260240160405180910390fd5b620000668162000114565b506000805460ff60a01b1916905560018055604080516080810182528581526001600160a01b03851660208201528315159181019190915260ff82166060820152600280620000b6878262000358565b50602082015160019091018054604084015160609094015160ff16600160a81b0260ff60a81b19941515600160a01b026001600160a81b03199092166001600160a01b03909416939093171792909216179055506200042492505050565b600080546001600160a01b038381166001600160a01b0319831681178455604051919092169283917f8be0079c531659141344cd1fd0a4f28419497f9722a3daafe3b4186f6b6457e09190a35050565b634e487b7160e01b600052604160045260246000fd5b80516001600160a01b03811681146200019257600080fd5b919050565b805180151581146200019257600080fd5b805160ff811681146200019257600080fd5b60008060008060808587031215620001d157600080fd5b84516001600160401b0380821115620001e957600080fd5b818701915087601f830112620001fe57600080fd5b81518181111562000213576200021362000164565b604051601f8201601f19908116603f011681019083821181831017156200023e576200023e62000164565b81604052828152602093508a848487010111156200025b57600080fd5b600091505b828210156200027f578482018401518183018501529083019062000260565b60008484830101528098505050506200029a8188016200017a565b94505050620002ac6040860162000197565b9150620002bc60608601620001a8565b905092959194509250565b600181811c90821680620002dc57607f821691505b602082108103620002fd57634e487b7160e01b600052602260045260246000fd5b50919050565b601f82111562000353576000816000526020600020601f850160051c810160208610156200032e5750805b601f850160051c820191505b818110156200034f578281556001016200033a565b5050505b505050565b81516001600160401b0381111562000374576200037462000164565b6200038c81620003858454620002c7565b8462000303565b602080601f831160018114620003c45760008415620003ab5750858301515b600019600386901b1c1916600185901b1785556200034f565b600085815260208120601f198616915b82811015620003f557888601518255948401946001909101908401620003d4565b5085821015620004145787850151600019600388901b60f8161c191681555b5050505050600190811b01905550565b611d2980620004346000396000f3fe608060405234801561001057600080fd5b50600436106100ea5760003560e01c806373d4a13a1161008c5780638da5cb5b116100665780638da5cb5b146101cd578063da9581b6146101e8578063e86613a7146101fb578063f2fde38b1461021b57600080fd5b806373d4a13a1461019a57806376078dbe146101b2578063852d58ba146101c557600080fd5b806348faade4116100c857806348faade41461014b578063497aef28146101545780635c975abb14610174578063715018a61461019257600080fd5b806301deac2c146100ef5780631d6a45811461012d5780632761f32914610136575b600080fd5b61011a6100fd3660046116b1565b805160208183018101805160098252928201919093012091525481565b6040519081526020015b60405180910390f35b61011a60055481565b61014961014436600461173a565b61022e565b005b61011a60045481565b61011a6101623660046117f3565b60066020526000908152604090205481565b600054600160a01b900460ff165b6040519015158152602001610124565b6101496105a6565b6101a26105ba565b6040516101249493929190611860565b6101826101c036600461189b565b610671565b61011a61076f565b6000546040516001600160a01b039091168152602001610124565b6101496101f63660046118f7565b6108ab565b61020e61020936600461193e565b610b3e565b6040516101249190611957565b6101496102293660046117f3565b610bea565b60035460408051636754a1f760e11b815290516000926001600160a01b03169163cea943ee9160048083019260e09291908290030181865afa158015610278573d6000803e3d6000fd5b505050506040513d601f19601f8201168201806040525081019061029c9190611987565b600354909150600160a01b900460ff16156103585742816060015167ffffffffffffffff1611156103095760405162461bcd60e51b815260206004820152601260248201527139b0b632903430b9903737ba103132b3bab760711b60448201526064015b60405180910390fd5b806080015167ffffffffffffffff164211156103535760405162461bcd60e51b815260206004820152600960248201526839b0b6329037bb32b960b91b6044820152606401610300565b6103f5565b428160a0015167ffffffffffffffff1611156103ab5760405162461bcd60e51b815260206004820152601260248201527139b0b632903430b9903737ba103132b3bab760711b6044820152606401610300565b8060c0015167ffffffffffffffff164211156103f55760405162461bcd60e51b815260206004820152600960248201526839b0b6329037bb32b960b91b6044820152606401610300565b60035460405163da2f8e7d60e01b8152600160a81b820460ff1660048201526001600160a01b039091169063da2f8e7d90602401602060405180830381865afa158015610446573d6000803e3d6000fd5b505050506040513d601f19601f8201168201806040525081019061046a9190611a34565b6000036104b95760405162461bcd60e51b815260206004820152601460248201527f666f72207075626c69632073616c65206f6e6c790000000000000000000000006044820152606401610300565b836105065760405162461bcd60e51b815260206004820152600e60248201527f696e76616c69642070726f6f66730000000000000000000000000000000000006044820152606401610300565b61051233868689610671565b61055e5760405162461bcd60e51b815260206004820152600d60248201527f70726f6f6620696e76616c6964000000000000000000000000000000000000006044820152606401610300565b61059e8684848080601f016020809104026020016040519081016040528093929190818152602001838380828437600092019190915250610c4192505050565b505050505050565b6105ae61144c565b6105b86000611492565b565b6002805481906105c990611a4d565b80601f01602080910402602001604051908101604052809291908181526020018280546105f590611a4d565b80156106425780601f1061061757610100808354040283529160200191610642565b820191906000526020600020905b81548152906001019060200180831161062557829003601f168201915b505050600190930154919250506001600160a01b0381169060ff600160a01b8204811691600160a81b90041684565b6040516bffffffffffffffffffffffff19606086901b1660208201526034810182905260009081906054016040516020818303038152906040528051906020012090506107658585808060200260200160405190810160405280939291908181526020018383602002808284376000920191909152505060035460405163da2f8e7d60e01b8152600160a81b820460ff1660048201526001600160a01b03909116925063da2f8e7d9150602401602060405180830381865afa15801561073b573d6000803e3d6000fd5b505050506040513d601f19601f8201168201806040525081019061075f9190611a34565b836114fa565b9695505050505050565b6003546040516365df182b60e01b815260ff600160a01b8304811615156004830152600160a81b83041660248201526000916001600160a01b031690829082906365df182b90604401606060405180830381865afa1580156107d5573d6000803e3d6000fd5b505050506040513d601f19601f820116820180604052508101906107f99190611a99565b90506000826001600160a01b031663cea943ee6040518163ffffffff1660e01b815260040160e060405180830381865afa15801561083b573d6000803e3d6000fd5b505050506040513d601f19601f8201168201806040525081019061085f9190611987565b60400151825161088191906fffffffffffffffffffffffffffffffff16611b32565b905080600003610895576000935050505090565b806004546108a39190611b32565b935050505090565b60035460408051636754a1f760e11b815290516000926001600160a01b03169163cea943ee9160048083019260e09291908290030181865afa1580156108f5573d6000803e3d6000fd5b505050506040513d601f19601f820116820180604052508101906109199190611987565b600354909150600160a01b900460ff16156109d05742816060015167ffffffffffffffff1611156109815760405162461bcd60e51b815260206004820152601260248201527139b0b632903430b9903737ba103132b3bab760711b6044820152606401610300565b806080015167ffffffffffffffff164211156109cb5760405162461bcd60e51b815260206004820152600960248201526839b0b6329037bb32b960b91b6044820152606401610300565b610a6d565b428160a0015167ffffffffffffffff161115610a235760405162461bcd60e51b815260206004820152601260248201527139b0b632903430b9903737ba103132b3bab760711b6044820152606401610300565b8060c0015167ffffffffffffffff16421115610a6d5760405162461bcd60e51b815260206004820152600960248201526839b0b6329037bb32b960b91b6044820152606401610300565b60035460405163da2f8e7d60e01b8152600160a81b820460ff1660048201526001600160a01b039091169063da2f8e7d90602401602060405180830381865afa158015610abe573d6000803e3d6000fd5b505050506040513d601f19601f82011682018060405250810190610ae29190611a34565b15610b2f5760405162461bcd60e51b815260206004820152601460248201527f666f722077686974656c6973746564206f6e6c790000000000000000000000006044820152606401610300565b610b398383610c41565b505050565b60078181548110610b4e57600080fd5b906000526020600020016000915090508054610b6990611a4d565b80601f0160208091040260200160405190810160405280929190818152602001828054610b9590611a4d565b8015610be25780601f10610bb757610100808354040283529160200191610be2565b820191906000526020600020905b815481529060010190602001808311610bc557829003601f168201915b505050505081565b610bf261144c565b6001600160a01b038116610c35576040517f1e4fbdf700000000000000000000000000000000000000000000000000000000815260006004820152602401610300565b610c3e81611492565b50565b610c49611510565b610c51611553565b60035460408051636754a1f760e11b815290516000926001600160a01b03169163cea943ee9160048083019260e09291908290030181865afa158015610c9b573d6000803e3d6000fd5b505050506040513d601f19601f82011682018060405250810190610cbf9190611987565b600354909150600160a01b900460ff1615610d765742816060015167ffffffffffffffff161115610d275760405162461bcd60e51b815260206004820152601260248201527139b0b632903430b9903737ba103132b3bab760711b6044820152606401610300565b806080015167ffffffffffffffff16421115610d715760405162461bcd60e51b815260206004820152600960248201526839b0b6329037bb32b960b91b6044820152606401610300565b610e13565b428160a0015167ffffffffffffffff161115610dc95760405162461bcd60e51b815260206004820152601260248201527139b0b632903430b9903737ba103132b3bab760711b6044820152606401610300565b8060c0015167ffffffffffffffff16421115610e135760405162461bcd60e51b815260206004820152600960248201526839b0b6329037bb32b960b91b6044820152606401610300565b60035460408051636754a1f760e11b815290516001600160a01b0390921691600091839163cea943ee9160048082019260e0929091908290030181865afa158015610e62573d6000803e3d6000fd5b505050506040513d601f19601f82011682018060405250810190610e869190611987565b6003546040516365df182b60e01b815260ff600160a01b8304811615156004830152600160a81b90920490911660248201529091506000906001600160a01b038416906365df182b90604401606060405180830381865afa158015610eef573d6000803e3d6000fd5b505050506040513d601f19601f82011682018060405250810190610f139190611a99565b9050604085511115610f675760405162461bcd60e51b815260206004820152601060248201527f636f646520697320746f6f206c6f6e67000000000000000000000000000000006044820152606401610300565b80516fffffffffffffffffffffffffffffffff16610fc75760405162461bcd60e51b815260206004820152601260248201527f73616c65207072696365206973207a65726f00000000000000000000000000006044820152606401610300565b600086116110175760405162461bcd60e51b815260206004820152601160248201527f63616e6e6f7420707572636861736520300000000000000000000000000000006044820152606401610300565b806040015161ffff168660055461102e9190611b54565b1061107b5760405162461bcd60e51b815260206004820152600860248201527f65786363656465640000000000000000000000000000000000000000000000006044820152606401610300565b336000908152600660209081526040909120549082015161ffff1615806110b35750602082015161ffff166110b08883611b54565b11155b6110ff5760405162461bcd60e51b815260206004820152601560248201527f65786363656465642063617020706572207573657200000000000000000000006044820152606401610300565b60408301518251600091611124916fffffffffffffffffffffffffffffffff16611b32565b905060006111328983611b67565b60208601516040517f70a082310000000000000000000000000000000000000000000000000000000081523360048201529192509082906001600160a01b038316906370a0823190602401602060405180830381865afa15801561119a573d6000803e3d6000fd5b505050506040513d601f19601f820116820180604052508101906111be9190611a34565b101561120c5760405162461bcd60e51b815260206004820152601260248201527f6e6f7420656e6f7567682062616c616e636500000000000000000000000000006044820152606401610300565b896005600082825461121e9190611b54565b909155505085516040517f23b872dd0000000000000000000000000000000000000000000000000000000081523360048201526001600160a01b03918216602482015260448101849052908216906323b872dd906064016020604051808303816000875af1158015611294573d6000803e3d6000fd5b505050506040513d601f19601f820116820180604052508101906112b89190611b7e565b5081600460008282546112cb9190611b54565b909155506112db90508a85611b54565b33600081815260066020526040908190209290925590517f2499a5330ab0979cc612135e7883ebc3cd5c9f7a8508f042540c34723348f632906113219087815260200190565b60405180910390a2885115611437576008896040516113409190611ba0565b9081526040519081900360200190205460ff166113c757600160088a6040516113699190611ba0565b908152604051908190036020019020805491151560ff19909216919091179055600780546001810182556000919091527fa66cc928b5edb82af9bd49922954155ab7b0942694bea4ce44661d9a8736c688016113c58a82611c04565b505b8160098a6040516113d89190611ba0565b908152602001604051809103902060008282546113f59190611b54565b909155505060405133907fd4855e7b21a64eb863713fc0e6b4e68770d741fd2bcedbb31ec938db7c31337c9061142e9087908d90611cc4565b60405180910390a25b505050505050505061144860018055565b5050565b6000546001600160a01b031633146105b8576040517f118cdaa7000000000000000000000000000000000000000000000000000000008152336004820152602401610300565b600080546001600160a01b038381167fffffffffffffffffffffffff0000000000000000000000000000000000000000831681178455604051919092169283917f8be0079c531659141344cd1fd0a4f28419497f9722a3daafe3b4186f6b6457e09190a35050565b6000826115078584611597565b14949350505050565b60026001540361154c576040517f3ee5aeb500000000000000000000000000000000000000000000000000000000815260040160405180910390fd5b6002600155565b600054600160a01b900460ff16156105b8576040517fd93c066500000000000000000000000000000000000000000000000000000000815260040160405180910390fd5b600081815b84518110156115d2576115c8828683815181106115bb576115bb611cdd565b60200260200101516115dc565b915060010161159c565b5090505b92915050565b60008183106115f8576000828152602084905260409020611607565b60008381526020839052604090205b9392505050565b634e487b7160e01b600052604160045260246000fd5b600082601f83011261163557600080fd5b813567ffffffffffffffff808211156116505761165061160e565b604051601f8301601f19908116603f011681019082821181831017156116785761167861160e565b8160405283815286602085880101111561169157600080fd5b836020870160208301376000602085830101528094505050505092915050565b6000602082840312156116c357600080fd5b813567ffffffffffffffff8111156116da57600080fd5b6116e684828501611624565b949350505050565b60008083601f84011261170057600080fd5b50813567ffffffffffffffff81111561171857600080fd5b6020830191508360208260051b850101111561173357600080fd5b9250929050565b60008060008060006060868803121561175257600080fd5b85359450602086013567ffffffffffffffff8082111561177157600080fd5b61177d89838a016116ee565b9096509450604088013591508082111561179657600080fd5b818801915088601f8301126117aa57600080fd5b8135818111156117b957600080fd5b8960208285010111156117cb57600080fd5b9699959850939650602001949392505050565b6001600160a01b0381168114610c3e57600080fd5b60006020828403121561180557600080fd5b8135611607816117de565b60005b8381101561182b578181015183820152602001611813565b50506000910152565b6000815180845261184c816020860160208601611810565b601f01601f19169290920160200192915050565b6080815260006118736080830187611834565b6001600160a01b0395909516602083015250911515604083015260ff16606090910152919050565b600080600080606085870312156118b157600080fd5b84356118bc816117de565b9350602085013567ffffffffffffffff8111156118d857600080fd5b6118e4878288016116ee565b9598909750949560400135949350505050565b6000806040838503121561190a57600080fd5b82359150602083013567ffffffffffffffff81111561192857600080fd5b61193485828601611624565b9150509250929050565b60006020828403121561195057600080fd5b5035919050565b6020815260006116076020830184611834565b805167ffffffffffffffff8116811461198257600080fd5b919050565b600060e0828403121561199957600080fd5b60405160e0810181811067ffffffffffffffff821117156119bc576119bc61160e565b60405282516119ca816117de565b815260208301516119da816117de565b6020820152604083810151908201526119f56060840161196a565b6060820152611a066080840161196a565b6080820152611a1760a0840161196a565b60a0820152611a2860c0840161196a565b60c08201529392505050565b600060208284031215611a4657600080fd5b5051919050565b600181811c90821680611a6157607f821691505b602082108103611a8157634e487b7160e01b600052602260045260246000fd5b50919050565b805161ffff8116811461198257600080fd5b600060608284031215611aab57600080fd5b6040516060810181811067ffffffffffffffff82111715611ace57611ace61160e565b60405282516fffffffffffffffffffffffffffffffff81168114611af157600080fd5b8152611aff60208401611a87565b6020820152611b1060408401611a87565b60408201529392505050565b634e487b7160e01b600052601160045260246000fd5b600082611b4f57634e487b7160e01b600052601260045260246000fd5b500490565b808201808211156115d6576115d6611b1c565b80820281158282048414176115d6576115d6611b1c565b600060208284031215611b9057600080fd5b8151801515811461160757600080fd5b60008251611bb2818460208701611810565b9190910192915050565b601f821115610b39576000816000526020600020601f850160051c81016020861015611be55750805b601f850160051c820191505b8181101561059e57828155600101611bf1565b815167ffffffffffffffff811115611c1e57611c1e61160e565b611c3281611c2c8454611a4d565b84611bbc565b602080601f831160018114611c675760008415611c4f5750858301515b600019600386901b1c1916600185901b17855561059e565b600085815260208120601f198616915b82811015611c9657888601518255948401946001909101908401611c77565b5085821015611cb45787850151600019600388901b60f8161c191681555b5050505050600190811b01905550565b8281526040602082015260006116e66040830184611834565b634e487b7160e01b600052603260045260246000fdfea2646970667358221220423dd58d6f64c99f55d96149511e3bb6a7b05979cb6244a7ea5fff2b50c5edf464736f6c63430008180033",
          "opcodes": "PUSH1 0x80 PUSH1 0x40 MSTORE CALLVALUE DUP1 ISZERO PUSH3 0x11 JUMPI PUSH1 0x0 DUP1 REVERT JUMPDEST POP PUSH1 0x40 MLOAD PUSH3 0x215D CODESIZE SUB DUP1 PUSH3 0x215D DUP4 CODECOPY DUP2 ADD PUSH1 0x40 DUP2 SWAP1 MSTORE PUSH3 0x34 SWAP2 PUSH3 0x1BA JUMP JUMPDEST CALLER DUP1 PUSH3 0x5B JUMPI PUSH1 0x40 MLOAD PUSH4 0x1E4FBDF7 PUSH1 0xE0 SHL DUP2 MSTORE PUSH1 0x0 PUSH1 0x4 DUP3 ADD MSTORE PUSH1 0x24 ADD PUSH1 0x40 MLOAD DUP1 SWAP2 SUB SWAP1 REVERT JUMPDEST PUSH3 0x66 DUP2 PUSH3 0x114 JUMP JUMPDEST POP PUSH1 0x0 DUP1 SLOAD PUSH1 0xFF PUSH1 0xA0 SHL NOT AND SWAP1 SSTORE PUSH1 0x1 DUP1 SSTORE PUSH1 0x40 DUP1 MLOAD PUSH1 0x80 DUP2 ADD DUP3 MSTORE DUP6 DUP2 MSTORE PUSH1 0x1 PUSH1 0x1 PUSH1 0xA0 SHL SUB DUP6 AND PUSH1 0x20 DUP3 ADD MSTORE DUP4 ISZERO ISZERO SWAP2 DUP2 ADD SWAP2 SWAP1 SWAP2 MSTORE PUSH1 0xFF DUP3 AND PUSH1 0x60 DUP3 ADD MSTORE PUSH1 0x2 DUP1 PUSH3 0xB6 DUP8 DUP3 PUSH3 0x358 JUMP JUMPDEST POP PUSH1 0x20 DUP3 ADD MLOAD PUSH1 0x1 SWAP1 SWAP2 ADD DUP1 SLOAD PUSH1 0x40 DUP5 ADD MLOAD PUSH1 0x60 SWAP1 SWAP5 ADD MLOAD PUSH1 0xFF AND PUSH1 0x1 PUSH1 0xA8 SHL MUL PUSH1 0xFF PUSH1 0xA8 SHL NOT SWAP5 ISZERO ISZERO PUSH1 0x1 PUSH1 0xA0 SHL MUL PUSH1 0x1 PUSH1 0x1 PUSH1 0xA8 SHL SUB NOT SWAP1 SWAP3 AND PUSH1 0x1 PUSH1 0x1 PUSH1 0xA0 SHL SUB SWAP1 SWAP5 AND SWAP4 SWAP1 SWAP4 OR OR SWAP3 SWAP1 SWAP3 AND OR SWAP1 SSTORE POP PUSH3 0x424 SWAP3 POP POP POP JUMP JUMPDEST PUSH1 0x0 DUP1 SLOAD PUSH1 0x1 PUSH1 0x1 PUSH1 0xA0 SHL SUB DUP4 DUP2 AND PUSH1 0x1 PUSH1 0x1 PUSH1 0xA0 SHL SUB NOT DUP4 AND DUP2 OR DUP5 SSTORE PUSH1 0x40 MLOAD SWAP2 SWAP1 SWAP3 AND SWAP3 DUP4 SWAP2 PUSH32 0x8BE0079C531659141344CD1FD0A4F28419497F9722A3DAAFE3B4186F6B6457E0 SWAP2 SWAP1 LOG3 POP POP JUMP JUMPDEST PUSH4 0x4E487B71 PUSH1 0xE0 SHL PUSH1 0x0 MSTORE PUSH1 0x41 PUSH1 0x4 MSTORE PUSH1 0x24 PUSH1 0x0 REVERT JUMPDEST DUP1 MLOAD PUSH1 0x1 PUSH1 0x1 PUSH1 0xA0 SHL SUB DUP2 AND DUP2 EQ PUSH3 0x192 JUMPI PUSH1 0x0 DUP1 REVERT JUMPDEST SWAP2 SWAP1 POP JUMP JUMPDEST DUP1 MLOAD DUP1 ISZERO ISZERO DUP2 EQ PUSH3 0x192 JUMPI PUSH1 0x0 DUP1 REVERT JUMPDEST DUP1 MLOAD PUSH1 0xFF DUP2 AND DUP2 EQ PUSH3 0x192 JUMPI PUSH1 0x0 DUP1 REVERT JUMPDEST PUSH1 0x0 DUP1 PUSH1 0x0 DUP1 PUSH1 0x80 DUP6 DUP8 SUB SLT ISZERO PUSH3 0x1D1 JUMPI PUSH1 0x0 DUP1 REVERT JUMPDEST DUP5 MLOAD PUSH1 0x1 PUSH1 0x1 PUSH1 0x40 SHL SUB DUP1 DUP3 GT ISZERO PUSH3 0x1E9 JUMPI PUSH1 0x0 DUP1 REVERT JUMPDEST DUP2 DUP8 ADD SWAP2 POP DUP8 PUSH1 0x1F DUP4 ADD SLT PUSH3 0x1FE JUMPI PUSH1 0x0 DUP1 REVERT JUMPDEST DUP2 MLOAD DUP2 DUP2 GT ISZERO PUSH3 0x213 JUMPI PUSH3 0x213 PUSH3 0x164 JUMP JUMPDEST PUSH1 0x40 MLOAD PUSH1 0x1F DUP3 ADD PUSH1 0x1F NOT SWAP1 DUP2 AND PUSH1 0x3F ADD AND DUP2 ADD SWAP1 DUP4 DUP3 GT DUP2 DUP4 LT OR ISZERO PUSH3 0x23E JUMPI PUSH3 0x23E PUSH3 0x164 JUMP JUMPDEST DUP2 PUSH1 0x40 MSTORE DUP3 DUP2 MSTORE PUSH1 0x20 SWAP4 POP DUP11 DUP5 DUP5 DUP8 ADD ADD GT ISZERO PUSH3 0x25B JUMPI PUSH1 0x0 DUP1 REVERT JUMPDEST PUSH1 0x0 SWAP2 POP JUMPDEST DUP3 DUP3 LT ISZERO PUSH3 0x27F JUMPI DUP5 DUP3 ADD DUP5 ADD MLOAD DUP2 DUP4 ADD DUP6 ADD MSTORE SWAP1 DUP4 ADD SWAP1 PUSH3 0x260 JUMP JUMPDEST PUSH1 0x0 DUP5 DUP5 DUP4 ADD ADD MSTORE DUP1 SWAP9 POP POP POP POP PUSH3 0x29A DUP2 DUP9 ADD PUSH3 0x17A JUMP JUMPDEST SWAP5 POP POP POP PUSH3 0x2AC PUSH1 0x40 DUP7 ADD PUSH3 0x197 JUMP JUMPDEST SWAP2 POP PUSH3 0x2BC PUSH1 0x60 DUP7 ADD PUSH3 0x1A8 JUMP JUMPDEST SWAP1 POP SWAP3 SWAP6 SWAP2 SWAP5 POP SWAP3 POP JUMP JUMPDEST PUSH1 0x1 DUP2 DUP2 SHR SWAP1 DUP3 AND DUP1 PUSH3 0x2DC JUMPI PUSH1 0x7F DUP3 AND SWAP2 POP JUMPDEST PUSH1 0x20 DUP3 LT DUP2 SUB PUSH3 0x2FD JUMPI PUSH4 0x4E487B71 PUSH1 0xE0 SHL PUSH1 0x0 MSTORE PUSH1 0x22 PUSH1 0x4 MSTORE PUSH1 0x24 PUSH1 0x0 REVERT JUMPDEST POP SWAP2 SWAP1 POP JUMP JUMPDEST PUSH1 0x1F DUP3 GT ISZERO PUSH3 0x353 JUMPI PUSH1 0x0 DUP2 PUSH1 0x0 MSTORE PUSH1 0x20 PUSH1 0x0 KECCAK256 PUSH1 0x1F DUP6 ADD PUSH1 0x5 SHR DUP2 ADD PUSH1 0x20 DUP7 LT ISZERO PUSH3 0x32E JUMPI POP DUP1 JUMPDEST PUSH1 0x1F DUP6 ADD PUSH1 0x5 SHR DUP3 ADD SWAP2 POP JUMPDEST DUP2 DUP2 LT ISZERO PUSH3 0x34F JUMPI DUP3 DUP2 SSTORE PUSH1 0x1 ADD PUSH3 0x33A JUMP JUMPDEST POP POP POP JUMPDEST POP POP POP JUMP JUMPDEST DUP2 MLOAD PUSH1 0x1 PUSH1 0x1 PUSH1 0x40 SHL SUB DUP2 GT ISZERO PUSH3 0x374 JUMPI PUSH3 0x374 PUSH3 0x164 JUMP JUMPDEST PUSH3 0x38C DUP2 PUSH3 0x385 DUP5 SLOAD PUSH3 0x2C7 JUMP JUMPDEST DUP5 PUSH3 0x303 JUMP JUMPDEST PUSH1 0x20 DUP1 PUSH1 0x1F DUP4 GT PUSH1 0x1 DUP2 EQ PUSH3 0x3C4 JUMPI PUSH1 0x0 DUP5 ISZERO PUSH3 0x3AB JUMPI POP DUP6 DUP4 ADD MLOAD JUMPDEST PUSH1 0x0 NOT PUSH1 0x3 DUP7 SWAP1 SHL SHR NOT AND PUSH1 0x1 DUP6 SWAP1 SHL OR DUP6 SSTORE PUSH3 0x34F JUMP JUMPDEST PUSH1 0x0 DUP6 DUP2 MSTORE PUSH1 0x20 DUP2 KECCAK256 PUSH1 0x1F NOT DUP7 AND SWAP2 JUMPDEST DUP3 DUP2 LT ISZERO PUSH3 0x3F5 JUMPI DUP9 DUP7 ADD MLOAD DUP3 SSTORE SWAP5 DUP5 ADD SWAP5 PUSH1 0x1 SWAP1 SWAP2 ADD SWAP1 DUP5 ADD PUSH3 0x3D4 JUMP JUMPDEST POP DUP6 DUP3 LT ISZERO PUSH3 0x414 JUMPI DUP8 DUP6 ADD MLOAD PUSH1 0x0 NOT PUSH1 0x3 DUP9 SWAP1 SHL PUSH1 0xF8 AND SHR NOT AND DUP2 SSTORE JUMPDEST POP POP POP POP POP PUSH1 0x1 SWAP1 DUP2 SHL ADD SWAP1 SSTORE POP JUMP JUMPDEST PUSH2 0x1D29 DUP1 PUSH3 0x434 PUSH1 0x0 CODECOPY PUSH1 0x0 RETURN INVALID PUSH1 0x80 PUSH1 0x40 MSTORE CALLVALUE DUP1 ISZERO PUSH2 0x10 JUMPI PUSH1 0x0 DUP1 REVERT JUMPDEST POP PUSH1 0x4 CALLDATASIZE LT PUSH2 0xEA JUMPI PUSH1 0x0 CALLDATALOAD PUSH1 0xE0 SHR DUP1 PUSH4 0x73D4A13A GT PUSH2 0x8C JUMPI DUP1 PUSH4 0x8DA5CB5B GT PUSH2 0x66 JUMPI DUP1 PUSH4 0x8DA5CB5B EQ PUSH2 0x1CD JUMPI DUP1 PUSH4 0xDA9581B6 EQ PUSH2 0x1E8 JUMPI DUP1 PUSH4 0xE86613A7 EQ PUSH2 0x1FB JUMPI DUP1 PUSH4 0xF2FDE38B EQ PUSH2 0x21B JUMPI PUSH1 0x0 DUP1 REVERT JUMPDEST DUP1 PUSH4 0x73D4A13A EQ PUSH2 0x19A JUMPI DUP1 PUSH4 0x76078DBE EQ PUSH2 0x1B2 JUMPI DUP1 PUSH4 0x852D58BA EQ PUSH2 0x1C5 JUMPI PUSH1 0x0 DUP1 REVERT JUMPDEST DUP1 PUSH4 0x48FAADE4 GT PUSH2 0xC8 JUMPI DUP1 PUSH4 0x48FAADE4 EQ PUSH2 0x14B JUMPI DUP1 PUSH4 0x497AEF28 EQ PUSH2 0x154 JUMPI DUP1 PUSH4 0x5C975ABB EQ PUSH2 0x174 JUMPI DUP1 PUSH4 0x715018A6 EQ PUSH2 0x192 JUMPI PUSH1 0x0 DUP1 REVERT JUMPDEST DUP1 PUSH4 0x1DEAC2C EQ PUSH2 0xEF JUMPI DUP1 PUSH4 0x1D6A4581 EQ PUSH2 0x12D JUMPI DUP1 PUSH4 0x2761F329 EQ PUSH2 0x136 JUMPI JUMPDEST PUSH1 0x0 DUP1 REVERT JUMPDEST PUSH2 0x11A PUSH2 0xFD CALLDATASIZE PUSH1 0x4 PUSH2 0x16B1 JUMP JUMPDEST DUP1 MLOAD PUSH1 0x20 DUP2 DUP4 ADD DUP2 ADD DUP1 MLOAD PUSH1 0x9 DUP3 MSTORE SWAP3 DUP3 ADD SWAP2 SWAP1 SWAP4 ADD KECCAK256 SWAP2 MSTORE SLOAD DUP2 JUMP JUMPDEST PUSH1 0x40 MLOAD SWAP1 DUP2 MSTORE PUSH1 0x20 ADD JUMPDEST PUSH1 0x40 MLOAD DUP1 SWAP2 SUB SWAP1 RETURN JUMPDEST PUSH2 0x11A PUSH1 0x5 SLOAD DUP2 JUMP JUMPDEST PUSH2 0x149 PUSH2 0x144 CALLDATASIZE PUSH1 0x4 PUSH2 0x173A JUMP JUMPDEST PUSH2 0x22E JUMP JUMPDEST STOP JUMPDEST PUSH2 0x11A PUSH1 0x4 SLOAD DUP2 JUMP JUMPDEST PUSH2 0x11A PUSH2 0x162 CALLDATASIZE PUSH1 0x4 PUSH2 0x17F3 JUMP JUMPDEST PUSH1 0x6 PUSH1 0x20 MSTORE PUSH1 0x0 SWAP1 DUP2 MSTORE PUSH1 0x40 SWAP1 KECCAK256 SLOAD DUP2 JUMP JUMPDEST PUSH1 0x0 SLOAD PUSH1 0x1 PUSH1 0xA0 SHL SWAP1 DIV PUSH1 0xFF AND JUMPDEST PUSH1 0x40 MLOAD SWAP1 ISZERO ISZERO DUP2 MSTORE PUSH1 0x20 ADD PUSH2 0x124 JUMP JUMPDEST PUSH2 0x149 PUSH2 0x5A6 JUMP JUMPDEST PUSH2 0x1A2 PUSH2 0x5BA JUMP JUMPDEST PUSH1 0x40 MLOAD PUSH2 0x124 SWAP5 SWAP4 SWAP3 SWAP2 SWAP1 PUSH2 0x1860 JUMP JUMPDEST PUSH2 0x182 PUSH2 0x1C0 CALLDATASIZE PUSH1 0x4 PUSH2 0x189B JUMP JUMPDEST PUSH2 0x671 JUMP JUMPDEST PUSH2 0x11A PUSH2 0x76F JUMP JUMPDEST PUSH1 0x0 SLOAD PUSH1 0x40 MLOAD PUSH1 0x1 PUSH1 0x1 PUSH1 0xA0 SHL SUB SWAP1 SWAP2 AND DUP2 MSTORE PUSH1 0x20 ADD PUSH2 0x124 JUMP JUMPDEST PUSH2 0x149 PUSH2 0x1F6 CALLDATASIZE PUSH1 0x4 PUSH2 0x18F7 JUMP JUMPDEST PUSH2 0x8AB JUMP JUMPDEST PUSH2 0x20E PUSH2 0x209 CALLDATASIZE PUSH1 0x4 PUSH2 0x193E JUMP JUMPDEST PUSH2 0xB3E JUMP JUMPDEST PUSH1 0x40 MLOAD PUSH2 0x124 SWAP2 SWAP1 PUSH2 0x1957 JUMP JUMPDEST PUSH2 0x149 PUSH2 0x229 CALLDATASIZE PUSH1 0x4 PUSH2 0x17F3 JUMP JUMPDEST PUSH2 0xBEA JUMP JUMPDEST PUSH1 0x3 SLOAD PUSH1 0x40 DUP1 MLOAD PUSH4 0x6754A1F7 PUSH1 0xE1 SHL DUP2 MSTORE SWAP1 MLOAD PUSH1 0x0 SWAP3 PUSH1 0x1 PUSH1 0x1 PUSH1 0xA0 SHL SUB AND SWAP2 PUSH4 0xCEA943EE SWAP2 PUSH1 0x4 DUP1 DUP4 ADD SWAP3 PUSH1 0xE0 SWAP3 SWAP2 SWAP1 DUP3 SWAP1 SUB ADD DUP2 DUP7 GAS STATICCALL ISZERO DUP1 ISZERO PUSH2 0x278 JUMPI RETURNDATASIZE PUSH1 0x0 DUP1 RETURNDATACOPY RETURNDATASIZE PUSH1 0x0 REVERT JUMPDEST POP POP POP POP PUSH1 0x40 MLOAD RETURNDATASIZE PUSH1 0x1F NOT PUSH1 0x1F DUP3 ADD AND DUP3 ADD DUP1 PUSH1 0x40 MSTORE POP DUP2 ADD SWAP1 PUSH2 0x29C SWAP2 SWAP1 PUSH2 0x1987 JUMP JUMPDEST PUSH1 0x3 SLOAD SWAP1 SWAP2 POP PUSH1 0x1 PUSH1 0xA0 SHL SWAP1 DIV PUSH1 0xFF AND ISZERO PUSH2 0x358 JUMPI TIMESTAMP DUP2 PUSH1 0x60 ADD MLOAD PUSH8 0xFFFFFFFFFFFFFFFF AND GT ISZERO PUSH2 0x309 JUMPI PUSH1 0x40 MLOAD PUSH3 0x461BCD PUSH1 0xE5 SHL DUP2 MSTORE PUSH1 0x20 PUSH1 0x4 DUP3 ADD MSTORE PUSH1 0x12 PUSH1 0x24 DUP3 ADD MSTORE PUSH18 0x39B0B632903430B9903737BA103132B3BAB7 PUSH1 0x71 SHL PUSH1 0x44 DUP3 ADD MSTORE PUSH1 0x64 ADD JUMPDEST PUSH1 0x40 MLOAD DUP1 SWAP2 SUB SWAP1 REVERT JUMPDEST DUP1 PUSH1 0x80 ADD MLOAD PUSH8 0xFFFFFFFFFFFFFFFF AND TIMESTAMP GT ISZERO PUSH2 0x353 JUMPI PUSH1 0x40 MLOAD PUSH3 0x461BCD PUSH1 0xE5 SHL DUP2 MSTORE PUSH1 0x20 PUSH1 0x4 DUP3 ADD MSTORE PUSH1 0x9 PUSH1 0x24 DUP3 ADD MSTORE PUSH9 0x39B0B6329037BB32B9 PUSH1 0xB9 SHL PUSH1 0x44 DUP3 ADD MSTORE PUSH1 0x64 ADD PUSH2 0x300 JUMP JUMPDEST PUSH2 0x3F5 JUMP JUMPDEST TIMESTAMP DUP2 PUSH1 0xA0 ADD MLOAD PUSH8 0xFFFFFFFFFFFFFFFF AND GT ISZERO PUSH2 0x3AB JUMPI PUSH1 0x40 MLOAD PUSH3 0x461BCD PUSH1 0xE5 SHL DUP2 MSTORE PUSH1 0x20 PUSH1 0x4 DUP3 ADD MSTORE PUSH1 0x12 PUSH1 0x24 DUP3 ADD MSTORE PUSH18 0x39B0B632903430B9903737BA103132B3BAB7 PUSH1 0x71 SHL PUSH1 0x44 DUP3 ADD MSTORE PUSH1 0x64 ADD PUSH2 0x300 JUMP JUMPDEST DUP1 PUSH1 0xC0 ADD MLOAD PUSH8 0xFFFFFFFFFFFFFFFF AND TIMESTAMP GT ISZERO PUSH2 0x3F5 JUMPI PUSH1 0x40 MLOAD PUSH3 0x461BCD PUSH1 0xE5 SHL DUP2 MSTORE PUSH1 0x20 PUSH1 0x4 DUP3 ADD MSTORE PUSH1 0x9 PUSH1 0x24 DUP3 ADD MSTORE PUSH9 0x39B0B6329037BB32B9 PUSH1 0xB9 SHL PUSH1 0x44 DUP3 ADD MSTORE PUSH1 0x64 ADD PUSH2 0x300 JUMP JUMPDEST PUSH1 0x3 SLOAD PUSH1 0x40 MLOAD PUSH4 0xDA2F8E7D PUSH1 0xE0 SHL DUP2 MSTORE PUSH1 0x1 PUSH1 0xA8 SHL DUP3 DIV PUSH1 0xFF AND PUSH1 0x4 DUP3 ADD MSTORE PUSH1 0x1 PUSH1 0x1 PUSH1 0xA0 SHL SUB SWAP1 SWAP2 AND SWAP1 PUSH4 0xDA2F8E7D SWAP1 PUSH1 0x24 ADD PUSH1 0x20 PUSH1 0x40 MLOAD DUP1 DUP4 SUB DUP2 DUP7 GAS STATICCALL ISZERO DUP1 ISZERO PUSH2 0x446 JUMPI RETURNDATASIZE PUSH1 0x0 DUP1 RETURNDATACOPY RETURNDATASIZE PUSH1 0x0 REVERT JUMPDEST POP POP POP POP PUSH1 0x40 MLOAD RETURNDATASIZE PUSH1 0x1F NOT PUSH1 0x1F DUP3 ADD AND DUP3 ADD DUP1 PUSH1 0x40 MSTORE POP DUP2 ADD SWAP1 PUSH2 0x46A SWAP2 SWAP1 PUSH2 0x1A34 JUMP JUMPDEST PUSH1 0x0 SUB PUSH2 0x4B9 JUMPI PUSH1 0x40 MLOAD PUSH3 0x461BCD PUSH1 0xE5 SHL DUP2 MSTORE PUSH1 0x20 PUSH1 0x4 DUP3 ADD MSTORE PUSH1 0x14 PUSH1 0x24 DUP3 ADD MSTORE PUSH32 0x666F72207075626C69632073616C65206F6E6C79000000000000000000000000 PUSH1 0x44 DUP3 ADD MSTORE PUSH1 0x64 ADD PUSH2 0x300 JUMP JUMPDEST DUP4 PUSH2 0x506 JUMPI PUSH1 0x40 MLOAD PUSH3 0x461BCD PUSH1 0xE5 SHL DUP2 MSTORE PUSH1 0x20 PUSH1 0x4 DUP3 ADD MSTORE PUSH1 0xE PUSH1 0x24 DUP3 ADD MSTORE PUSH32 0x696E76616C69642070726F6F6673000000000000000000000000000000000000 PUSH1 0x44 DUP3 ADD MSTORE PUSH1 0x64 ADD PUSH2 0x300 JUMP JUMPDEST PUSH2 0x512 CALLER DUP7 DUP7 DUP10 PUSH2 0x671 JUMP JUMPDEST PUSH2 0x55E JUMPI PUSH1 0x40 MLOAD PUSH3 0x461BCD PUSH1 0xE5 SHL DUP2 MSTORE PUSH1 0x20 PUSH1 0x4 DUP3 ADD MSTORE PUSH1 0xD PUSH1 0x24 DUP3 ADD MSTORE PUSH32 0x70726F6F6620696E76616C696400000000000000000000000000000000000000 PUSH1 0x44 DUP3 ADD MSTORE PUSH1 0x64 ADD PUSH2 0x300 JUMP JUMPDEST PUSH2 0x59E DUP7 DUP5 DUP5 DUP1 DUP1 PUSH1 0x1F ADD PUSH1 0x20 DUP1 SWAP2 DIV MUL PUSH1 0x20 ADD PUSH1 0x40 MLOAD SWAP1 DUP2 ADD PUSH1 0x40 MSTORE DUP1 SWAP4 SWAP3 SWAP2 SWAP1 DUP2 DUP2 MSTORE PUSH1 0x20 ADD DUP4 DUP4 DUP1 DUP3 DUP5 CALLDATACOPY PUSH1 0x0 SWAP3 ADD SWAP2 SWAP1 SWAP2 MSTORE POP PUSH2 0xC41 SWAP3 POP POP POP JUMP JUMPDEST POP POP POP POP POP POP JUMP JUMPDEST PUSH2 0x5AE PUSH2 0x144C JUMP JUMPDEST PUSH2 0x5B8 PUSH1 0x0 PUSH2 0x1492 JUMP JUMPDEST JUMP JUMPDEST PUSH1 0x2 DUP1 SLOAD DUP2 SWAP1 PUSH2 0x5C9 SWAP1 PUSH2 0x1A4D JUMP JUMPDEST DUP1 PUSH1 0x1F ADD PUSH1 0x20 DUP1 SWAP2 DIV MUL PUSH1 0x20 ADD PUSH1 0x40 MLOAD SWAP1 DUP2 ADD PUSH1 0x40 MSTORE DUP1 SWAP3 SWAP2 SWAP1 DUP2 DUP2 MSTORE PUSH1 0x20 ADD DUP3 DUP1 SLOAD PUSH2 0x5F5 SWAP1 PUSH2 0x1A4D JUMP JUMPDEST DUP1 ISZERO PUSH2 0x642 JUMPI DUP1 PUSH1 0x1F LT PUSH2 0x617 JUMPI PUSH2 0x100 DUP1 DUP4 SLOAD DIV MUL DUP4 MSTORE SWAP2 PUSH1 0x20 ADD SWAP2 PUSH2 0x642 JUMP JUMPDEST DUP3 ADD SWAP2 SWAP1 PUSH1 0x0 MSTORE PUSH1 0x20 PUSH1 0x0 KECCAK256 SWAP1 JUMPDEST DUP2 SLOAD DUP2 MSTORE SWAP1 PUSH1 0x1 ADD SWAP1 PUSH1 0x20 ADD DUP1 DUP4 GT PUSH2 0x625 JUMPI DUP3 SWAP1 SUB PUSH1 0x1F AND DUP3 ADD SWAP2 JUMPDEST POP POP POP PUSH1 0x1 SWAP1 SWAP4 ADD SLOAD SWAP2 SWAP3 POP POP PUSH1 0x1 PUSH1 0x1 PUSH1 0xA0 SHL SUB DUP2 AND SWAP1 PUSH1 0xFF PUSH1 0x1 PUSH1 0xA0 SHL DUP3 DIV DUP2 AND SWAP2 PUSH1 0x1 PUSH1 0xA8 SHL SWAP1 DIV AND DUP5 JUMP JUMPDEST PUSH1 0x40 MLOAD PUSH12 0xFFFFFFFFFFFFFFFFFFFFFFFF NOT PUSH1 0x60 DUP7 SWAP1 SHL AND PUSH1 0x20 DUP3 ADD MSTORE PUSH1 0x34 DUP2 ADD DUP3 SWAP1 MSTORE PUSH1 0x0 SWAP1 DUP2 SWAP1 PUSH1 0x54 ADD PUSH1 0x40 MLOAD PUSH1 0x20 DUP2 DUP4 SUB SUB DUP2 MSTORE SWAP1 PUSH1 0x40 MSTORE DUP1 MLOAD SWAP1 PUSH1 0x20 ADD KECCAK256 SWAP1 POP PUSH2 0x765 DUP6 DUP6 DUP1 DUP1 PUSH1 0x20 MUL PUSH1 0x20 ADD PUSH1 0x40 MLOAD SWAP1 DUP2 ADD PUSH1 0x40 MSTORE DUP1 SWAP4 SWAP3 SWAP2 SWAP1 DUP2 DUP2 MSTORE PUSH1 0x20 ADD DUP4 DUP4 PUSH1 0x20 MUL DUP1 DUP3 DUP5 CALLDATACOPY PUSH1 0x0 SWAP3 ADD SWAP2 SWAP1 SWAP2 MSTORE POP POP PUSH1 0x3 SLOAD PUSH1 0x40 MLOAD PUSH4 0xDA2F8E7D PUSH1 0xE0 SHL DUP2 MSTORE PUSH1 0x1 PUSH1 0xA8 SHL DUP3 DIV PUSH1 0xFF AND PUSH1 0x4 DUP3 ADD MSTORE PUSH1 0x1 PUSH1 0x1 PUSH1 0xA0 SHL SUB SWAP1 SWAP2 AND SWAP3 POP PUSH4 0xDA2F8E7D SWAP2 POP PUSH1 0x24 ADD PUSH1 0x20 PUSH1 0x40 MLOAD DUP1 DUP4 SUB DUP2 DUP7 GAS STATICCALL ISZERO DUP1 ISZERO PUSH2 0x73B JUMPI RETURNDATASIZE PUSH1 0x0 DUP1 RETURNDATACOPY RETURNDATASIZE PUSH1 0x0 REVERT JUMPDEST POP POP POP POP PUSH1 0x40 MLOAD RETURNDATASIZE PUSH1 0x1F NOT PUSH1 0x1F DUP3 ADD AND DUP3 ADD DUP1 PUSH1 0x40 MSTORE POP DUP2 ADD SWAP1 PUSH2 0x75F SWAP2 SWAP1 PUSH2 0x1A34 JUMP JUMPDEST DUP4 PUSH2 0x14FA JUMP JUMPDEST SWAP7 SWAP6 POP POP POP POP POP POP JUMP JUMPDEST PUSH1 0x3 SLOAD PUSH1 0x40 MLOAD PUSH4 0x65DF182B PUSH1 0xE0 SHL DUP2 MSTORE PUSH1 0xFF PUSH1 0x1 PUSH1 0xA0 SHL DUP4 DIV DUP2 AND ISZERO ISZERO PUSH1 0x4 DUP4 ADD MSTORE PUSH1 0x1 PUSH1 0xA8 SHL DUP4 DIV AND PUSH1 0x24 DUP3 ADD MSTORE PUSH1 0x0 SWAP2 PUSH1 0x1 PUSH1 0x1 PUSH1 0xA0 SHL SUB AND SWAP1 DUP3 SWAP1 DUP3 SWAP1 PUSH4 0x65DF182B SWAP1 PUSH1 0x44 ADD PUSH1 0x60 PUSH1 0x40 MLOAD DUP1 DUP4 SUB DUP2 DUP7 GAS STATICCALL ISZERO DUP1 ISZERO PUSH2 0x7D5 JUMPI RETURNDATASIZE PUSH1 0x0 DUP1 RETURNDATACOPY RETURNDATASIZE PUSH1 0x0 REVERT JUMPDEST POP POP POP POP PUSH1 0x40 MLOAD RETURNDATASIZE PUSH1 0x1F NOT PUSH1 0x1F DUP3 ADD AND DUP3 ADD DUP1 PUSH1 0x40 MSTORE POP DUP2 ADD SWAP1 PUSH2 0x7F9 SWAP2 SWAP1 PUSH2 0x1A99 JUMP JUMPDEST SWAP1 POP PUSH1 0x0 DUP3 PUSH1 0x1 PUSH1 0x1 PUSH1 0xA0 SHL SUB AND PUSH4 0xCEA943EE PUSH1 0x40 MLOAD DUP2 PUSH4 0xFFFFFFFF AND PUSH1 0xE0 SHL DUP2 MSTORE PUSH1 0x4 ADD PUSH1 0xE0 PUSH1 0x40 MLOAD DUP1 DUP4 SUB DUP2 DUP7 GAS STATICCALL ISZERO DUP1 ISZERO PUSH2 0x83B JUMPI RETURNDATASIZE PUSH1 0x0 DUP1 RETURNDATACOPY RETURNDATASIZE PUSH1 0x0 REVERT JUMPDEST POP POP POP POP PUSH1 0x40 MLOAD RETURNDATASIZE PUSH1 0x1F NOT PUSH1 0x1F DUP3 ADD AND DUP3 ADD DUP1 PUSH1 0x40 MSTORE POP DUP2 ADD SWAP1 PUSH2 0x85F SWAP2 SWAP1 PUSH2 0x1987 JUMP JUMPDEST PUSH1 0x40 ADD MLOAD DUP3 MLOAD PUSH2 0x881 SWAP2 SWAP1 PUSH16 0xFFFFFFFFFFFFFFFFFFFFFFFFFFFFFFFF AND PUSH2 0x1B32 JUMP JUMPDEST SWAP1 POP DUP1 PUSH1 0x0 SUB PUSH2 0x895 JUMPI PUSH1 0x0 SWAP4 POP POP POP POP SWAP1 JUMP JUMPDEST DUP1 PUSH1 0x4 SLOAD PUSH2 0x8A3 SWAP2 SWAP1 PUSH2 0x1B32 JUMP JUMPDEST SWAP4 POP POP POP POP SWAP1 JUMP JUMPDEST PUSH1 0x3 SLOAD PUSH1 0x40 DUP1 MLOAD PUSH4 0x6754A1F7 PUSH1 0xE1 SHL DUP2 MSTORE SWAP1 MLOAD PUSH1 0x0 SWAP3 PUSH1 0x1 PUSH1 0x1 PUSH1 0xA0 SHL SUB AND SWAP2 PUSH4 0xCEA943EE SWAP2 PUSH1 0x4 DUP1 DUP4 ADD SWAP3 PUSH1 0xE0 SWAP3 SWAP2 SWAP1 DUP3 SWAP1 SUB ADD DUP2 DUP7 GAS STATICCALL ISZERO DUP1 ISZERO PUSH2 0x8F5 JUMPI RETURNDATASIZE PUSH1 0x0 DUP1 RETURNDATACOPY RETURNDATASIZE PUSH1 0x0 REVERT JUMPDEST POP POP POP POP PUSH1 0x40 MLOAD RETURNDATASIZE PUSH1 0x1F NOT PUSH1 0x1F DUP3 ADD AND DUP3 ADD DUP1 PUSH1 0x40 MSTORE POP DUP2 ADD SWAP1 PUSH2 0x919 SWAP2 SWAP1 PUSH2 0x1987 JUMP JUMPDEST PUSH1 0x3 SLOAD SWAP1 SWAP2 POP PUSH1 0x1 PUSH1 0xA0 SHL SWAP1 DIV PUSH1 0xFF AND ISZERO PUSH2 0x9D0 JUMPI TIMESTAMP DUP2 PUSH1 0x60 ADD MLOAD PUSH8 0xFFFFFFFFFFFFFFFF AND GT ISZERO PUSH2 0x981 JUMPI PUSH1 0x40 MLOAD PUSH3 0x461BCD PUSH1 0xE5 SHL DUP2 MSTORE PUSH1 0x20 PUSH1 0x4 DUP3 ADD MSTORE PUSH1 0x12 PUSH1 0x24 DUP3 ADD MSTORE PUSH18 0x39B0B632903430B9903737BA103132B3BAB7 PUSH1 0x71 SHL PUSH1 0x44 DUP3 ADD MSTORE PUSH1 0x64 ADD PUSH2 0x300 JUMP JUMPDEST DUP1 PUSH1 0x80 ADD MLOAD PUSH8 0xFFFFFFFFFFFFFFFF AND TIMESTAMP GT ISZERO PUSH2 0x9CB JUMPI PUSH1 0x40 MLOAD PUSH3 0x461BCD PUSH1 0xE5 SHL DUP2 MSTORE PUSH1 0x20 PUSH1 0x4 DUP3 ADD MSTORE PUSH1 0x9 PUSH1 0x24 DUP3 ADD MSTORE PUSH9 0x39B0B6329037BB32B9 PUSH1 0xB9 SHL PUSH1 0x44 DUP3 ADD MSTORE PUSH1 0x64 ADD PUSH2 0x300 JUMP JUMPDEST PUSH2 0xA6D JUMP JUMPDEST TIMESTAMP DUP2 PUSH1 0xA0 ADD MLOAD PUSH8 0xFFFFFFFFFFFFFFFF AND GT ISZERO PUSH2 0xA23 JUMPI PUSH1 0x40 MLOAD PUSH3 0x461BCD PUSH1 0xE5 SHL DUP2 MSTORE PUSH1 0x20 PUSH1 0x4 DUP3 ADD MSTORE PUSH1 0x12 PUSH1 0x24 DUP3 ADD MSTORE PUSH18 0x39B0B632903430B9903737BA103132B3BAB7 PUSH1 0x71 SHL PUSH1 0x44 DUP3 ADD MSTORE PUSH1 0x64 ADD PUSH2 0x300 JUMP JUMPDEST DUP1 PUSH1 0xC0 ADD MLOAD PUSH8 0xFFFFFFFFFFFFFFFF AND TIMESTAMP GT ISZERO PUSH2 0xA6D JUMPI PUSH1 0x40 MLOAD PUSH3 0x461BCD PUSH1 0xE5 SHL DUP2 MSTORE PUSH1 0x20 PUSH1 0x4 DUP3 ADD MSTORE PUSH1 0x9 PUSH1 0x24 DUP3 ADD MSTORE PUSH9 0x39B0B6329037BB32B9 PUSH1 0xB9 SHL PUSH1 0x44 DUP3 ADD MSTORE PUSH1 0x64 ADD PUSH2 0x300 JUMP JUMPDEST PUSH1 0x3 SLOAD PUSH1 0x40 MLOAD PUSH4 0xDA2F8E7D PUSH1 0xE0 SHL DUP2 MSTORE PUSH1 0x1 PUSH1 0xA8 SHL DUP3 DIV PUSH1 0xFF AND PUSH1 0x4 DUP3 ADD MSTORE PUSH1 0x1 PUSH1 0x1 PUSH1 0xA0 SHL SUB SWAP1 SWAP2 AND SWAP1 PUSH4 0xDA2F8E7D SWAP1 PUSH1 0x24 ADD PUSH1 0x20 PUSH1 0x40 MLOAD DUP1 DUP4 SUB DUP2 DUP7 GAS STATICCALL ISZERO DUP1 ISZERO PUSH2 0xABE JUMPI RETURNDATASIZE PUSH1 0x0 DUP1 RETURNDATACOPY RETURNDATASIZE PUSH1 0x0 REVERT JUMPDEST POP POP POP POP PUSH1 0x40 MLOAD RETURNDATASIZE PUSH1 0x1F NOT PUSH1 0x1F DUP3 ADD AND DUP3 ADD DUP1 PUSH1 0x40 MSTORE POP DUP2 ADD SWAP1 PUSH2 0xAE2 SWAP2 SWAP1 PUSH2 0x1A34 JUMP JUMPDEST ISZERO PUSH2 0xB2F JUMPI PUSH1 0x40 MLOAD PUSH3 0x461BCD PUSH1 0xE5 SHL DUP2 MSTORE PUSH1 0x20 PUSH1 0x4 DUP3 ADD MSTORE PUSH1 0x14 PUSH1 0x24 DUP3 ADD MSTORE PUSH32 0x666F722077686974656C6973746564206F6E6C79000000000000000000000000 PUSH1 0x44 DUP3 ADD MSTORE PUSH1 0x64 ADD PUSH2 0x300 JUMP JUMPDEST PUSH2 0xB39 DUP4 DUP4 PUSH2 0xC41 JUMP JUMPDEST POP POP POP JUMP JUMPDEST PUSH1 0x7 DUP2 DUP2 SLOAD DUP2 LT PUSH2 0xB4E JUMPI PUSH1 0x0 DUP1 REVERT JUMPDEST SWAP1 PUSH1 0x0 MSTORE PUSH1 0x20 PUSH1 0x0 KECCAK256 ADD PUSH1 0x0 SWAP2 POP SWAP1 POP DUP1 SLOAD PUSH2 0xB69 SWAP1 PUSH2 0x1A4D JUMP JUMPDEST DUP1 PUSH1 0x1F ADD PUSH1 0x20 DUP1 SWAP2 DIV MUL PUSH1 0x20 ADD PUSH1 0x40 MLOAD SWAP1 DUP2 ADD PUSH1 0x40 MSTORE DUP1 SWAP3 SWAP2 SWAP1 DUP2 DUP2 MSTORE PUSH1 0x20 ADD DUP3 DUP1 SLOAD PUSH2 0xB95 SWAP1 PUSH2 0x1A4D JUMP JUMPDEST DUP1 ISZERO PUSH2 0xBE2 JUMPI DUP1 PUSH1 0x1F LT PUSH2 0xBB7 JUMPI PUSH2 0x100 DUP1 DUP4 SLOAD DIV MUL DUP4 MSTORE SWAP2 PUSH1 0x20 ADD SWAP2 PUSH2 0xBE2 JUMP JUMPDEST DUP3 ADD SWAP2 SWAP1 PUSH1 0x0 MSTORE PUSH1 0x20 PUSH1 0x0 KECCAK256 SWAP1 JUMPDEST DUP2 SLOAD DUP2 MSTORE SWAP1 PUSH1 0x1 ADD SWAP1 PUSH1 0x20 ADD DUP1 DUP4 GT PUSH2 0xBC5 JUMPI DUP3 SWAP1 SUB PUSH1 0x1F AND DUP3 ADD SWAP2 JUMPDEST POP POP POP POP POP DUP2 JUMP JUMPDEST PUSH2 0xBF2 PUSH2 0x144C JUMP JUMPDEST PUSH1 0x1 PUSH1 0x1 PUSH1 0xA0 SHL SUB DUP2 AND PUSH2 0xC35 JUMPI PUSH1 0x40 MLOAD PUSH32 0x1E4FBDF700000000000000000000000000000000000000000000000000000000 DUP2 MSTORE PUSH1 0x0 PUSH1 0x4 DUP3 ADD MSTORE PUSH1 0x24 ADD PUSH2 0x300 JUMP JUMPDEST PUSH2 0xC3E DUP2 PUSH2 0x1492 JUMP JUMPDEST POP JUMP JUMPDEST PUSH2 0xC49 PUSH2 0x1510 JUMP JUMPDEST PUSH2 0xC51 PUSH2 0x1553 JUMP JUMPDEST PUSH1 0x3 SLOAD PUSH1 0x40 DUP1 MLOAD PUSH4 0x6754A1F7 PUSH1 0xE1 SHL DUP2 MSTORE SWAP1 MLOAD PUSH1 0x0 SWAP3 PUSH1 0x1 PUSH1 0x1 PUSH1 0xA0 SHL SUB AND SWAP2 PUSH4 0xCEA943EE SWAP2 PUSH1 0x4 DUP1 DUP4 ADD SWAP3 PUSH1 0xE0 SWAP3 SWAP2 SWAP1 DUP3 SWAP1 SUB ADD DUP2 DUP7 GAS STATICCALL ISZERO DUP1 ISZERO PUSH2 0xC9B JUMPI RETURNDATASIZE PUSH1 0x0 DUP1 RETURNDATACOPY RETURNDATASIZE PUSH1 0x0 REVERT JUMPDEST POP POP POP POP PUSH1 0x40 MLOAD RETURNDATASIZE PUSH1 0x1F NOT PUSH1 0x1F DUP3 ADD AND DUP3 ADD DUP1 PUSH1 0x40 MSTORE POP DUP2 ADD SWAP1 PUSH2 0xCBF SWAP2 SWAP1 PUSH2 0x1987 JUMP JUMPDEST PUSH1 0x3 SLOAD SWAP1 SWAP2 POP PUSH1 0x1 PUSH1 0xA0 SHL SWAP1 DIV PUSH1 0xFF AND ISZERO PUSH2 0xD76 JUMPI TIMESTAMP DUP2 PUSH1 0x60 ADD MLOAD PUSH8 0xFFFFFFFFFFFFFFFF AND GT ISZERO PUSH2 0xD27 JUMPI PUSH1 0x40 MLOAD PUSH3 0x461BCD PUSH1 0xE5 SHL DUP2 MSTORE PUSH1 0x20 PUSH1 0x4 DUP3 ADD MSTORE PUSH1 0x12 PUSH1 0x24 DUP3 ADD MSTORE PUSH18 0x39B0B632903430B9903737BA103132B3BAB7 PUSH1 0x71 SHL PUSH1 0x44 DUP3 ADD MSTORE PUSH1 0x64 ADD PUSH2 0x300 JUMP JUMPDEST DUP1 PUSH1 0x80 ADD MLOAD PUSH8 0xFFFFFFFFFFFFFFFF AND TIMESTAMP GT ISZERO PUSH2 0xD71 JUMPI PUSH1 0x40 MLOAD PUSH3 0x461BCD PUSH1 0xE5 SHL DUP2 MSTORE PUSH1 0x20 PUSH1 0x4 DUP3 ADD MSTORE PUSH1 0x9 PUSH1 0x24 DUP3 ADD MSTORE PUSH9 0x39B0B6329037BB32B9 PUSH1 0xB9 SHL PUSH1 0x44 DUP3 ADD MSTORE PUSH1 0x64 ADD PUSH2 0x300 JUMP JUMPDEST PUSH2 0xE13 JUMP JUMPDEST TIMESTAMP DUP2 PUSH1 0xA0 ADD MLOAD PUSH8 0xFFFFFFFFFFFFFFFF AND GT ISZERO PUSH2 0xDC9 JUMPI PUSH1 0x40 MLOAD PUSH3 0x461BCD PUSH1 0xE5 SHL DUP2 MSTORE PUSH1 0x20 PUSH1 0x4 DUP3 ADD MSTORE PUSH1 0x12 PUSH1 0x24 DUP3 ADD MSTORE PUSH18 0x39B0B632903430B9903737BA103132B3BAB7 PUSH1 0x71 SHL PUSH1 0x44 DUP3 ADD MSTORE PUSH1 0x64 ADD PUSH2 0x300 JUMP JUMPDEST DUP1 PUSH1 0xC0 ADD MLOAD PUSH8 0xFFFFFFFFFFFFFFFF AND TIMESTAMP GT ISZERO PUSH2 0xE13 JUMPI PUSH1 0x40 MLOAD PUSH3 0x461BCD PUSH1 0xE5 SHL DUP2 MSTORE PUSH1 0x20 PUSH1 0x4 DUP3 ADD MSTORE PUSH1 0x9 PUSH1 0x24 DUP3 ADD MSTORE PUSH9 0x39B0B6329037BB32B9 PUSH1 0xB9 SHL PUSH1 0x44 DUP3 ADD MSTORE PUSH1 0x64 ADD PUSH2 0x300 JUMP JUMPDEST PUSH1 0x3 SLOAD PUSH1 0x40 DUP1 MLOAD PUSH4 0x6754A1F7 PUSH1 0xE1 SHL DUP2 MSTORE SWAP1 MLOAD PUSH1 0x1 PUSH1 0x1 PUSH1 0xA0 SHL SUB SWAP1 SWAP3 AND SWAP2 PUSH1 0x0 SWAP2 DUP4 SWAP2 PUSH4 0xCEA943EE SWAP2 PUSH1 0x4 DUP1 DUP3 ADD SWAP3 PUSH1 0xE0 SWAP3 SWAP1 SWAP2 SWAP1 DUP3 SWAP1 SUB ADD DUP2 DUP7 GAS STATICCALL ISZERO DUP1 ISZERO PUSH2 0xE62 JUMPI RETURNDATASIZE PUSH1 0x0 DUP1 RETURNDATACOPY RETURNDATASIZE PUSH1 0x0 REVERT JUMPDEST POP POP POP POP PUSH1 0x40 MLOAD RETURNDATASIZE PUSH1 0x1F NOT PUSH1 0x1F DUP3 ADD AND DUP3 ADD DUP1 PUSH1 0x40 MSTORE POP DUP2 ADD SWAP1 PUSH2 0xE86 SWAP2 SWAP1 PUSH2 0x1987 JUMP JUMPDEST PUSH1 0x3 SLOAD PUSH1 0x40 MLOAD PUSH4 0x65DF182B PUSH1 0xE0 SHL DUP2 MSTORE PUSH1 0xFF PUSH1 0x1 PUSH1 0xA0 SHL DUP4 DIV DUP2 AND ISZERO ISZERO PUSH1 0x4 DUP4 ADD MSTORE PUSH1 0x1 PUSH1 0xA8 SHL SWAP1 SWAP3 DIV SWAP1 SWAP2 AND PUSH1 0x24 DUP3 ADD MSTORE SWAP1 SWAP2 POP PUSH1 0x0 SWAP1 PUSH1 0x1 PUSH1 0x1 PUSH1 0xA0 SHL SUB DUP5 AND SWAP1 PUSH4 0x65DF182B SWAP1 PUSH1 0x44 ADD PUSH1 0x60 PUSH1 0x40 MLOAD DUP1 DUP4 SUB DUP2 DUP7 GAS STATICCALL ISZERO DUP1 ISZERO PUSH2 0xEEF JUMPI RETURNDATASIZE PUSH1 0x0 DUP1 RETURNDATACOPY RETURNDATASIZE PUSH1 0x0 REVERT JUMPDEST POP POP POP POP PUSH1 0x40 MLOAD RETURNDATASIZE PUSH1 0x1F NOT PUSH1 0x1F DUP3 ADD AND DUP3 ADD DUP1 PUSH1 0x40 MSTORE POP DUP2 ADD SWAP1 PUSH2 0xF13 SWAP2 SWAP1 PUSH2 0x1A99 JUMP JUMPDEST SWAP1 POP PUSH1 0x40 DUP6 MLOAD GT ISZERO PUSH2 0xF67 JUMPI PUSH1 0x40 MLOAD PUSH3 0x461BCD PUSH1 0xE5 SHL DUP2 MSTORE PUSH1 0x20 PUSH1 0x4 DUP3 ADD MSTORE PUSH1 0x10 PUSH1 0x24 DUP3 ADD MSTORE PUSH32 0x636F646520697320746F6F206C6F6E6700000000000000000000000000000000 PUSH1 0x44 DUP3 ADD MSTORE PUSH1 0x64 ADD PUSH2 0x300 JUMP JUMPDEST DUP1 MLOAD PUSH16 0xFFFFFFFFFFFFFFFFFFFFFFFFFFFFFFFF AND PUSH2 0xFC7 JUMPI PUSH1 0x40 MLOAD PUSH3 0x461BCD PUSH1 0xE5 SHL DUP2 MSTORE PUSH1 0x20 PUSH1 0x4 DUP3 ADD MSTORE PUSH1 0x12 PUSH1 0x24 DUP3 ADD MSTORE PUSH32 0x73616C65207072696365206973207A65726F0000000000000000000000000000 PUSH1 0x44 DUP3 ADD MSTORE PUSH1 0x64 ADD PUSH2 0x300 JUMP JUMPDEST PUSH1 0x0 DUP7 GT PUSH2 0x1017 JUMPI PUSH1 0x40 MLOAD PUSH3 0x461BCD PUSH1 0xE5 SHL DUP2 MSTORE PUSH1 0x20 PUSH1 0x4 DUP3 ADD MSTORE PUSH1 0x11 PUSH1 0x24 DUP3 ADD MSTORE PUSH32 0x63616E6E6F742070757263686173652030000000000000000000000000000000 PUSH1 0x44 DUP3 ADD MSTORE PUSH1 0x64 ADD PUSH2 0x300 JUMP JUMPDEST DUP1 PUSH1 0x40 ADD MLOAD PUSH2 0xFFFF AND DUP7 PUSH1 0x5 SLOAD PUSH2 0x102E SWAP2 SWAP1 PUSH2 0x1B54 JUMP JUMPDEST LT PUSH2 0x107B JUMPI PUSH1 0x40 MLOAD PUSH3 0x461BCD PUSH1 0xE5 SHL DUP2 MSTORE PUSH1 0x20 PUSH1 0x4 DUP3 ADD MSTORE PUSH1 0x8 PUSH1 0x24 DUP3 ADD MSTORE PUSH32 0x6578636365646564000000000000000000000000000000000000000000000000 PUSH1 0x44 DUP3 ADD MSTORE PUSH1 0x64 ADD PUSH2 0x300 JUMP JUMPDEST CALLER PUSH1 0x0 SWAP1 DUP2 MSTORE PUSH1 0x6 PUSH1 0x20 SWAP1 DUP2 MSTORE PUSH1 0x40 SWAP1 SWAP2 KECCAK256 SLOAD SWAP1 DUP3 ADD MLOAD PUSH2 0xFFFF AND ISZERO DUP1 PUSH2 0x10B3 JUMPI POP PUSH1 0x20 DUP3 ADD MLOAD PUSH2 0xFFFF AND PUSH2 0x10B0 DUP9 DUP4 PUSH2 0x1B54 JUMP JUMPDEST GT ISZERO JUMPDEST PUSH2 0x10FF JUMPI PUSH1 0x40 MLOAD PUSH3 0x461BCD PUSH1 0xE5 SHL DUP2 MSTORE PUSH1 0x20 PUSH1 0x4 DUP3 ADD MSTORE PUSH1 0x15 PUSH1 0x24 DUP3 ADD MSTORE PUSH32 0x6578636365646564206361702070657220757365720000000000000000000000 PUSH1 0x44 DUP3 ADD MSTORE PUSH1 0x64 ADD PUSH2 0x300 JUMP JUMPDEST PUSH1 0x40 DUP4 ADD MLOAD DUP3 MLOAD PUSH1 0x0 SWAP2 PUSH2 0x1124 SWAP2 PUSH16 0xFFFFFFFFFFFFFFFFFFFFFFFFFFFFFFFF AND PUSH2 0x1B32 JUMP JUMPDEST SWAP1 POP PUSH1 0x0 PUSH2 0x1132 DUP10 DUP4 PUSH2 0x1B67 JUMP JUMPDEST PUSH1 0x20 DUP7 ADD MLOAD PUSH1 0x40 MLOAD PUSH32 0x70A0823100000000000000000000000000000000000000000000000000000000 DUP2 MSTORE CALLER PUSH1 0x4 DUP3 ADD MSTORE SWAP2 SWAP3 POP SWAP1 DUP3 SWAP1 PUSH1 0x1 PUSH1 0x1 PUSH1 0xA0 SHL SUB DUP4 AND SWAP1 PUSH4 0x70A08231 SWAP1 PUSH1 0x24 ADD PUSH1 0x20 PUSH1 0x40 MLOAD DUP1 DUP4 SUB DUP2 DUP7 GAS STATICCALL ISZERO DUP1 ISZERO PUSH2 0x119A JUMPI RETURNDATASIZE PUSH1 0x0 DUP1 RETURNDATACOPY RETURNDATASIZE PUSH1 0x0 REVERT JUMPDEST POP POP POP POP PUSH1 0x40 MLOAD RETURNDATASIZE PUSH1 0x1F NOT PUSH1 0x1F DUP3 ADD AND DUP3 ADD DUP1 PUSH1 0x40 MSTORE POP DUP2 ADD SWAP1 PUSH2 0x11BE SWAP2 SWAP1 PUSH2 0x1A34 JUMP JUMPDEST LT ISZERO PUSH2 0x120C JUMPI PUSH1 0x40 MLOAD PUSH3 0x461BCD PUSH1 0xE5 SHL DUP2 MSTORE PUSH1 0x20 PUSH1 0x4 DUP3 ADD MSTORE PUSH1 0x12 PUSH1 0x24 DUP3 ADD MSTORE PUSH32 0x6E6F7420656E6F7567682062616C616E63650000000000000000000000000000 PUSH1 0x44 DUP3 ADD MSTORE PUSH1 0x64 ADD PUSH2 0x300 JUMP JUMPDEST DUP10 PUSH1 0x5 PUSH1 0x0 DUP3 DUP3 SLOAD PUSH2 0x121E SWAP2 SWAP1 PUSH2 0x1B54 JUMP JUMPDEST SWAP1 SWAP2 SSTORE POP POP DUP6 MLOAD PUSH1 0x40 MLOAD PUSH32 0x23B872DD00000000000000000000000000000000000000000000000000000000 DUP2 MSTORE CALLER PUSH1 0x4 DUP3 ADD MSTORE PUSH1 0x1 PUSH1 0x1 PUSH1 0xA0 SHL SUB SWAP2 DUP3 AND PUSH1 0x24 DUP3 ADD MSTORE PUSH1 0x44 DUP2 ADD DUP5 SWAP1 MSTORE SWAP1 DUP3 AND SWAP1 PUSH4 0x23B872DD SWAP1 PUSH1 0x64 ADD PUSH1 0x20 PUSH1 0x40 MLOAD DUP1 DUP4 SUB DUP2 PUSH1 0x0 DUP8 GAS CALL ISZERO DUP1 ISZERO PUSH2 0x1294 JUMPI RETURNDATASIZE PUSH1 0x0 DUP1 RETURNDATACOPY RETURNDATASIZE PUSH1 0x0 REVERT JUMPDEST POP POP POP POP PUSH1 0x40 MLOAD RETURNDATASIZE PUSH1 0x1F NOT PUSH1 0x1F DUP3 ADD AND DUP3 ADD DUP1 PUSH1 0x40 MSTORE POP DUP2 ADD SWAP1 PUSH2 0x12B8 SWAP2 SWAP1 PUSH2 0x1B7E JUMP JUMPDEST POP DUP2 PUSH1 0x4 PUSH1 0x0 DUP3 DUP3 SLOAD PUSH2 0x12CB SWAP2 SWAP1 PUSH2 0x1B54 JUMP JUMPDEST SWAP1 SWAP2 SSTORE POP PUSH2 0x12DB SWAP1 POP DUP11 DUP6 PUSH2 0x1B54 JUMP JUMPDEST CALLER PUSH1 0x0 DUP2 DUP2 MSTORE PUSH1 0x6 PUSH1 0x20 MSTORE PUSH1 0x40 SWAP1 DUP2 SWAP1 KECCAK256 SWAP3 SWAP1 SWAP3 SSTORE SWAP1 MLOAD PUSH32 0x2499A5330AB0979CC612135E7883EBC3CD5C9F7A8508F042540C34723348F632 SWAP1 PUSH2 0x1321 SWAP1 DUP8 DUP2 MSTORE PUSH1 0x20 ADD SWAP1 JUMP JUMPDEST PUSH1 0x40 MLOAD DUP1 SWAP2 SUB SWAP1 LOG2 DUP9 MLOAD ISZERO PUSH2 0x1437 JUMPI PUSH1 0x8 DUP10 PUSH1 0x40 MLOAD PUSH2 0x1340 SWAP2 SWAP1 PUSH2 0x1BA0 JUMP JUMPDEST SWAP1 DUP2 MSTORE PUSH1 0x40 MLOAD SWAP1 DUP2 SWAP1 SUB PUSH1 0x20 ADD SWAP1 KECCAK256 SLOAD PUSH1 0xFF AND PUSH2 0x13C7 JUMPI PUSH1 0x1 PUSH1 0x8 DUP11 PUSH1 0x40 MLOAD PUSH2 0x1369 SWAP2 SWAP1 PUSH2 0x1BA0 JUMP JUMPDEST SWAP1 DUP2 MSTORE PUSH1 0x40 MLOAD SWAP1 DUP2 SWAP1 SUB PUSH1 0x20 ADD SWAP1 KECCAK256 DUP1 SLOAD SWAP2 ISZERO ISZERO PUSH1 0xFF NOT SWAP1 SWAP3 AND SWAP2 SWAP1 SWAP2 OR SWAP1 SSTORE PUSH1 0x7 DUP1 SLOAD PUSH1 0x1 DUP2 ADD DUP3 SSTORE PUSH1 0x0 SWAP2 SWAP1 SWAP2 MSTORE PUSH32 0xA66CC928B5EDB82AF9BD49922954155AB7B0942694BEA4CE44661D9A8736C688 ADD PUSH2 0x13C5 DUP11 DUP3 PUSH2 0x1C04 JUMP JUMPDEST POP JUMPDEST DUP2 PUSH1 0x9 DUP11 PUSH1 0x40 MLOAD PUSH2 0x13D8 SWAP2 SWAP1 PUSH2 0x1BA0 JUMP JUMPDEST SWAP1 DUP2 MSTORE PUSH1 0x20 ADD PUSH1 0x40 MLOAD DUP1 SWAP2 SUB SWAP1 KECCAK256 PUSH1 0x0 DUP3 DUP3 SLOAD PUSH2 0x13F5 SWAP2 SWAP1 PUSH2 0x1B54 JUMP JUMPDEST SWAP1 SWAP2 SSTORE POP POP PUSH1 0x40 MLOAD CALLER SWAP1 PUSH32 0xD4855E7B21A64EB863713FC0E6B4E68770D741FD2BCEDBB31EC938DB7C31337C SWAP1 PUSH2 0x142E SWAP1 DUP8 SWAP1 DUP14 SWAP1 PUSH2 0x1CC4 JUMP JUMPDEST PUSH1 0x40 MLOAD DUP1 SWAP2 SUB SWAP1 LOG2 JUMPDEST POP POP POP POP POP POP POP POP PUSH2 0x1448 PUSH1 0x1 DUP1 SSTORE JUMP JUMPDEST POP POP JUMP JUMPDEST PUSH1 0x0 SLOAD PUSH1 0x1 PUSH1 0x1 PUSH1 0xA0 SHL SUB AND CALLER EQ PUSH2 0x5B8 JUMPI PUSH1 0x40 MLOAD PUSH32 0x118CDAA700000000000000000000000000000000000000000000000000000000 DUP2 MSTORE CALLER PUSH1 0x4 DUP3 ADD MSTORE PUSH1 0x24 ADD PUSH2 0x300 JUMP JUMPDEST PUSH1 0x0 DUP1 SLOAD PUSH1 0x1 PUSH1 0x1 PUSH1 0xA0 SHL SUB DUP4 DUP2 AND PUSH32 0xFFFFFFFFFFFFFFFFFFFFFFFF0000000000000000000000000000000000000000 DUP4 AND DUP2 OR DUP5 SSTORE PUSH1 0x40 MLOAD SWAP2 SWAP1 SWAP3 AND SWAP3 DUP4 SWAP2 PUSH32 0x8BE0079C531659141344CD1FD0A4F28419497F9722A3DAAFE3B4186F6B6457E0 SWAP2 SWAP1 LOG3 POP POP JUMP JUMPDEST PUSH1 0x0 DUP3 PUSH2 0x1507 DUP6 DUP5 PUSH2 0x1597 JUMP JUMPDEST EQ SWAP5 SWAP4 POP POP POP POP JUMP JUMPDEST PUSH1 0x2 PUSH1 0x1 SLOAD SUB PUSH2 0x154C JUMPI PUSH1 0x40 MLOAD PUSH32 0x3EE5AEB500000000000000000000000000000000000000000000000000000000 DUP2 MSTORE PUSH1 0x4 ADD PUSH1 0x40 MLOAD DUP1 SWAP2 SUB SWAP1 REVERT JUMPDEST PUSH1 0x2 PUSH1 0x1 SSTORE JUMP JUMPDEST PUSH1 0x0 SLOAD PUSH1 0x1 PUSH1 0xA0 SHL SWAP1 DIV PUSH1 0xFF AND ISZERO PUSH2 0x5B8 JUMPI PUSH1 0x40 MLOAD PUSH32 0xD93C066500000000000000000000000000000000000000000000000000000000 DUP2 MSTORE PUSH1 0x4 ADD PUSH1 0x40 MLOAD DUP1 SWAP2 SUB SWAP1 REVERT JUMPDEST PUSH1 0x0 DUP2 DUP2 JUMPDEST DUP5 MLOAD DUP2 LT ISZERO PUSH2 0x15D2 JUMPI PUSH2 0x15C8 DUP3 DUP7 DUP4 DUP2 MLOAD DUP2 LT PUSH2 0x15BB JUMPI PUSH2 0x15BB PUSH2 0x1CDD JUMP JUMPDEST PUSH1 0x20 MUL PUSH1 0x20 ADD ADD MLOAD PUSH2 0x15DC JUMP JUMPDEST SWAP2 POP PUSH1 0x1 ADD PUSH2 0x159C JUMP JUMPDEST POP SWAP1 POP JUMPDEST SWAP3 SWAP2 POP POP JUMP JUMPDEST PUSH1 0x0 DUP2 DUP4 LT PUSH2 0x15F8 JUMPI PUSH1 0x0 DUP3 DUP2 MSTORE PUSH1 0x20 DUP5 SWAP1 MSTORE PUSH1 0x40 SWAP1 KECCAK256 PUSH2 0x1607 JUMP JUMPDEST PUSH1 0x0 DUP4 DUP2 MSTORE PUSH1 0x20 DUP4 SWAP1 MSTORE PUSH1 0x40 SWAP1 KECCAK256 JUMPDEST SWAP4 SWAP3 POP POP POP JUMP JUMPDEST PUSH4 0x4E487B71 PUSH1 0xE0 SHL PUSH1 0x0 MSTORE PUSH1 0x41 PUSH1 0x4 MSTORE PUSH1 0x24 PUSH1 0x0 REVERT JUMPDEST PUSH1 0x0 DUP3 PUSH1 0x1F DUP4 ADD SLT PUSH2 0x1635 JUMPI PUSH1 0x0 DUP1 REVERT JUMPDEST DUP2 CALLDATALOAD PUSH8 0xFFFFFFFFFFFFFFFF DUP1 DUP3 GT ISZERO PUSH2 0x1650 JUMPI PUSH2 0x1650 PUSH2 0x160E JUMP JUMPDEST PUSH1 0x40 MLOAD PUSH1 0x1F DUP4 ADD PUSH1 0x1F NOT SWAP1 DUP2 AND PUSH1 0x3F ADD AND DUP2 ADD SWAP1 DUP3 DUP3 GT DUP2 DUP4 LT OR ISZERO PUSH2 0x1678 JUMPI PUSH2 0x1678 PUSH2 0x160E JUMP JUMPDEST DUP2 PUSH1 0x40 MSTORE DUP4 DUP2 MSTORE DUP7 PUSH1 0x20 DUP6 DUP9 ADD ADD GT ISZERO PUSH2 0x1691 JUMPI PUSH1 0x0 DUP1 REVERT JUMPDEST DUP4 PUSH1 0x20 DUP8 ADD PUSH1 0x20 DUP4 ADD CALLDATACOPY PUSH1 0x0 PUSH1 0x20 DUP6 DUP4 ADD ADD MSTORE DUP1 SWAP5 POP POP POP POP POP SWAP3 SWAP2 POP POP JUMP JUMPDEST PUSH1 0x0 PUSH1 0x20 DUP3 DUP5 SUB SLT ISZERO PUSH2 0x16C3 JUMPI PUSH1 0x0 DUP1 REVERT JUMPDEST DUP2 CALLDATALOAD PUSH8 0xFFFFFFFFFFFFFFFF DUP2 GT ISZERO PUSH2 0x16DA JUMPI PUSH1 0x0 DUP1 REVERT JUMPDEST PUSH2 0x16E6 DUP5 DUP3 DUP6 ADD PUSH2 0x1624 JUMP JUMPDEST SWAP5 SWAP4 POP POP POP POP JUMP JUMPDEST PUSH1 0x0 DUP1 DUP4 PUSH1 0x1F DUP5 ADD SLT PUSH2 0x1700 JUMPI PUSH1 0x0 DUP1 REVERT JUMPDEST POP DUP2 CALLDATALOAD PUSH8 0xFFFFFFFFFFFFFFFF DUP2 GT ISZERO PUSH2 0x1718 JUMPI PUSH1 0x0 DUP1 REVERT JUMPDEST PUSH1 0x20 DUP4 ADD SWAP2 POP DUP4 PUSH1 0x20 DUP3 PUSH1 0x5 SHL DUP6 ADD ADD GT ISZERO PUSH2 0x1733 JUMPI PUSH1 0x0 DUP1 REVERT JUMPDEST SWAP3 POP SWAP3 SWAP1 POP JUMP JUMPDEST PUSH1 0x0 DUP1 PUSH1 0x0 DUP1 PUSH1 0x0 PUSH1 0x60 DUP7 DUP9 SUB SLT ISZERO PUSH2 0x1752 JUMPI PUSH1 0x0 DUP1 REVERT JUMPDEST DUP6 CALLDATALOAD SWAP5 POP PUSH1 0x20 DUP7 ADD CALLDATALOAD PUSH8 0xFFFFFFFFFFFFFFFF DUP1 DUP3 GT ISZERO PUSH2 0x1771 JUMPI PUSH1 0x0 DUP1 REVERT JUMPDEST PUSH2 0x177D DUP10 DUP4 DUP11 ADD PUSH2 0x16EE JUMP JUMPDEST SWAP1 SWAP7 POP SWAP5 POP PUSH1 0x40 DUP9 ADD CALLDATALOAD SWAP2 POP DUP1 DUP3 GT ISZERO PUSH2 0x1796 JUMPI PUSH1 0x0 DUP1 REVERT JUMPDEST DUP2 DUP9 ADD SWAP2 POP DUP9 PUSH1 0x1F DUP4 ADD SLT PUSH2 0x17AA JUMPI PUSH1 0x0 DUP1 REVERT JUMPDEST DUP2 CALLDATALOAD DUP2 DUP2 GT ISZERO PUSH2 0x17B9 JUMPI PUSH1 0x0 DUP1 REVERT JUMPDEST DUP10 PUSH1 0x20 DUP3 DUP6 ADD ADD GT ISZERO PUSH2 0x17CB JUMPI PUSH1 0x0 DUP1 REVERT JUMPDEST SWAP7 SWAP10 SWAP6 SWAP9 POP SWAP4 SWAP7 POP PUSH1 0x20 ADD SWAP5 SWAP4 SWAP3 POP POP POP JUMP JUMPDEST PUSH1 0x1 PUSH1 0x1 PUSH1 0xA0 SHL SUB DUP2 AND DUP2 EQ PUSH2 0xC3E JUMPI PUSH1 0x0 DUP1 REVERT JUMPDEST PUSH1 0x0 PUSH1 0x20 DUP3 DUP5 SUB SLT ISZERO PUSH2 0x1805 JUMPI PUSH1 0x0 DUP1 REVERT JUMPDEST DUP2 CALLDATALOAD PUSH2 0x1607 DUP2 PUSH2 0x17DE JUMP JUMPDEST PUSH1 0x0 JUMPDEST DUP4 DUP2 LT ISZERO PUSH2 0x182B JUMPI DUP2 DUP2 ADD MLOAD DUP4 DUP3 ADD MSTORE PUSH1 0x20 ADD PUSH2 0x1813 JUMP JUMPDEST POP POP PUSH1 0x0 SWAP2 ADD MSTORE JUMP JUMPDEST PUSH1 0x0 DUP2 MLOAD DUP1 DUP5 MSTORE PUSH2 0x184C DUP2 PUSH1 0x20 DUP7 ADD PUSH1 0x20 DUP7 ADD PUSH2 0x1810 JUMP JUMPDEST PUSH1 0x1F ADD PUSH1 0x1F NOT AND SWAP3 SWAP1 SWAP3 ADD PUSH1 0x20 ADD SWAP3 SWAP2 POP POP JUMP JUMPDEST PUSH1 0x80 DUP2 MSTORE PUSH1 0x0 PUSH2 0x1873 PUSH1 0x80 DUP4 ADD DUP8 PUSH2 0x1834 JUMP JUMPDEST PUSH1 0x1 PUSH1 0x1 PUSH1 0xA0 SHL SUB SWAP6 SWAP1 SWAP6 AND PUSH1 0x20 DUP4 ADD MSTORE POP SWAP2 ISZERO ISZERO PUSH1 0x40 DUP4 ADD MSTORE PUSH1 0xFF AND PUSH1 0x60 SWAP1 SWAP2 ADD MSTORE SWAP2 SWAP1 POP JUMP JUMPDEST PUSH1 0x0 DUP1 PUSH1 0x0 DUP1 PUSH1 0x60 DUP6 DUP8 SUB SLT ISZERO PUSH2 0x18B1 JUMPI PUSH1 0x0 DUP1 REVERT JUMPDEST DUP5 CALLDATALOAD PUSH2 0x18BC DUP2 PUSH2 0x17DE JUMP JUMPDEST SWAP4 POP PUSH1 0x20 DUP6 ADD CALLDATALOAD PUSH8 0xFFFFFFFFFFFFFFFF DUP2 GT ISZERO PUSH2 0x18D8 JUMPI PUSH1 0x0 DUP1 REVERT JUMPDEST PUSH2 0x18E4 DUP8 DUP3 DUP9 ADD PUSH2 0x16EE JUMP JUMPDEST SWAP6 SWAP9 SWAP1 SWAP8 POP SWAP5 SWAP6 PUSH1 0x40 ADD CALLDATALOAD SWAP5 SWAP4 POP POP POP POP JUMP JUMPDEST PUSH1 0x0 DUP1 PUSH1 0x40 DUP4 DUP6 SUB SLT ISZERO PUSH2 0x190A JUMPI PUSH1 0x0 DUP1 REVERT JUMPDEST DUP3 CALLDATALOAD SWAP2 POP PUSH1 0x20 DUP4 ADD CALLDATALOAD PUSH8 0xFFFFFFFFFFFFFFFF DUP2 GT ISZERO PUSH2 0x1928 JUMPI PUSH1 0x0 DUP1 REVERT JUMPDEST PUSH2 0x1934 DUP6 DUP3 DUP7 ADD PUSH2 0x1624 JUMP JUMPDEST SWAP2 POP POP SWAP3 POP SWAP3 SWAP1 POP JUMP JUMPDEST PUSH1 0x0 PUSH1 0x20 DUP3 DUP5 SUB SLT ISZERO PUSH2 0x1950 JUMPI PUSH1 0x0 DUP1 REVERT JUMPDEST POP CALLDATALOAD SWAP2 SWAP1 POP JUMP JUMPDEST PUSH1 0x20 DUP2 MSTORE PUSH1 0x0 PUSH2 0x1607 PUSH1 0x20 DUP4 ADD DUP5 PUSH2 0x1834 JUMP JUMPDEST DUP1 MLOAD PUSH8 0xFFFFFFFFFFFFFFFF DUP2 AND DUP2 EQ PUSH2 0x1982 JUMPI PUSH1 0x0 DUP1 REVERT JUMPDEST SWAP2 SWAP1 POP JUMP JUMPDEST PUSH1 0x0 PUSH1 0xE0 DUP3 DUP5 SUB SLT ISZERO PUSH2 0x1999 JUMPI PUSH1 0x0 DUP1 REVERT JUMPDEST PUSH1 0x40 MLOAD PUSH1 0xE0 DUP2 ADD DUP2 DUP2 LT PUSH8 0xFFFFFFFFFFFFFFFF DUP3 GT OR ISZERO PUSH2 0x19BC JUMPI PUSH2 0x19BC PUSH2 0x160E JUMP JUMPDEST PUSH1 0x40 MSTORE DUP3 MLOAD PUSH2 0x19CA DUP2 PUSH2 0x17DE JUMP JUMPDEST DUP2 MSTORE PUSH1 0x20 DUP4 ADD MLOAD PUSH2 0x19DA DUP2 PUSH2 0x17DE JUMP JUMPDEST PUSH1 0x20 DUP3 ADD MSTORE PUSH1 0x40 DUP4 DUP2 ADD MLOAD SWAP1 DUP3 ADD MSTORE PUSH2 0x19F5 PUSH1 0x60 DUP5 ADD PUSH2 0x196A JUMP JUMPDEST PUSH1 0x60 DUP3 ADD MSTORE PUSH2 0x1A06 PUSH1 0x80 DUP5 ADD PUSH2 0x196A JUMP JUMPDEST PUSH1 0x80 DUP3 ADD MSTORE PUSH2 0x1A17 PUSH1 0xA0 DUP5 ADD PUSH2 0x196A JUMP JUMPDEST PUSH1 0xA0 DUP3 ADD MSTORE PUSH2 0x1A28 PUSH1 0xC0 DUP5 ADD PUSH2 0x196A JUMP JUMPDEST PUSH1 0xC0 DUP3 ADD MSTORE SWAP4 SWAP3 POP POP POP JUMP JUMPDEST PUSH1 0x0 PUSH1 0x20 DUP3 DUP5 SUB SLT ISZERO PUSH2 0x1A46 JUMPI PUSH1 0x0 DUP1 REVERT JUMPDEST POP MLOAD SWAP2 SWAP1 POP JUMP JUMPDEST PUSH1 0x1 DUP2 DUP2 SHR SWAP1 DUP3 AND DUP1 PUSH2 0x1A61 JUMPI PUSH1 0x7F DUP3 AND SWAP2 POP JUMPDEST PUSH1 0x20 DUP3 LT DUP2 SUB PUSH2 0x1A81 JUMPI PUSH4 0x4E487B71 PUSH1 0xE0 SHL PUSH1 0x0 MSTORE PUSH1 0x22 PUSH1 0x4 MSTORE PUSH1 0x24 PUSH1 0x0 REVERT JUMPDEST POP SWAP2 SWAP1 POP JUMP JUMPDEST DUP1 MLOAD PUSH2 0xFFFF DUP2 AND DUP2 EQ PUSH2 0x1982 JUMPI PUSH1 0x0 DUP1 REVERT JUMPDEST PUSH1 0x0 PUSH1 0x60 DUP3 DUP5 SUB SLT ISZERO PUSH2 0x1AAB JUMPI PUSH1 0x0 DUP1 REVERT JUMPDEST PUSH1 0x40 MLOAD PUSH1 0x60 DUP2 ADD DUP2 DUP2 LT PUSH8 0xFFFFFFFFFFFFFFFF DUP3 GT OR ISZERO PUSH2 0x1ACE JUMPI PUSH2 0x1ACE PUSH2 0x160E JUMP JUMPDEST PUSH1 0x40 MSTORE DUP3 MLOAD PUSH16 0xFFFFFFFFFFFFFFFFFFFFFFFFFFFFFFFF DUP2 AND DUP2 EQ PUSH2 0x1AF1 JUMPI PUSH1 0x0 DUP1 REVERT JUMPDEST DUP2 MSTORE PUSH2 0x1AFF PUSH1 0x20 DUP5 ADD PUSH2 0x1A87 JUMP JUMPDEST PUSH1 0x20 DUP3 ADD MSTORE PUSH2 0x1B10 PUSH1 0x40 DUP5 ADD PUSH2 0x1A87 JUMP JUMPDEST PUSH1 0x40 DUP3 ADD MSTORE SWAP4 SWAP3 POP POP POP JUMP JUMPDEST PUSH4 0x4E487B71 PUSH1 0xE0 SHL PUSH1 0x0 MSTORE PUSH1 0x11 PUSH1 0x4 MSTORE PUSH1 0x24 PUSH1 0x0 REVERT JUMPDEST PUSH1 0x0 DUP3 PUSH2 0x1B4F JUMPI PUSH4 0x4E487B71 PUSH1 0xE0 SHL PUSH1 0x0 MSTORE PUSH1 0x12 PUSH1 0x4 MSTORE PUSH1 0x24 PUSH1 0x0 REVERT JUMPDEST POP DIV SWAP1 JUMP JUMPDEST DUP1 DUP3 ADD DUP1 DUP3 GT ISZERO PUSH2 0x15D6 JUMPI PUSH2 0x15D6 PUSH2 0x1B1C JUMP JUMPDEST DUP1 DUP3 MUL DUP2 ISZERO DUP3 DUP3 DIV DUP5 EQ OR PUSH2 0x15D6 JUMPI PUSH2 0x15D6 PUSH2 0x1B1C JUMP JUMPDEST PUSH1 0x0 PUSH1 0x20 DUP3 DUP5 SUB SLT ISZERO PUSH2 0x1B90 JUMPI PUSH1 0x0 DUP1 REVERT JUMPDEST DUP2 MLOAD DUP1 ISZERO ISZERO DUP2 EQ PUSH2 0x1607 JUMPI PUSH1 0x0 DUP1 REVERT JUMPDEST PUSH1 0x0 DUP3 MLOAD PUSH2 0x1BB2 DUP2 DUP5 PUSH1 0x20 DUP8 ADD PUSH2 0x1810 JUMP JUMPDEST SWAP2 SWAP1 SWAP2 ADD SWAP3 SWAP2 POP POP JUMP JUMPDEST PUSH1 0x1F DUP3 GT ISZERO PUSH2 0xB39 JUMPI PUSH1 0x0 DUP2 PUSH1 0x0 MSTORE PUSH1 0x20 PUSH1 0x0 KECCAK256 PUSH1 0x1F DUP6 ADD PUSH1 0x5 SHR DUP2 ADD PUSH1 0x20 DUP7 LT ISZERO PUSH2 0x1BE5 JUMPI POP DUP1 JUMPDEST PUSH1 0x1F DUP6 ADD PUSH1 0x5 SHR DUP3 ADD SWAP2 POP JUMPDEST DUP2 DUP2 LT ISZERO PUSH2 0x59E JUMPI DUP3 DUP2 SSTORE PUSH1 0x1 ADD PUSH2 0x1BF1 JUMP JUMPDEST DUP2 MLOAD PUSH8 0xFFFFFFFFFFFFFFFF DUP2 GT ISZERO PUSH2 0x1C1E JUMPI PUSH2 0x1C1E PUSH2 0x160E JUMP JUMPDEST PUSH2 0x1C32 DUP2 PUSH2 0x1C2C DUP5 SLOAD PUSH2 0x1A4D JUMP JUMPDEST DUP5 PUSH2 0x1BBC JUMP JUMPDEST PUSH1 0x20 DUP1 PUSH1 0x1F DUP4 GT PUSH1 0x1 DUP2 EQ PUSH2 0x1C67 JUMPI PUSH1 0x0 DUP5 ISZERO PUSH2 0x1C4F JUMPI POP DUP6 DUP4 ADD MLOAD JUMPDEST PUSH1 0x0 NOT PUSH1 0x3 DUP7 SWAP1 SHL SHR NOT AND PUSH1 0x1 DUP6 SWAP1 SHL OR DUP6 SSTORE PUSH2 0x59E JUMP JUMPDEST PUSH1 0x0 DUP6 DUP2 MSTORE PUSH1 0x20 DUP2 KECCAK256 PUSH1 0x1F NOT DUP7 AND SWAP2 JUMPDEST DUP3 DUP2 LT ISZERO PUSH2 0x1C96 JUMPI DUP9 DUP7 ADD MLOAD DUP3 SSTORE SWAP5 DUP5 ADD SWAP5 PUSH1 0x1 SWAP1 SWAP2 ADD SWAP1 DUP5 ADD PUSH2 0x1C77 JUMP JUMPDEST POP DUP6 DUP3 LT ISZERO PUSH2 0x1CB4 JUMPI DUP8 DUP6 ADD MLOAD PUSH1 0x0 NOT PUSH1 0x3 DUP9 SWAP1 SHL PUSH1 0xF8 AND SHR NOT AND DUP2 SSTORE JUMPDEST POP POP POP POP POP PUSH1 0x1 SWAP1 DUP2 SHL ADD SWAP1 SSTORE POP JUMP JUMPDEST DUP3 DUP2 MSTORE PUSH1 0x40 PUSH1 0x20 DUP3 ADD MSTORE PUSH1 0x0 PUSH2 0x16E6 PUSH1 0x40 DUP4 ADD DUP5 PUSH2 0x1834 JUMP JUMPDEST PUSH4 0x4E487B71 PUSH1 0xE0 SHL PUSH1 0x0 MSTORE PUSH1 0x32 PUSH1 0x4 MSTORE PUSH1 0x24 PUSH1 0x0 REVERT INVALID LOG2 PUSH5 0x6970667358 0x22 SLT KECCAK256 TIMESTAMP RETURNDATASIZE 0xD5 DUP14 PUSH16 0x64C99F55D96149511E3BB6A7B05979CB PUSH3 0x44A7EA PUSH0 SELFDESTRUCT 0x2B POP 0xC5 0xED DELEGATECALL PUSH5 0x736F6C6343 STOP ADDMOD XOR STOP CALLER "
        },
        "methodIdentifiers": {
          "checkWhitelist(address,bytes32[],uint256)": "76078dbe",
          "codes(uint256)": "e86613a7",
          "data()": "73d4a13a",
          "getSaleTokensSold()": "852d58ba",
          "owner()": "8da5cb5b",
          "paused()": "5c975abb",
          "purchase(uint256,string)": "da9581b6",
          "purchaseAmountPerCode(string)": "01deac2c",
          "renounceOwnership()": "715018a6",
          "saleTokenPurchased()": "1d6a4581",
          "totalPaymentReceived()": "48faade4",
          "totalPurchased(address)": "497aef28",
          "transferOwnership(address)": "f2fde38b",
          "whitelistedPurchase(uint256,bytes32[],string)": "2761f329"
        }
      }
    }
  }
}